S012000043473330303252544F532E737265637B
S113000022C2000051C200004FC200004DC20000D5
S11300104BC2000049C2000047C2000045C20000B4
S113002043C2000041C200003FC200003DC20000C4
S11300303BC200000C949C1637C2000035C200007D
S113004033C2000031C200002FC200002DC20000E4
S11300502BC200000C94FC1427C200000C94EF2463
S113006023C200000C94AF200C942F211DC2000069
S11300701BC2000019C2000017C2000015C2000014
S113008013C2000011C200000FC200000DC2000024
S11300900C94EF200C946E2107C200000C94C31A38
S11300A003C2000001C20000FFC10000FDC1000046
S11300B0FBC10000F9C10000F7C10000F5C1000058
S11300C0F3C10000F1C10000EFC10000EDC1000068
S11300D00C94AD21E9C10000E7C100000C94EC21AF
S11300E0E3C10000C91BCC1BCC1BCC1BCC1BCC1B01
S11300F0CC1BCC1BE31ACC1BCC1BCC1BCC1BCC1BAE
S1130100CC1BCC1BE31ACC1BCC1BCC1BCC1BCC1B9D
S1130110CC1BCC1BEB1ACC1BCC1BCC1BCC1BCC1B85
S1130120CC1BCC1B101BCC1BCC1BCC1BCC1BCC1B4F
S1130130CC1BCC1BEB1ACC1BCC1BCC1BCC1BCC1B65
S1130140CC1BCC1B151BCC1BCC1BCC1BCC1BCC1B2A
S1130150CC1BCC1B1A1BCC1BCC1BCC1BCC1BCC1B15
S1130160CC1BCC1B2B1BCC1BCC1BCC1BCC1BCC1BF4
S1130170CC1BCC1B541BCC1BCC1BCC1BCC1BCC1BBB
S1130180CC1BCC1B1F1BCC1BCC1BCC1BCC1BCC1BE0
S1130190CC1BCC1B391BCC1BCC1BCC1BCC1BCC1BB6
S11301A0CC1BCC1B561BCC1BCC1BCC1BCC1BCC1B89
S11301B0CC1BCC1B561BCC1BCC1BCC1BCC1BCC1B79
S11301C0CC1BCC1B561BCC1BCC1BCC1BCC1BCC1B69
S11301D0CC1BCC1B561BCC1BCC1BCC1BCC1BCC1B59
S11301E0CC1BCC1B5F1BCC1BCC1BCC1BCC1BCC1B40
S11301F0CC1BCC1B901BCC1BCC1BCC1BCC1BCC1BFF
S1130200CC1BCC1B5F1BCC1BCC1BCC1BCC1BCC1B1F
S1130210CC1BCC1B901BCC1BCC1BCC1BCC1BCC1BDE
S1130220CC1BCC1B771BCC1BCC1BCC1BCC1BCC1BE7
S1130230CC1BCC1B941BCC1BCC1BCC1BCC1BCC1BBA
S1130240CC1BCC1B941BCC1BCC1BCC1BCC1BCC1BAA
S1130250CC1BCC1BA91BCC1BCC1BCC1BCC1BCC1B85
S1130260CC1BCC1BC31BCC1BCC1BCC1BCC1BCC1B5B
S1130270CC1BCC1BC31B036EDB363D9A9999993D6D
S1130280ABAAAA2A3E000000803F084AD73B3BCED7
S1130290016E84BCBFFDC12F3D6C74319ABD568381
S11302A03DDA3D00C77F11BED9E4BB4C3E916BAA39
S11302B0AABE000000803F072C7AA5BA6CC590DA6C
S11302C03B9365FC8BBC53F810FD3C5692834DBDAB
S11302D0879D3AB63DCBC9BF5BBE73DA0FC93F05F4
S11302E0A84CCDB2D44EB93836A9020C50B9918677
S11302F088083CA6AAAA2ABE000000803F000B265C
S11303000F26FF2505265426132619261F262526E3
S11303102B26312637263D265426432649264F26AA
S11303200000090A02080B0C0D0706030401000073
S113033000000000000000000000000000000000B9
S113034000000000000000000000000011100F0079
S11303500000000000000000000000000000000099
S113036000000000000001021020200808102040B6
S11303701020408002010201080402010102040865
S113038010204080804020100804020180040201F3
S1130390804020100804020108040201010204083C
S11303A01020408001020408102040800505050546
S11303B0070508080808020202020A0A08080404D9
S11303C00404010101010101010103030303030307
S11303D00303040707070C0C0C0C0C0C0C0C020296
S11303E0020206060606060606060B0B0B0B0B0B93
S11303F00B0B000020002300260029002C002F00F6
S1130400320000010000030106010901000022007E
S1130410250028002B002E003100340002010000CA
S1130420050108010B0100002100240027002A0017
S11304302D003000330001010000040107010A010E
S1130440A00AB11CF22211241FBECFEFD1E2DEBFFD
S1130450CDBF00E00CBF12E0A0E0B2E0EEE2F3E5B5
S113046000E00BBF02C007900D92A43DB107D9F77D
S113047021E1A4EDB2E001C01D92A83FB207E1F76B
S113048014E0C6E4D4E000E006C022970109FE01AE
S11304900BBF0E94D526C034D10780E00807A9F716
S11304A00E94550C0C949529ABCD2F923F924F92FC
S11304B05F926F927F928F929F92AF92BF92CF92F0
S11304C0DF92EF92FF920F931F93CF93DF93CDB7F9
S11304D0DEB762970FB6F894DEBF0FBECDBF988B20
S11304E08F875A8B498B812C912C2E018DE0480EDD
S11304F0511C7E876D8746C0F50161917191819190
S113050091915F01F70120813181428153810E94E1
S1130510491FF80161937193819391938F01FCE0DA
S1130520EF0EF11C0415150539F72D813E814F811D
S1130530588569817A818B819C810E94B61C2985AA
S11305403A854B855C850E94B61CF30161937193D7
S1130550819391933F01F4E0CF0ED11C8CE0C81637
S1130560D10449F08E010F5F1F4FED84FE84EC0C23
S1130570FD1C5101C1CFECE08E0E911CF4E28F16EC
S1130580910459F069887A88680C791CC12CD12CA3
S11305902F843888280C391CE5CF62960FB6F8945E
S11305A0DEBF0FBECDBFDF91CF911F910F91FF90A2
S11305B0EF90DF90CF90BF90AF909F908F907F90FF
S11305C06F905F904F903F902F900895AF92BF929D
S11305D0CF92DF92EF92FF920F931F93CF93DF930B
S11305E05C01062F172FC3E0D0E0C12CD12C76017B
S11305F0F50161917191819191915F01F8012191CE
S11306003191419151918F010E94491F9B01AC018D
S1130610C701B6010E94B61C6B017C01219720978B
S113062039F7DF91CF911F910F91FF90EF90DF90F9
S1130630CF90BF90AF900895AF92BF92CF92DF92C8
S1130640EF92FF920F931F93CF93DF935C01EB0123
S11306508A01FA0120853185428553856C817D812B
S11306608E819F810E94491F6B017C01F8012481C6
S1130670358146815781688579858A859B850E9465
S1130680491F9B01AC01C701B6010E94B51CF501CD
S11306906083718382839383F80120813181428155
S11306A05381688579858A859B850E94491F6B01E2
S11306B07C01F801208531854285538568817981E3
S11306C08A819B810E94491F9B01AC01C701B6012D
S11306D00E94B51CF5016483758386839783F801B2
S11306E02481358146815781688179818A819B8102
S11306F00E94491F6B017C01F801208131814281F4
S113070053816C817D818E819F810E94491F9B0151
S1130710AC01C701B6010E94B51CF5016087718761
S113072082879387DF91CF911F910F91FF90EF9074
S1130730DF90CF90BF90AF9008958F929F92AF9229
S1130740BF92EF92FF920F931F93CF93DF934901D0
S11307505A01062F172F7C01C0E0D0E0F801619107
S11307607191819191918F01A50194010E94491F7A
S1130770F70161937193819391937F012196C33023
S1130780D10561F7DF91CF911F910F91FF90EF9009
S1130790BF90AF909F908F900895CF92DF92EF9289
S11307A0FF920F931F93CF93DF93E62EF72E042F20
S11307B0152F6C01C0E0D0E0F70161917191819136
S11307C091917F01F80121913191419151918F01D2
S11307D00E94B61CF60161937193819391936F010A
S11307E02196C330D10541F7DF91CF911F910F912D
S11307F0FF90EF90DF90CF90089585EF9EE00C94EA
S1130800791C089542E063E082E197E00E949D0D27
S113081082E197E00E94E40C40E263E282E197E027
S11308200E94C40C4FE060E282E197E00C94C40C97
S1130830089582E197E00E94F90C409112075091CB
S113084013075093DF074093DE072091140730917C
S113085015073093E1072093E007809116079091E4
S113086017079093E3078093E2076091D207709192
S1130870D307461B570BE0914C02F0914D02E49FC5
S1130880B001E59F700DF49F700D11247093D10792
S11308906093D0074091D4075091D507241B350BA2
S11308A060914E0270914F02629FA001639F500DB0
S11308B0729F500D11245093CF074093CE0720917F
S11308C0D6073091D707821B930B40915002509169
S11308D05102489F9001499F300D589F300D1124BB
S11308E03093CD072093CC07089542E064E08CEE6A
S11308F096E00E94CA138CEE96E00E942D1280911D
S11309000507823049F0833071F448E161E28CEEEE
S113091096E00C942312089548E263E28CEE96E08C
S11309200C942312089540E363E28CEE96E00C9459
S1130930231208958CEE96E00E946A124091EC0610
S11309405091ED065595479555954795559547957D
S1130950559547955093E5074093E4072091EE069B
S11309603091EF063595279535952795359527953B
S1130970359527953093E7072093E6078091F00695
S11309809091F10695958795959587959595879579
S1130990959587959093E9078093E8076091D80728
S11309A07091D907461B570BE0915202F091530204
S11309B0E49FB001E59F700DF49F700D11247093B6
S11309C0CB076093CA074091DA075091DB07241BD9
S11309D0350B6091540270915502629FA001639F90
S11309E0500D729F500D11245093C9074093C807AE
S11309F02091DC073091DD07821B930B4091560256
S1130A0050915702489F9001499F300D589F300DD7
S1130A1011243093C7072093C60708958CEE96E0FF
S1130A200E94E31240915802509159022091F2061B
S1130A303091F306429FC001439F900D529F900D49
S1130A4011249093C5078093C40740915A02509192
S1130A505B022091F4063091F506429FC001439F4A
S1130A60900D529F900D11249093C3078093C20759
S1130A7040915C0250915D022091F6063091F70698
S1130A80429FC001439F900D529F900D112490935B
S1130A90C1078093C0070895CF92DF92EF92FF922F
S1130AA0CF93DF93CDB7DEB7A4970FB6F894DEBF2C
S1130AB00FBECDBF60E372E084E292E087DD905820
S1130AC020E030E040E05FE30E94491F6B017C01BD
S1130AD09B01AC0160E372E0CE0101962EDEA7011A
S1130AE0960164E272E0CE010D9627DE44E252E004
S1130AF0BE016F5F7F4FCB0150DE40E352E0BE0189
S1130B00635F7F4FCB0149DEAE01435F5F4FBE01A0
S1130B106F5F7F4FCE0149968FDDBE016F5F7F4FC0
S1130B20CB0154DD9B01AC0160E070E080E490E413
S1130B300E94B51C20E030E040E05FE30E94491FC2
S1130B409B01AC01BE016F5F7F4F84E292E0F5DD53
S1130B50BE01635F7F4FCB0139DD9B01AC0160E0D7
S1130B6070E080E490E40E94B51C20E030E040E0B6
S1130B705FE30E94491F9B01AC01BE01635F7F4F8D
S1130B8080E392E0DADDBE01675E7F4FCB011EDDBC
S1130B909B01AC0160E070E080E490E40E94B51C2D
S1130BA020E030E040E05FE30E94491F9B01AC017C
S1130BB0BE01675E7F4F8CE392E0BFDDA4960FB663
S1130BC0F894DEBF0FBECDBFDF91CF91FF90EF90C1
S1130BD0DF90CF9008954F925F926F927F928F92A1
S1130BE09F92AF92BF92CF92DF92EF92FF92609169
S1130BF0A4077091A5078091A6079091A7078090FC
S1130C00A8079090A907A090AA07B090AB07C0903E
S1130C10AC07D090AD07E090AE07F090AF079B0112
S1130C20AC010E94491F2B013C01A5019401C5019F
S1130C30B4010E94491F9B01AC01C301B2010E948F
S1130C40B61C4B015C01A7019601C701B6010E94C5
S1130C50491F9B01AC01C501B4010E94B61C0E944E
S1130C60B61F20E030E040E85BE30E94491F9B018F
S1130C70AC0160E070E080E89FE30E94B51C6B016A
S1130C807C0120E030E0A9010E943E1F1816B4F454
S1130C90A7019601C701B6010E94B61C9B01AC01D5
S1130CA060E070E080E89FE30E94B51C20E030E043
S1130CB0A9010E94931D882304F55AC0A701960137
S1130CC0C701B6010E94B61C20E030E040E85FE3B3
S1130CD00E94B61C4B015C0120E030E0A9010E9497
S1130CE0931D88230CF448C020E030E0A901C7011B
S1130CF0B6010E943E1F1816BCF4A7019601C70155
S1130D00B6010E94B61C9B01AC0160E070E080E873
S1130D109FE30E94B51C20E030E040E85FE30E94BE
S1130D203E1F18166CF113C020E030E040E85FE38A
S1130D30C501B4010E943E1F18165CF120E030E0AA
S1130D40A901C701B6010E943E1F181654F5A70158
S1130D509601C701B6010E94B61C9B01AC0160E07C
S1130D6070E080E89FE30E94B51C4B015C0119C050
S1130D70812C912C540115C0812C912C540111C04B
S1130D800F2E812C912CF0E8AF2EFFE3BF2EF02D17
S1130D9008C00F2E812C912CF0E8AF2EFFE3BF2E5C
S1130DA0F02D4CE352E064EA77E080E597E044DC20
S1130DB02AE037ED43EA5CE3C501B4010E94491F10
S1130DC09B01AC0160E577E080E897E0B6DC2CEAB3
S1130DD035EC47EA57E3C501B4010E94491F9B0162
S1130DE0AC0160E577E080EE92E0A7DC40EE52E0F3
S1130DF064E777E0CB01D1DCC090B007D090B107B5
S1130E00E090B207F090B307C701B6010E94971DA6
S1130E104B015C01C701B6010E94AC1F2091240262
S1130E203091250240912602509127020E94491FC9
S1130E306B017C01209130023091310240913202E9
S1130E4050913302C501B4010E94491F9B01AC01BA
S1130E50C701B6010E94B51C9B01AC016CE372E0B2
S1130E6084E497E06ADC2AE939E949E95FE364E468
S1130E7077E084ED92E061DC44ED52E060E877E0F5
S1130E80CB018BDC2CEA35EC47EA57E364E477E0EA
S1130E9080EE92E052DC40EE52E064E777E0CB0172
S1130EA07CDCFF90EF90DF90CF90BF90AF909F904D
S1130EB08F907F906F905F904F9008954F925F92C4
S1130EC06F927F928F929F92AF92BF92CF92DF9256
S1130ED0EF92FF920F931F93CF93DF9300D01F9253
S1130EE0CDB7DEB76091D0077091D107882777FD21
S1130EF08095982F0E94041E29E732E240EA5AE3C3
S1130F000E94491F609398077093990780939A07EA
S1130F1090939B076091CE077091CF07882777FD48
S1130F208095982F0E94041E29E732E240EA5AE392
S1130F300E94491F60939C0770939D0780939E07AE
S1130F4090939F076091CC077091CD07882777FD18
S1130F508095982F0E94041E29E732E240EA5AE362
S1130F600E94491F6093A0077093A1078093A20772
S1130F709093A3076091CA077091CB07882777FDE8
S1130F808095982F0E94041E6093A4077093A50770
S1130F908093A6079093A7076091C8077091C9072B
S1130FA0882777FD8095982F0E94041E6093A807D8
S1130FB07093A9078093AA079093AB076091C60723
S1130FC07091C707882777FD8095982F0E94041E8B
S1130FD06093AC077093AD078093AE079093AF070F
S1130FE044E757E068E977E088E697E0D6DB40E835
S1130FF057E068E677E08CE897E0CFDB10920002D8
S1131000109201021092020210920302C090480250
S1131010D0904902E0904A02F0904B0246015701F9
S1131020B7FAB094B7F8B0944090940750909507ED
S11310306090960770909707A3019201C501B401CF
S11310400E94491F60930402709305028093060274
S1131050909307028091900790919107A091920735
S1131060B091930789839A83AB83BC839C01AD01C0
S1131070C701B6010E94491F6093080270930902D8
S113108080930A0290930B02A3019201C701B60157
S11310900E94491F60930C0270930D0280930E020C
S11310A090930F02109210021092110210921202E9
S11310B01092130240908C0750908D0760908E0719
S11310C070908F07A3019201C501B4010E94491FCA
S11310D06093140270931502809316029093170282
S11310E029813A814B815C81C501B4010E94491F69
S11310F0609318027093190280931A0290931B0252
S1131100A3019201C701B6010E94491F60931C020A
S113111070931D0280931E0290931F02109220026E
S11311201092210210922202109223024EE157E003
S113113060E072E084E292E0B8D9C12CD12CA12CF9
S1131140B12C21C0D8012D913D914D915D918D011E
S1131150F40160817181828193810E94B61CD40163
S11311606D937D938D939D934D01BFEFEB1AFB0A15
S1131170E3E0EE16F10431F7FCE0CF0ED11C84E27B
S1131180C816D10451F0D601AC5DBD4F4D018601A6
S1131190025E184FEA2CFB2CD5CF0F900F900F90C6
S11311A00F90DF91CF911F910F91FF90EF90DF90FF
S11311B0CF90BF90AF909F908F907F906F905F90F3
S11311C04F90089560913C0270913D0280913E02DF
S11311D090913F020E941A1DDC01CB01B05880930C
S11311E0600790936107A0936207B093630720910F
S11311F04402309145024091460250914702609169
S113120040027091410280914202909143020E94F7
S1131210401D6093640770936507809366079093FD
S113122067072091240230912502409126025091B3
S113123027026091300270913102809132029091C4
S113124033020E94401D60935C0770935D07809396
S11312505E0790935F0708954F925F926F927F921B
S11312608F929F92AF92BF92CF92DF92EF92FF92B2
S11312700F931F93CF93DF93CDB7DEB760970FB66D
S1131280F894DEBF0FBECDBFC0906407D090650751
S1131290E0906607F0906707C701B6010E94971DAA
S11312A069837A838B839C83C701B6010E94AC1F38
S11312B06D837E838F839887C0906007D090610789
S11312C0E0906207F0906307C701B6010E94971D82
S11312D06D877E878F87988BC701B6010E94AC1FEC
S11312E069877A878B879C87A0905802B0905902AF
S11312F080E099E0A89EB001A99E700DB89E700D83
S113130011248091C4079091C507680F791F88271D
S113131077FD8095982F0E94041E20E038E94EE95D
S113132055E40E949A1D6B017C01B501882777FD65
S11313308095982F0E94041E20E030E040E05FE397
S11313400E94491F9B01AC01C701B6010E94B51C54
S11313502B013C016093BC077093BD078093BE07CB
S11313609093BF07A0905A02B0905B0282E998E084
S1131370A89EB001A99E700DB89E700D1124809195
S1131380C2079091C307680F791F882777FD80955E
S1131390982F0E94041E20E030EF4DE955E40E948E
S11313A09A1D6B017C01B501882777FD8095982FE4
S11313B00E94041E20E030E040E05FE30E94491FE9
S11313C09B01AC01C701B6010E94B51C4B015C0135
S11313D06093B8077093B9078093BA079093BB07DB
S11313E000915C0210915D028CE698E0089FB001C8
S11313F0099F700D189F700D11248091C007909162
S1131400C107680F791F882777FD8095982F0E9460
S1131410041E20E038E649E955E40E949A1D6B0158
S11314207C01B801882777FD8095982F0E94041EBF
S113143020E030E040E05FE30E94491F9B01AC01E3
S1131440C701B6010E94B51C6B017C016093B4070F
S11314507093B5078093B6079093B707A3019201E1
S11314606D857E858F8598890E94491F2B013C01DB
S1131470A50194016D817E818F8198850E94491F09
S113148029853A854B855C850E94491F9B01AC01E7
S1131490C301B2010E94B61C2B013C01A7019601B5
S11314A069817A818B819C810E94491F29853A85B3
S11314B04B855C850E94491F9B01AC01C301B201AD
S11314C00E94B61C2B013C01A501940169817A811B
S11314D08B819C810E94491F4B015C01A7019601ED
S11314E06D817E818F8198850E94491F9B01AC018B
S11314F0C501B4010E94B51C9058A30192010E9439
S1131500401D6093B0077093B1078093B207909326
S1131510B30760960FB6F894DEBF0FBECDBFDF9160
S1131520CF911F910F91FF90EF90DF90CF90BF90DC
S1131530AF909F908F907F906F905F904F900895A1
S11315402CE231E047E166E182EF97E00E94A614C5
S11315502CE231E049E168E184E098E00E94A614BD
S11315602CE231E04BE16AE186E198E00E94A614A6
S11315702CE231E04DE16CE188E298E00E94A6148F
S11315802CE231E04FE16EE18AE398E00E94A61478
S113159082E197E0F2D18CEE96E0C0C30895BC01DD
S11315A08DEA9FE00E9417248DEA9FE00C945E2050
S11315B00895CF93DF93CDB7DEB7FE0136966191E0
S11315C07191AF018CEE92E00E94D9268CEE92E0EC
S11315D0E6DFDF91CF91089589E792E09F938F939F
S11315E0E8DF8CEE96E0BBD69F938F937F936F9347
S11315F021EE3EE245E652E460915C0770915D079E
S113160080915E0790915F070E94491F9F938F937B
S11316107F936F9321EE3EE245E652E460916007CA
S11316207091610780916207909163070E94491F3E
S11316309F938F937F936F9321EE3EE245E652E4AE
S113164060916407709165078091660790916707C0
S11316500E94491F9F938F937F936F938BE792E030
S11316609F938F93A6DF8DB79EB744960FB6F894D9
S11316709EBF0FBE8DBF08950E943925C090EE070E
S1131680D090EF07E090F007F090F107AB01BC01B8
S11316904C195D096E097F094A30510561057105D0
S11316A058F320914207309143072F5F3F4F309307
S11316B0430720934207C092EA07D092EB07E092D7
S11316C0EC07F092ED070E9439256093EE077093C2
S11316D0EF078093F0079093F1070091EA071091C8
S11316E0EB072091EC073091ED0706171707280741
S11316F03907ACF4601B710B820B930B0E94041E20
S113170020E030E04AE754E40E949A1D60934802C6
S11317107093490280934A0290934B0208C010923E
S113172048021092490210924A0210924B0281D848
S113173001D98091420790914307069730F01092A7
S11317404307109242076AD987DDB8DBA5D943DA8B
S113175039DD42DF91CF8F929F92AF92BF92CF92A9
S1131760DF92EF92FF920F931F93CF93DF9340E0AA
S113177052EC61E070E08DEA9FE00E946F223DD858
S1131780B4D840D864E170E080E090E00E946B251A
S113179000E210E00F2EFEEDEF2EF7E0FF2EF02D0D
S11317A0C2EDD7E00F2EFAEEAF2EF7E0BF2EF02DEC
S11317B040D8C0D8D7018C2E9D2EFE018D919D91CD
S11317C020813181820F931F81939193AA15BB05C8
S11317D0A9F764E170E080E090E00E946B2501507D
S11317E011090115110521F70EED17E0E82DF92D6A
S11317F0DF018081918199230CF44F96959587950B
S113180095958795959587959595879595958795BC
S11318108D939C933296E017F10751F7ECEDF7E0C6
S113182080915602D82EC12C808191818C199D09FA
S1131830918380836DE972E08DEA9FE00E94172412
S1131840C82DD92D699179914AE050E08DEA9FE045
S11318500E94D9240C171D07A9F70E94392560930B
S1131860EE077093EF078093F0079093F10764E11C
S113187070E080E090E00E946B2510924307109284
S1131880420785EA92E09F938F9393DE0F900F9027
S1131890DF91CF911F910F91FF90EF90DF90CF9048
S11318A0BF90AF909F908F900895AF92BF92CF92C8
S11318B0DF92EF92FF920F93CF93DF931F921F92C9
S11318C0CDB7DEB70E94932546DFA12CB12CC12CE5
S11318D0D12CCE0101967C0105E020E030E040E807
S11318E050E068EA72E08CE39BE00E94BD160E941F
S11318F0C51780E090E00F900F90DF91CF910F918A
S1131900FF90EF90DF90CF90BF90AF900895CF936A
S1131910DF93EC010E94EE1780914C0890914D08E2
S1131920892B31F481E598E090934D0880934C081D
S113193040914E0850914F089E01240F351F2B3DB6
S113194085E0380770F44217530770F4C0914C08CF
S1131950D0914D08C40FD51F30934F0820934E08E3
S113196005C0C0E0D0E002C0C0E0D0E00E94B218E0
S1131970CE01DF91CF9108950895FC0183E0878320
S113198012861186138608950F931F93CF93DF93C6
S1131990EC01062F142F688585EF9EE00E94921CAF
S11319A0602F85EF9EE00E94391C612F85EF9EE039
S11319B00E94391C85EF9EE00E94AE1C8E83DF914D
S11319C0CF911F910F910895CF93DF93EC018F81F5
S11319D0823021F440E069E3CE01D6DF40E063E2E7
S11319E0CE01D2DF4FE660E2CE01CEDFDF91CF91B0
S11319F008959F92AF92BF92CF92DF92EF92FF929F
S1131A000F931F93CF93DF93EC01688585EF9EE0DE
S1131A100E94921CE091F50EF091F60E0190F08177
S1131A20E02D68EA85EF9EE0199585EF9EE00E941F
S1131A30AE1C46E0688585EF9EE00E948F1C0E94E4
S1131A4039258B0110C089859A85892B61F00E9404
S1131A503925601B710B89859A858617970718F4B9
S1131A6081E08B8732C085EF9EE00E94DF1B0697E2
S1131A7054F385EF9EE00E94E71BA82E85EF9EE0BD
S1131A800E94E71B982E85EF9EE00E94E71B082F1B
S1131A9085EF9EE00E94E71BB82E85EF9EE00E9432
S1131AA0E71B182F85EF9EE00E94E71BD92CC12C61
S1131AB0CA28D982C882FB2CE12CE02AFB82EA8264
S1131AC0982F8827812B9D838C83DF91CF911F9141
S1131AD00F91FF90EF90DF90CF90BF90AF909F90C9
S1131AE00895CF93DF93C62FD42F85EF9EE00E94F5
S1131AF0921C6D2F85EF9EE00E94391C85EF9EE0BD
S1131B000E94AE1C811111C041E06C2F85EF9EE054
S1131B100E948F1C85EF9EE00E94DF1B892B41F001
S1131B2085EF9EE00E94E71B05C08FEF9FEF02C088
S1131B308FEF9FEFDF91CF9108950F931F93CF9372
S1131B40DF93EC01162F042F633009F456C04230A2
S1131B50C9F556C0133009F058C0873D910509F402
S1131B6058C001E011E02CC0013091F04FE06AE66A
S1131B70CE01B7DF8F3F2FEF920751F0133009F0FA
S1131B8046C0873D910509F047C000E012E018C047
S1131B90133011F0111114C0002349F04FE069E62D
S1131BA0CE019FDF833D9105D1F1013039F04FE043
S1131BB068E6CE0196DF833D910599F11330B9F0C3
S1131BC00230B9F01F83112351F01330A0F4013017
S1131BD011F48BE601C08AE6888781E041C00130B8
S1131BE011F489E601C088E6888781E039C080E085
S1131BF037C080E035C081E033C0442341F11EC0CA
S1131C008FEF860F833030F60FC001E0C3CF00E0C2
S1131C10C1CF01E012E0D4CF00E011E0D1CF01E068
S1131C2001C000E01F82DBCF4FE06BE6CE0159DF3D
S1131C308F3F2FEF920709F08DCF98CF4FE06BE6DF
S1131C4050DF8F3F2FEF920709F087CF8DCF4FE002
S1131C506AE647DF8F3F2FEF920709F092CF98CFC4
S1131C60DF91CF911F910F910895FC010396928308
S1131C7081832FEF3FEF348323839683858390877B
S1131C80878310820895FC01118610860895CF93EE
S1131C90DF939C01FB01DC011196CD91DC9112973D
S1131CA0D383C2838C819D81958384838C819D8120
S1131CB0DC0113967C936E9312977D836C8331873A
S1131CC02087F90180818F5F8083DF91CF91089510
S1131CD0CF93DF93FC01A085B185C281D381848138
S1131CE095819D838C83C481D581828193819B83DB
S1131CF08A831196CD91DC911297CE17DF0731F4C8
S1131D008C819D8112969C938E93119711861086D7
S1131D108C9181508C93DF91CF910895CF93DF9371
S1131D20EC0186E0E0E6F2E0DE01529601900D92CD
S1131D308A95E1F786E0E6E6F2E0DE011C96019082
S1131D400D928A95E1F784E0898F1CA21BA21DA243
S1131D50DF91CF9108954F925F926F927F928F920D
S1131D609F92AF92BF92CF92DF92EF92FF920F9326
S1131D701F93CF93DF9300D01F92CDB7DEB78C01B2
S1131D80DC014D905D906D907C90139714968D902E
S1131D909D90AD90BC90179718968D919D910D9044
S1131DA0BC91A02D89839A83AB83BC83A301920148
S1131DB0C301B2010E94491F6B017C01A50194017A
S1131DC0C501B4010E94491F9B01AC01C701B601C2
S1131DD00E94B61C6B017C0129813A814B815C8194
S1131DE0CA01B9010E94491F9B01AC01C701B60198
S1131DF00E94B61C0E94B61F6B017C019B01AC01C2
S1131E00C301B2010E949A1DF80160837183828329
S1131E109383A7019601C501B4010E949A1DD801BC
S1131E2014966D937D938D939C931797A7019601B8
S1131E3069817A818B819C810E949A1DF801608757
S1131E407187828793870F900F900F900F90DF9187
S1131E50CF911F910F91FF90EF90DF90CF90BF90A3
S1131E60AF909F908F907F906F905F904F90089568
S1131E704F925F926F927F928F929F92AF92BF9296
S1131E80CF92DF92EF92FF920F931F93CF93DF9342
S1131E90CDB7DEB7AA970FB6F894DEBF0FBECDBF9D
S1131EA08C01298F3A8F4B8F5C8F6D8F7E8FDC0175
S1131EB01696CD90DC901797EE24D7FCE094FE2C78
S1131EC052964D915C915397662757FD6095762FF6
S1131ED01C968D919C911D97AA2797FDA095BA2FCA
S1131EE0480F591F6A1F7B1FDB01CA0177231CF4AB
S1131EF00196A11DB11DB595A79597958795A70145
S1131F009601281B390B4A0B5B0B2F8F38A349A36F
S1131F105AA3D8011896CD90DC901997EE24D7FCDB
S1131F20E094FE2C54964D915C915597662757FD8D
S1131F306095762F1E968D919C911F97AA2797FDE9
S1131F40A095BA2F480F591F6A1F7B1FDB01CA01D6
S1131F5077231CF40196A11DB11DB595A7959795FE
S1131F608795A7019601281B390B4A0B5B0B2BA302
S1131F703CA34DA35EA3D8011A964D905C901B9789
S1131F80662457FC6094762C56964D915C91579735
S1131F90662757FD6095762F50968D919C915197A9
S1131FA0AA2797FDA095BA2F480F591F6A1F7B1FB8
S1131FB0DB01CA0177231CF40196A11DB11DB5955F
S1131FC0A79597958795481A590A6A0A7B0AF801D2
S1131FD084809580AA2497FCA094BA2C8281938152
S1131FE09C01442737FD4095542F2FA338A749A7B8
S1131FF05AA72BA13CA14DA15EA1C501B4010E9429
S113200085266B017C01A30192016FA178A589A5A6
S11320109AA50E948526A7019601261B370B480B1B
S1132020590BCA01B9010E94041E6D877E878F87F0
S1132030988BD801CD90DC90EE24D7FCE094FE2C54
S1132040A3019201C701B6010E9485262B013C0120
S11320502F8D38A149A15AA1C501B4010E9485263A
S1132060A3019201261B370B480B590BCA01B90176
S11320700E94041E698B7A8B8B8B9C8B2F8D38A1CD
S113208049A15AA16FA178A589A59AA50E94852680
S11320904B015C012BA13CA14DA15EA1C701B6017E
S11320A00E948526A5019401261B370B480B590B6A
S11320B0CA01B9010E94041E6D8B7E8B8F8B988F91
S11320C0CE010D9648DED80112966D917C9113973E
S11320D0882777FD8095982F0E94041E6B017C0150
S11320E02D893E894F89588D2F8F38A349A35AA330
S11320F0D80114966D917C911597882777FD80956A
S1132100982F0E94041E2B013C0129893A894B898E
S11321105C892BA33CA34DA35EA32F8D38A149A1B9
S11321205AA1C701B6010E94491F4B015C012BA1B2
S11321303CA14DA15EA1C301B2010E94491F9B01B4
S1132140AC01C501B4010E94B51C69837A838B83F9
S11321509C838D859E85AF85B8898FA398A7A9A7F1
S1132160BAA7D8016D917C91882777FD8095982F27
S11321700E94041E4B015C012FA138A549A55AA554
S1132180C301B2010E94491F2B013C01A501940126
S11321906F8D78A189A19AA10E94491F9B01AC016E
S11321A0C301B2010E94B51C6D837E838F8398871F
S11321B0A50194016BA17CA18DA19EA10E94491F40
S11321C04B015C012FA138A549A55AA5C701B60149
S11321D00E94491F9B01AC01C501B4010E94B51CBA
S11321E069877A878B879C87CE010196B4DD698DD8
S11321F07A8D882777FD8095982F0E94041E2B01E5
S11322003C016B8D7C8D882777FD8095982F0E94EB
S1132210041E4B015C016D8D7E8D882777FD8095B2
S1132220982F0E94041E6B017C0129813A814B8105
S11322305C81C301B2010E94491F6F8F78A389A3F7
S11322409AA32D813E814F815885C501B4010E9416
S1132250491F9B01AC016F8D78A189A19AA10E94AD
S1132260B61C6F8F78A389A39AA329853A854B85D9
S11322705C85C701B6010E94491F9B01AC016F8DAB
S113228078A189A19AA10E94B61C6F8F78A389A313
S11322909AA32D853E854F855889C301B2010E94BA
S11322A0491F2B013C0129893A894B895C89C50165
S11322B0B4010E94491F9B01AC01C301B2010E94F9
S11322C0B61C4B015C012D893E894F89588DC7018D
S11322D0B6010E94491F9B01AC01C501B4010E94D3
S11322E0B61C2F8D38A149A15AA10E94401D20E09F
S11322F030E044E353E40E94491F2BED3FE049E4FE
S113230050E40E949A1D6B017C0120E030E0A90199
S11323100E94931D882354F420E030E044EB53E4FE
S1132320C701B6010E94B61C6B017C01C701B6014E
S1132330AA960FB6F894DEBF0FBECDBFDF91CF9142
S11323401F910F91FF90EF90DF90CF90BF90AF90CF
S11323509F908F907F906F905F904F900895CF9350
S1132360DF93CDB7DEB72C970FB6F894DEBF0FBE60
S1132370CDBFFC01218D233079F431E0232F3F833D
S113238018861A8619861C861B8630E040E05A851A
S113239060E07C856DDD0EC01A8219822FEF422F1A
S11323A02B832C831E821D8220E03A815FEF60E044
S11323B07E815EDD2C960FB6F894DEBF0FBECDBFD6
S11323C0DF91CF9108950F931F93CF93DF93EC0187
S11323D0062F142F6A8D85EF9EE00E94921C602FB9
S11323E085EF9EE00E94391C612F85EF9EE00E94DC
S11323F0391C85EF9EE00E94AE1C888FDF91CF913F
S11324001F910F9108950F931F93CF93DF93EC01C6
S1132410062F142F6B8D85EF9EE00E94921C602F77
S113242085EF9EE00E94391C612F85EF9EE00E949B
S1132430391C85EF9EE00E94AE1C888FDF91CF91FE
S11324401F910F910895FC01218D233011F060320A
S113245010F4D9CF0895B7CF0895CF93DF93EC014B
S1132460898D8330A9F440E061E2CE01ECDF47E5D9
S113247060E2CE01E8DF44E664E2CE01E4DF40E25C
S113248065E2CE01E0DF40E066E2CE01DCDF1FC0A2
S1132490823049F448E063E2CE0195DF47E460E22C
S11324A0CE0191DF08C040E063E2CE018CDF47E259
S11324B060E2CE0188DF4CE060E0CE01A4DF40E2C0
S11324C061E0CE01A0DF40E062E0CE019CDFDF915D
S11324D0CF9108959F92AF92BF92CF92DF92EF92E5
S11324E0FF920F931F93CF93DF93EC016A8D85EFD7
S11324F09EE00E94921CE091F50EF091F60E019080
S1132500F081E02D68EA85EF9EE0199585EF9EE065
S11325100E94AE1C888F46E06A8D85EF9EE00E9483
S11325208F1C0E9439258B0110C08BA19CA1892B83
S113253061F00E943925601B710B8BA19CA1861749
S1132540970718F481E08DA332C085EF9EE00E94C6
S1132550DF1B069754F385EF9EE00E94E71BA82E2D
S113256085EF9EE00E94E71B982E85EF9EE00E9477
S1132570E71B082F85EF9EE00E94E71BB82E85EF2E
S11325809EE00E94E71B182F85EF9EE00E94E71B48
S1132590D92CC12CCA28D982C882FB2CE12CE02A70
S11325A0FB82EA82982F8827812B9D838C83DF917D
S11325B0CF911F910F91FF90EF90DF90CF90BF903C
S11325C0AF909F900895CF92DF92EF92FF920F9376
S11325D01F93CF93DF93EC016B8D85EF9EE00E94F8
S11325E0921C898D833031F46E8D772767FD709549
S11325F0606804C06D8D772767FD7095E091F50ED6
S1132600F091F60E0190F081E02D85EF9EE0199592
S113261085EF9EE00E94AE1C888F46E06B8D85EFAF
S11326209EE00E948F1C0E9439258B0110C08BA153
S11326309CA1892B61F00E943925601B710B8BA131
S11326409CA18617970718F481E08DA36EC085EFCF
S11326509EE00E94DF1B069754F3898D8330F9F4C2
S113266085EF9EE00E94E71BC82E85EF9EE00E9446
S1132670E71BD82E85EF9EE00E94E71BE82E85EF2E
S11326809EE00E94E71BF82E85EF9EE00E94E71B68
S1132690082F85EF9EE00E94E71B182F36C085EFB8
S11326A09EE00E94E71BD82E85EF9EE00E94E71B68
S11326B0C82E898D811115C085EF9EE00E94E71B0D
S11326C0F82E85EF9EE00E94E71BE82E85EF9EE042
S11326D00E94E71B182F85EF9EE00E94E71B082F3E
S11326E014C085EF9EE00E94E71B182F85EF9EE043
S11326F00E94E71B082F85EF9EE00E94E71BF82E3F
S113270085EF9EE00E94E71BE82E6C2D70E07D298A
S11327107F836E834E2D50E05F2959874887202F91
S113272030E0C901912B9B878A87DF91CF911F915C
S11327300F91FF90EF90DF90CF900895CF93DF93A8
S1132740C62FD42F85EF9EE00E94921C6D2F85EF3B
S11327509EE00E94391C85EF9EE00E94AE1C811110
S113276011C041E06C2F85EF9EE00E948F1C85EF25
S11327709EE00E94DF1B892B41F085EF9EE00E94C2
S1132780E71B05C08FEF9FEF02C08FEF9FEFDF9134
S1132790CF9108950F931F93CF93DF93EC01162FDE
S11327A0042F643009F4ADC0423009F047C0ADC015
S11327B04FE06DE1CE01C2DF8934910509F4ABC06D
S11327C0013041F04FE06EE1CE01B8DF893491056C
S11327D009F4A3C0143011F0133068F50023A9F0F4
S11327E040E269E1CE01AADF019669F0143009F0F4
S11327F099C04FE06EE1CE01A1DFCC9709F094C0FF
S113280001E012E01BC0013099F040E268E1CE0122
S113281095DF019669F0143009F089C04FE06EE14C
S1132820CE018CDF11E0CC9709F010E000E006C087
S1132830143009F460C0023009F45FC0198F1130FC
S113284071F108F442C01230C1F0133009F057C0DE
S1132850013011F48DE101C08EE18B8F8A8F88E005
S11328608E8F89E08D8F8AE088A38BE08F8F8CE038
S11328708AA38DE089A381E064C089E18A8F8EE117
S11328808B8F83E08D8F84E08E8F87E08F8F88E03D
S113289088A385E089A386E08AA381E052C0013041
S11328A011F489E101C088E18A8F8EE18B8F83E086
S11328B08D8F84E08E8F87E08F8F88E088A385E0FA
S11328C089A386E08AA381E03CC0013011F489E148
S11328D001C088E18A8F8EE18B8F83E08D8F84E045
S11328E08E8F85E08F8F86E088A387E089A388E0B8
S11328F08AA381E026C080E024C080E022C081E079
S113290020C0442309F45ECF53CF8DEF860F82306D
S113291008F062CF0EC001E003C000E001C001E096
S113292013E089CF01E08ACF01E010E087CF00E017
S113293085CF4FE06DE1CE0101DF8934910579F354
S113294041CFDF91CF911F910F910895CF93DF93E2
S1132950DC0170E0FB01EA59FC4FE4911496EC931E
S1132960149750E0FA01EA59FC4FE4911596EC9360
S1132970159764557C4FFB01849190E0880F991F53
S1132980845F9B4FFC01C591D4911796DC93CE9341
S11329901697FA01E455FC4F849190E0880F991F33
S11329A08E509C4FFC014591549119965C934E9323
S11329B01897FB016491E62FF0E0EE0FFF1FEA5D2C
S11329C0FB4F859194911B969C938E931A972F5F3E
S11329D03F4F49E3429FC001439F900D11248E381D
S11329E0FFE69F0710F08DE89FE61D969C938E935B
S11329F01C97DF91CF9108951F920F920FB60F92FB
S1132A0011240BB60F922F933F934F935F936F93C1
S1132A107F938F939F93AF93BF93EF93FF93E09133
S1132A202C0EF0912D0E1995FF91EF91BF91AF915E
S1132A309F918F917F916F915F914F913F912F91D2
S1132A400F900BBE0F900FBE0F901F90189531E1A1
S1132A50FC013083319722E220833197A3E3A083E2
S1132A603197608331977083319710823197108248
S1132A70319760E8608331971082319710823197E3
S1132A801082319762E06083319763E0608331970D
S1132A9064E06083319765E06083319766E060832A
S1132AA0319767E06083319768E06083319769E02C
S1132AB06083319760E1608331973083319732E1ED
S1132AC03083319733E13083319734E13083319768
S1132AD035E13083319736E13083319737E1308304
S1132AE0319738E13083319739E13083319730E2DF
S1132AF03083319731E2308331972083319723E259
S1132B0020833197408331975083319726E2208385
S1132B10319727E22083319728E22083319729E2F5
S1132B202083319720E32083319721E32083899701
S1132B30089582E08093B0001092B20080E3809305
S1132B40B300E0E7F0E080818260808383E08093DB
S1132B50B100A091850EB091860ECD91CDBFDD91CF
S1132B60DEBFFF91EF91DF91CF91BF91AF919F9124
S1132B708F917F916F915F914F913F912F911F9111
S1132B800F91FF90EF90DF90CF90BF90AF909F9008
S1132B908F907F906F905F904F903F902F901F90F9
S1132BA00F900CBE0F900BBE0F900FBE0F900895A8
S1132BB081E008950F920FB6F8940F920BB60F921E
S1132BC00CB60F921F9211242F923F924F925F9254
S1132BD06F927F928F929F92AF92BF92CF92DF9229
S1132BE0EF92FF920F931F932F933F934F935F9313
S1132BF06F937F938F939F93AF93BF93CF93DF9301
S1132C00EF93FF93A091850EB091860E0DB60D92B1
S1132C100EB60D9261D3A091850EB091860ECD9122
S1132C20CDBFDD91DEBFFF91EF91DF91CF91BF91D9
S1132C30AF919F918F917F916F915F914F913F9150
S1132C402F911F910F91FF90EF90DF90CF90BF9045
S1132C50AF909F908F907F906F905F904F903F9038
S1132C602F901F900F900CBE0F900BBE0F900FBEB5
S1132C700F9008950F920FB6F8940F920BB60F921F
S1132C800CB60F921F9211242F923F924F925F9293
S1132C906F927F928F929F92AF92BF92CF92DF9268
S1132CA0EF92FF920F931F932F933F934F935F9352
S1132CB06F937F938F939F93AF93BF93CF93DF9340
S1132CC0EF93FF93A091850EB091860E0DB60D92F1
S1132CD00EB60D9289D18111FFD2A091850EB091CB
S1132CE0860ECD91CDBFDD91DEBFFF91EF91DF91D7
S1132CF0CF91BF91AF919F918F917F916F915F9190
S1132D004F913F912F911F910F91FF90EF90DF9082
S1132D10CF90BF90AF909F908F907F906F905F9077
S1132D204F903F902F901F900F900CBE0F900BBEB2
S1132D300F900FBE0F9008959DDF1895E0914D0EF2
S1132D40F0914E0E8081811107C08FEF9FEF909319
S1132D505F0280935E020895E0914D0EF0914E0E55
S1132D600580F681E02D0680F781E02D8281938134
S1132D7090935F0280935E0208954F925F926F92E8
S1132D807F928F929F92AF92BF92CF92DF92EF92F7
S1132D90FF920F931F93CF93DF934C015B012A01A2
S1132DA0390181E290E00E94870CEC01009709F45C
S1132DB0DAC0C114D10409F0BFC0C2010E94870C5B
S1132DC0988F8F8B892B09F0B9C0CE010E94BC0C5F
S1132DD0CAC0CF013191DA013D93AD01DC018C9180
S1132DE0882311F02150A9F718A2102F043008F0FD
S1132DF013E01E8B5E01B2E0AB0EB11CC5010E9454
S1132E00430ECE010C960E94430ED987C88784E0F6
S1132E1090E0811B91099D878C87DB8BCA8BA30172
S1132E20B401C60114DE99838883E114F10419F016
S1132E30F701D183C0830FB6F8940F928091370EB7
S1132E408F5F8093370E8091850E9091860E892B2B
S1132E50A9F5D093860EC093850E8091370E8130EC
S1132E60E1F581E69EE00E94350E8AE69EE00E942E
S1132E70350E83E79EE00E94350E8CE79EE00E94AB
S1132E80350E88E59EE00E94350E8FE49EE00E9498
S1132E90350E82E49EE00E94350E89E39EE00E9496
S1132EA0350E88E59EE090934E0E80934D0E8FE490
S1132EB09EE090934C0E80934B0E0FC08091330E86
S1132EC081110BC0E091850EF091860E868908175A
S1132ED020F0D093860EC093850E80912F0E8F5FC5
S1132EE080932F0E8E899091340E981710F480934E
S1132EF0340E90E09C01220F331F220F331F220F48
S1132F00331F820F931FB5018F59914F0E94470EB3
S1132F100F900FBE8091330E882351F0E091850EFF
S1132F20F091860E8689801728F444DE81E01CC067
S1132F3081E01AC081E018C0D88ECF8AF1E04F1A20
S1132F405108CF88D88CC40CD51CD5018C91898F9D
S1132F508C91882309F448CFAE01465E5F4FF5019A
S1132F60319627E036CF8FEFDF91CF911F910F91EC
S1132F70FF90EF90DF90CF90BF90AF909F908F9095
S1132F807F906F905F904F900895AF92BF92CF92D1
S1132F90DF92EF92FF920F93A12CB12CC12CD12C74
S1132FA0E12CF12C00E020E030E045E550E06FEA50
S1132FB072E083E399E1E1DE813041F4F894809397
S1132FC0330E1092360E1092350EB3DD0F91FF9032
S1132FD0EF90DF90CF90BF90AF90089580912E0E28
S1132FE08F5F80932E0E0895CF92DF92EF92FF921F
S1132FF00F931F93CF93DF9380912E0E811199C06D
S11330008091350E9091360E01969093360E8093F2
S1133010350EE090350EF090360EE114F104B1F463
S113302080914D0E90914E0E20914B0E30914C0E8E
S113303030934E0E20934D0E90934C0E80934B0E76
S11330408091300E8F5F8093300E78DE80915E0227
S113305090915F02E816F90608F454C0D12CCC24F0
S1133060C39401C0DC2CE0914D0EF0914E0E808192
S1133070811107C08FEF9FEF90935F0280935E02F0
S113308042C0E0914D0EF0914E0E0580F681E02D88
S1133090C681D7812A813B81E216F30628F4309356
S11330A05F0220935E022FC08E010E5F1F4FC80186
S11330B00E94680E8C899D89892B21F0CE010C9683
S11330C00E94680E2E898091340E821710F420938A
S11330D0340E30E0C901880F991F880F991F880F9B
S11330E0991F820F931FB8018F59914F0E94470E69
S11330F0E091850EF091860E9E898689981708F0D6
S1133100B1CFB1CFD12CE091850EF091860E868996
S113311090E0FC01EE0FFF1FEE0FFF1FEE0FFF1FED
S11331208E0F9F1FFC01EF59F14F8081823040F4D4
S113313009C08091320E8F5F8093320ED12C02C071
S1133140DD24D3948091310E882311F0DD24D394AF
S11331508D2DDF91CF911F910F91FF90EF90DF9014
S1133160CF900895DF92EF92FF920F931F93CF9326
S1133170DF930FB6F8940F9280912E0E81508093B6
S11331802E0E80912E0E81115FC08091370E882300
S113319009F45CC00F2EF2E4EF2EFEE0FF2EF02DBA
S11331A0DD24D39430C0E091470EF091480EC681DF
S11331B0D781CE010C960E94680E8E010E5F1F4FC0
S11331C0C8010E94680E8E899091340E981710F4ED
S11331D08093340E90E09C01220F331F220F331F83
S11331E0220F331F820F931FB8018F59914F0E94F2
S11331F0470EE091850EF091860E9E898689981778
S113320010F0D092310EF70180818111CCCF8091E2
S1133210320E882391F08091320E882371F0C1E040
S1133220E3DE8111C093310E8091320E8150809380
S1133230320E8091320E8111F3CF8091310E8130A4
S113324039F4B8DC81E005C080E003C080E001C04F
S113325080E00F900FBEDF91CF911F910F91FF90EF
S1133260EF90DF9008950F2EF1E6EF2EFEE0FF2E93
S1133270F02DC9E3DEE026C0B1DE188173DF11232F
S113328009F10FB6F8940F92E0913E0EF0913F0EC3
S113329006811781C80102960E94680E8091370E3C
S11332A081508093370E8091380E81508093380E70
S11332B00F900FBEF8018789908D0E94BC0CC80145
S11332C00E94BC0C8091380E8111D6CFF701808109
S11332D08230C0F36FDCF6CF80912E0E882321F06C
S11332E081E08093310E08951092310E8091340E56
S11332F090E0FC01EE0FFF1FEE0FFF1FEE0FFF1F0C
S11333008E0F9F1FFC01EF59F14F8081811117C06F
S11333108091340E81508093340E8091340E90E06D
S1133320FC01EE0FFF1FEE0FFF1FEE0FFF1F8E0FAE
S11333309F1FFC01EF59F14F8081882349F3E091ED
S1133340340EF0E0CF01880F991F880F991F880F62
S1133350991FE80FF91FEF59F14FA181B28112961D
S11333600D90BC91A02DB283A183CF010396A81721
S1133370B90731F412968D919C91139792838183AE
S11333800180F281E02D868197819093860E80934F
S1133390850E08951092F40E81E08093F20E10923F
S11333A0F10E61E084E10E94552661E085E10E940E
S11333B05526E9EBF0E080818E7F808380818D7FCC
S11333C0808388E48093B80085E48093BC000895EA
S11333D0413208F045C09091F40E9111FCCF91E078
S11333E09093F40E2093F20E2FEF2093870E1092F9
S11333F0CC0E240F2093CB0E9093F30E9091F30EEA
S1133400880F892B8093F30E8091F10E813051F453
S11334101092F10E8091F30E8093BB0085EC8093A3
S1133420BC0003C085EE8093BC008091F40E813013
S1133430E1F38091CC0E841710F44091CC0E442318
S113344089F0EDECFEE0A62FB72F2FEF240F30E02C
S11334502253314F91919D93E217F307D9F704C09A
S113346080E00895842F0895842F08950F934132A6
S113347008F050C09091F40E9111FCCF92E090931B
S1133480F40E0093F20E9FEF9093870E1092CC0EE1
S11334904093CB0E442369F0FB01ADECBEE06F5FBB
S11334A07F4F4150640F711D91919D93E617F7076B
S11334B0D9F71092F30E9091F30E880F892B809315
S11334C0F30E8091F10E813051F41092F10E80913F
S11334D0F30E8093BB0085EC8093BC0003C085EEA3
S11334E08093BC00222341F08091F40E823021F4B9
S11334F08091F40E8230E1F38091870E8F3F61F06A
S11335008091870E803251F08091870E803341F490
S113351083E007C081E005C080E003C082E001C011
S113352084E00F9108956132A8F42091F40E2430C0
S113353099F46093A90E662389F0FC01ABEABEE01E
S113354001966150860F911D21912D93E817F9077B
S1133550D9F706C081E0089582E0089580E00895D7
S113356080E0089585ED8093BC00ECEBF0E0808171
S113357084FDFDCF1092F40E089585EC8093BC0079
S11335801092F40E08951F920F920FB60F92112409
S11335900BB60F922F933F934F935F936F937F9349
S11335A08F939F93AF93BF93EF93FF938091B90051
S11335B0887F90E0893C910508F0EEC0FC01EE584C
S11335C0FF4F0C94B6268091F30E8093BB0085ECDC
S11335D08093BC00E1C09091CC0E8091CB0E9817E3
S11335E080F4E091CC0E81E08E0F8093CC0EF0E05D
S11335F0E353F14F80818093BB0085EC8093BC0042
S1133600CBC08091F20E882311F0ACDFC5C081E0FD
S11336108093F10E84EA8093BC001092F40EBCC037
S113362080E28093870E9EDFB7C080E38093870E8D
S113363099DFB2C088E38093870E9FDFADC0E0912D
S1133640CC0E81E08E0F8093CC0E8091BB00F0E015
S1133650E353F14F80839091CC0E8091CB0E981759
S113366020F485EC8093BC0097C085E88093BC006F
S113367093C0E091CC0E81E08E0F8093CC0E8091AC
S1133680BB00F0E0E353F14F80838091F20E882376
S113369011F068DF81C081E08093F10E84EA8093A9
S11336A0BC001092F40E78C05DDF76C083E0809396
S11336B0F40E1092880E85EC8093BC006DC080914E
S11336C0880E803280F4E091880E81E08E0F809322
S11336D0880E8091BB00F0E0E757F14F808385ECC2
S11336E08093BC0059C085E88093BC0055C080918C
S11336F0880E803230F4E091880EF0E0E757F14F05
S1133700108230DF6091880E70E0E091ED0EF09150
S1133710EE0E89E89EE019951092880E2EDF3CC0CB
S113372085E88093BC0038C084E08093F40E109246
S1133730AA0E1092A90EE091EF0EF091F00E1995D9
S11337408091A90E811105C081E08093A90E109289
S1133750AB0EE091AA0E81E08E0F8093AA0EF0E0EA
S1133760E555F14F80818093BB009091AA0E809122
S1133770A90E981720F485EC8093BC000DC085E851
S11337808093BC0009C085EC8093BC001092F40EB9
S113379003C01092870EE6DEFF91EF91BF91AF91C7
S11337A09F918F917F916F915F914F913F912F9155
S11337B00F900BBE0F900FBE0F901F901895809125
S11337C0250F90E02091260F821B910908952091E6
S11337D0260F8091250F281750F4E22FF0E0E95DC1
S11337E0F04F808190E02F5F2093260F08958FEF94
S11337F09FEF0895E091260F8091250FE81730F48C
S1133800F0E0E95DF04F808190E008958FEF9FEF45
S113381008950895CF92DF92EF92FF920F931F9332
S1133820CF93DF938C017B016A018091010F882380
S113383099F04115510599F0EB01E40EF51E6991DB
S1133840D801ED91FC910190F081E02DC80119950A
S1133850CE15DF05A1F703C0642FC70164DEC601DE
S1133860DF91CF911F910F91FF90EF90DF90CF9058
S11338700895CF93DF931F92CDB7DEB7698320916C
S1133880010F2223E1F02091020F203240F021E0C9
S113389030E0FC013383228380E090E016C0809105
S11338A0030FE82FF0E0EC5FF04F998190838F5F76
S11338B08093030F8093020F81E090E006C061E0E3
S11338C0CE01019630DE81E090E00F90DF91CF9140
S11338D00895FC011382128248EE53E060E070E028
S11338E0448355836683778388EB92E09183808356
S11338F008951092260F1092250F1092030F109224
S1133900020F48CD0895862F413208F040E267E265
S11339107FE05EDD1092260F8093250F089521E04D
S1133920F2CF089581E08093010F6093240F1092E9
S1133930030F1092020F08950F93062F21E0409178
S1133940020F64E07FE08091240F90DD1092030F5A
S11339501092020F1092010F0F91089561E0ECCFC5
S1133960089585EF9EE0B5CF08955058BB27AA2748
S11339700ED039C202D230F007D220F031F49F3F8A
S113398011F41EF4C1C10EF4E095E7FBB7C1E92FB1
S11339904CD280F3BA17620773078407950718F0AF
S11339A071F49EF564C20EF4E0950B2EBA2FA02D8F
S11339B00B01B90190010C01CA01A0011124FF27D8
S11339C0591B99F0593F50F4503E68F11A16F040D3
S11339D0A22F232F342F4427585FF3CF46953795D2
S11339E02795A795F0405395C9F77EF41F16BA0B97
S11339F0620B730B840BBAF09150A1F0FF0FBB1F45
S1133A00661F771F881FC2F70EC0BA0F621F731F8D
S1133A10841F48F4879577956795B795F7959E3FEA
S1133A2008F0B3CF9395880F08F09927EE0F979578
S1133A30879508959F939F77EEE389379E0720F437
S1133A40E6E7F2E089D109C01AD19058A2EA2AED3A
S1133A503FE049EC5FE39BDFC6D10F9007FC905831
S1133A6008958BD158F080E891E009F49EEF8CD151
S1133A7028F040E851E059F45EEF09C045C1F7C1B0
S1133A80E92FE078D2D168F3092E052AC1F326176D
S1133A9037074807590738F00E2E07F8E02569F074
S1133AA0E025E0640AC0EF6307F8009407FADB013D
S1133AB0B9019D01DC01CA01AD01EF934AD093D154
S1133AC00AD05F91552331F02BED3FE049E450FDDE
S1133AD049EC4CCF0895DF93DD27B92FBF7740E839
S1133AE05FE31616170648075B0710F4D92FCAD1EF
S1133AF09F938F937F936F9377D2EAE8F2E007D195
S1133B0072D12F913F914F915F91CFD1DD2349F035
S1133B109058A2EA2AED3FE049EC5FE3D0785D27B4
S1133B2036DFDF9160C1C6D008F481E0089534D156
S1133B30E3956AC10CD057C127D140F01ED130F0B3
S1133B4021F45F3F19F0DAC0511192C1DDC06DD18B
S1133B5098F39923C9F35523B1F3951B550BBB2750
S1133B60AA2762177307840738F09F5F5F4F220FFD
S1133B70331F441FAA1FA9F333D00E2E3AF0E0E8F6
S1133B8030D091505040E695001CCAF729D0FE2F42
S1133B9027D0660F771F881FBB1F261737074807D4
S1133BA0AB07B0E809F0BB0B802DBF01FF2793588A
S1133BB05F4F2AF09E3F510568F0A0C059C15F3F96
S1133BC0ECF3983EDCF3869577956795B795F79572
S1133BD09F5FC9F7880F911D9695879597F908956A
S1133BE0E1E0660F771F881FBB1F62177307840706
S1133BF0BA0720F0621B730B840BBA0BEE1F88F715
S1133C00E0950895E89409C097FB3EF4909580955B
S1133C10709561957F4F8F4F9F4F9923A9F0F92F8E
S1133C2096E9BB279395F695879577956795B7950C
S1133C30F111F8CFFAF4BB0F11F460FF1BC06F5FF2
S1133C407F4F8F4F9F4F16C0882311F096E911C004
S1133C50772321F09EE8872F762F05C0662371F025
S1133C6096E8862F70E060E02AF09A95660F771F39
S1133C70881FDAF7880F9695879597F90895DF934B
S1133C80CF931F930F938B01EC01E7EBF2E03FD04E
S1133C90AAD09801AE018B01EC0160E070E080E8ED
S1133CA09FE363DE63D19801AE010F911F91CF9121
S1133CB0DF91FBC0990F0008550FAA0BE0E8FEEF57
S1133CC016161706E807F907C0F012161306E407DC
S1133CD0F50798F0621B730B840B950B39F40A26D5
S1133CE061F0232B242B252B21F408950A2609F4B3
S1133CF0A140A6958FEF811D811D089597F99F67B7
S1133D0080E870E060E008959FEF80EC0895DF9311
S1133D10CF931F930F93FF92EF92DF927B018C015D
S1133D20689405C0DA2EEF01C0D0FE01E894A59195
S1133D302591359145915591AEF3EF0128DEFE01B1
S1133D409701A801DA9479F7DF90EF90FF900F9133
S1133D501F91CF91DF9108959F938F937F936F93DA
S1133D60FF93EF939B01AC0194D0EF91FF91CFDFD0
S1133D702F913F914F915F918CC000240A941616A5
S1133D80170618060906089500240A941216130645
S1133D90140605060895B8CF50D0E8F3E894E0E09F
S1133DA0BB279F57F0F02AED3FE049EC06C0EE0F29
S1133DB0BB0F661F771F881F28F0B23A620773078C
S1133DC0840728F0B25A620B730B840BE3959A951F
S1133DD072F7803830F49A95BB0F661F771F881FDF
S1133DE0D2F7904806C1092E0394000C11F48823DD
S1133DF052F0BB0F40F4BF2B11F460FF04C06F5F9F
S1133E007F4F8F4F9F4F0895EF93E0FF06C0A2EAC4
S1133E102AED3FE049EC5FEBBADDE5DF0F90039458
S1133E2001FC9058EFEDF2E097CF57FD9058440F06
S1133E30551F59F05F3F71F04795880F97FB991F05
S1133E4061F09F3F79F087950895121613061406C2
S1133E50551FF2CF4695F1DF08C01616170618064F
S1133E60991FF1CF86957105610508940895E8942A
S1133E70BB2766277727CB0197F908951BDF08F442
S1133E808FEF08959B01AC0160E070E080E89FE350
S1133E9051CE0BD0A8CF71DF28F076DF18F0952330
S1133EA009F02CCF31CF1124E3CFBFDFA0F3959FCE
S1133EB0D1F3950F50E0551F629FF001729FBB270D
S1133EC0F00DB11D639FAA27F00DB11DAA1F649FB9
S1133ED06627B00DA11D661F829F2227B00DA11D6C
S1133EE0621F739FB00DA11D621F839FA00D611DF2
S1133EF0221F749F3327A00D611D231F849F600D13
S1133F00211D822F762F6A2F11249F5750408AF04B
S1133F10E1F088234AF0EE0FFF1FBB1F661F771FD7
S1133F20881F91505040A9F79E3F510570F0E6CE8E
S1133F309FCF5F3FECF3983EDCF3869577956795CA
S1133F40B795F795E7959F5FC1F7FE2B880F911DF5
S1133F509695879597F908959F931EDF0F9007FC18
S1133F60EE5F52CF11F40EF4CFCE41C066DFD0F332
S1133F709923D9F3CEF39F57550B87FF46D00024DE
S1133F80A0E640EA900180585695979528F4805C05
S1133F90660F771F881F20F026173707480730F46D
S1133FA0621B730B840B202931294A2BA695179485
S1133FB00794202531254A2758F7660F771F881F55
S1133FC020F026173707480730F4620B730B840B75
S1133FD0200D311D411DA09581F7B901842F915801
S1133FE0880F9695879508959B01AC0152CF9F3F0A
S1133FF031F0915020F4879577956795B795880FA0
S1134000911D9695879597F9089591505040660FA4
S1134010771F881FD2F70895FC0124853585F9019F
S1134020E05CFF4F80819181329620813181805CF8
S11340309F4F821B930B8F739078992324F40197DD
S1134040806C9F6F01960895FC0184859585FC0121
S1134050E05CFF4F408151813296208131814217CB
S1134060530741F020813181FC01E20FF31F80816D
S113407090E008958FEF9FEF0895FC018485958566
S1134080FC01E05CFF4F40815181329620813181F7
S11340904217530781F020813181DC01A20FB31F45
S11340A08C91208131812F5F3F4F2F7333273183D0
S11340B0208390E008958FEF9FEF0895FC0181A184
S11340C0882329F0A489B5898C9186FFFBCF11A29E
S11340D008951F93CF93DF93EC018E859F85FC0198
S11340E0E05CFF4F0190F081E02D3196EF73FF27E4
S11340F01E2F7F2FDC01AE5BBF4F212F372F4D9139
S11341005C911197E417F507C1F3FC01E05CFF4FE4
S113411040815181FC01E40FF51F6083EE85FF852A
S1134120E05CFF4F31832083EE89FF89408121E0E9
S113413030E0C9010F8C02C0880F991F0A94E2F77E
S1134140842B808381E089A3EC89FD89808180644C
S1134150808381E090E0DF91CF911F9108951F92B9
S11341600F920FB60F9211240BB60F922F933F9319
S11341704F938F939F93AF93BF93EF93FF9380914C
S1134180C00082FD1AC04091C6008091EB1190914D
S1134190EC1101968F7399272091ED113091EE1156
S11341A08217930761F0EBEEF1E1A081B181A5558F
S11341B0BE4E4C939183808302C08091C600FF91D0
S11341C0EF91BF91AF919F918F914F913F912F911B
S11341D00F900BBE0F900FBE0F901F9018951F925B
S11341E00F920FB60F9211240BB60F922F933F9399
S11341F04F938F939F93AF93BF93EF93FF938091CC
S1134200C80082FD1AC04091CE0080916311909144
S1134210641101968F73992720916511309166116D
S11342208217930761F0E3E6F1E1A081B181AD5D0E
S1134230BE4E4C939183808302C08091CE00FF9147
S1134240EF91BF91AF919F918F914F913F912F919A
S11342500F900BBE0F900FBE0F901F9018951F92DA
S11342600F920FB60F9211240BB60F922F933F9318
S11342708F939F93AF93BF93EF93FF932091A711D5
S11342803091A8118091A9119091AA11281739078A
S113429031F4E1ECF0E080818F7D808310C0E9EAA5
S11342A0F1E1A081B181A959BE4E2C918081918107
S11342B001968F739927918380832093C600FF9181
S11342C0EF91BF91AF919F918F913F912F910F905B
S11342D00BBE0F900FBE0F901F9018951F920F9258
S11342E00FB60F9211240BB60F922F933F938F9317
S11342F09F93AF93BF93EF93FF9320911F1130913E
S1134300201180912111909122112817390731F43D
S1134310E9ECF0E080818F7D808310C0E1E2F1E17F
S1134320A081B181A152BF4E2C91808191810196CF
S11343308F739927918380832093CE00FF91EF910F
S1134340BF91AF919F918F913F912F910F900BBE91
S11343500F900FBE0F901F9018951F920F920FB6DB
S11343600F9211240BB60F922F933F938F939F9329
S1134370AF93BF93EF93FF932091971030919810D0
S11343808091991090919A102817390731F4E1ED32
S1134390F0E080818F7D808310C0E9E9F0E1A081A5
S11343A0B181A95ABF4E2C918081918101968F735E
S11343B09927918380832093D600FF91EF91BF9139
S11343C0AF919F918F913F912F910F900BBE0F90C2
S11343D00FBE0F901F9018951F920F920FB60F9259
S11343E011240BB60F922F933F938F939F93AF9308
S11343F0BF93EF93FF9320910F1030911010809191
S11344001110909112102817390731F4E1E3F1E00B
S113441080818F7D808310C0E1E1F0E1A081B181D2
S1134420A153B04F2C918081918101968F7399276C
S11344309183808320933601FF91EF91BF91AF91D7
S11344409F918F913F912F910F900BBE0F900FBEB4
S11344500F901F9018958F929F92AF92BF92CF9218
S1134460DF92EF92FF920F931F93CF93DF93CDB719
S1134470DEB7FC011382128288EE93E0A0E0B0E084
S113448084839583A683B78388EC92E091838083A9
S11344907587648757874687318B208B138B028BF4
S11344A0F58AE48AD78AC68AB18EA08E938E828ECC
S11344B08889848F8989858F8A89868F8B89878F5C
S11344C08C8980A3DF91CF911F910F91FF90EF9082
S11344D0DF90CF90BF90AF909F908F900895CF9230
S11344E0DF92EF92FF92CF93DF93EC016A017B019D
S11344F0411581EE58076105710501F1EC89FD89CB
S113450081E090E008A002C0880F991F0A94E2F7A6
S1134510808360E079E08DE390E0A701960104D404
S1134520BA01A9014150510961097109769567954C
S113453057954795411580E15807A0F0EC89FD890E
S1134540108260E874E88EE190E0A7019601ECD354
S1134550BA01A9014150510961097109769567951C
S113456057954795E889F9895083EA89FB894083FF
S113457019A2EE89FF89408181E090E09C010C8CB6
S113458002C0220F331F0A94E2F7242B2083EE8902
S1134590FF8940819C010D8C02C0220F331F0A94B5
S11345A0E2F7242B2083EE89FF8940819C010E8C45
S11345B002C0220F331F0A94E2F7242B2083EE89D2
S11345C0FF8920810F8C02C0880F991F0A94E2F79B
S11345D0809582238083DF91CF91FF90EF90DF90CD
S11345E0CF9008955F926F927F928F929F92AF9235
S11345F0BF92CF92DF92EF92FF920F931F93CF93CC
S1134600DF93552453945F920F2EF5E06F2EF02D17
S11346106F920F2EF7E07F2EF02D7F92D3E0DF9381
S1134620C4E0CF930F2EF6EC8F2E912CF02D0F2E8D
S1134630F2ECAF2EB12CF02D0F2EF1ECCF2ED12CAD
S1134640F02D0F2EF0ECEF2EF12CF02D04EC10E0F9
S113465025EC30E047E651E16BEA71E18DEA9FE039
S1134660FADE5F926F927F92DF93CF930F2EFEEC70
S11346708F2E912CF02D0F2EFAECAF2EB12CF02DA5
S11346800F2EF9ECCF2ED12CF02D0F2EF8ECEF2EAF
S1134690F12CF02D0CEC10E02DEC30E04FED50E15E
S11346A063E271E18BE89FE0D6DE5F926F927F92C6
S11346B0DF93CF930F2EF6ED8F2E912CF02D0F2E2E
S11346C0F2EDAF2EB12CF02D0F2EF1EDCF2ED12C1B
S11346D0F02D0F2EF0EDEF2EF12CF02D04ED10E067
S11346E025ED30E047E550E16BE970E189E69FE0B4
S11346F0B2DE5F926F927F92DF93CF930F2EF6E339
S11347008F2E99249394F02D0F2EF2E3AF2EBB2419
S1134710B394F02D0F2EF1E3CF2EDD24D394F02D9E
S11347200F2EF0E3EF2EFF24F394F02D04E311E0B9
S113473025E331E04FEC5FE063E170E187E49FE063
S11347408ADE8DB79EB744960FB6F8949EBF0FBE0F
S11347508DBFDF91CF911F910F91FF90EF90DF906C
S1134760CF90BF90AF909F908F907F906F905F900D
S11347700895CF92DF92EF92FF920F931F93CF93FE
S1134780DF936C0141155105B1F0062F172FEA0193
S1134790E12CF12CD8016D918D01D601ED91FC91A4
S11347A00190F081E02DC6011995E80EF91E2197BC
S11347B0209781F702C0E12CF12CC701DF91CF9142
S11347C01F910F91FF90EF90DF90CF9008956115A6
S11347D0710581F0FB0101900020E9F73197AF01E9
S11347E0461B570BDC01ED91FC910280F381E02D17
S11347F01995089580E090E00895DC01ED91FC9115
S11348000190F081E02D199508950F931F93CF9394
S1134810DF93EC016DE0F1DF8C016AE0CE01EDDFA6
S1134820800F911FDF91CF911F910F9108950F93E6
S11348301F93CF93DF93EC01CADF8C01CE01E5DF38
S1134840800F911FDF91CF911F910F9108956F9267
S11348507F928F929F92AF92BF92CF92DF92EF920C
S1134860FF920F931F93CF93DF93CDB7DEB7A1973A
S11348700FB6F894DEBF0FBECDBF6C01742E352F7A
S1134880862F972F622E19A221E0261520F00F2ED5
S1134890FAE06F2EF02D7E01A1E2EA0EF11C862CC7
S11348A0912CA12CB12C672D732FA50194013CD21E
S11348B0E22F732F022F132F242F352FF72D6E9EE7
S11348C0F0191124B1E0EB1AF108FA3010F4F05D9C
S11348D001C0F95CD701FC93012B022B032B29F0B7
S11348E07E2E372F842F952FDECFE114F10491F023
S11348F0F70101900020E9F73197AF014E195F09E4
S1134900D601ED91FC910280F381E02DB701C6013F
S1134910199502C080E090E0A1960FB6F894DEBF2E
S11349200FBECDBFDF91CF911F910F91FF90EF90FC
S1134930DF90CF90BF90AF909F908F907F906F90BB
S11349400895CF92DF92EF92FF920F931F93CF932C
S1134950DF93EC016A017B012115310541F4E88103
S1134960F9810190F081E02D642F199519C02A3046
S11349703105A9F4772384F46DE23FDF8C014427E9
S11349805527BA014C195D096E097F092AE0CE0149
S11349905EDF800F911F04C02AE059DF01C057DF9A
S11349A0DF91CF911F910F91FF90EF90DF90CF9007
S11349B008950F931F93CF93DF93EC019A01AB01FA
S11349C0662757FD6095762FBCDF8C01CE011DDF75
S11349D0800F911FDF91CF911F910F9108951F9226
S11349E00F920FB60F9211242F933F938F939F939F
S11349F0AF93BF938091F0119091F111A091F211B6
S1134A00B091F3113091EF1123E0230F2D3720F4EF
S1134A100196A11DB11D05C026E8230F0296A11D14
S1134A20B11D2093EF118093F0119093F111A09395
S1134A30F211B093F3118091F4119091F511A091BA
S1134A40F611B091F7110196A11DB11D8093F411D7
S1134A509093F511A093F611B093F711BF91AF9114
S1134A609F918F913F912F910F900FBE0F901F90A8
S1134A7018952FB7F8946091F0117091F11180910D
S1134A80F2119091F3112FBF08953FB7F8948091DC
S1134A90F4119091F511A091F611B091F71126B58A
S1134AA0A89B05C02F3F19F00196A11DB11D3FBF62
S1134AB0BA2FA92F982F8827820F911DA11DB11DF0
S1134AC0BC01CD01660F771F881F991F660F771FE2
S1134AD0881F991F0895CF92DF92EF92FF92CF9390
S1134AE0DF936B017C01D1DFEB01C114D104E1043C
S1134AF0F10491F0CADF6C1B7D0B683E734038F003
S1134B0081E0C81AD108E108F108C851DC4FC1148A
S1134B10D104E104F10471F7DF91CF91FF90EF909C
S1134B20DF90CF900895789484B5826084BD84B575
S1134B30816084BD85B5826085BD85B5816085BD94
S1134B40EEE6F0E0808181608083E1E8F0E01082AD
S1134B50808182608083808181608083E0E8F0E0EE
S1134B60808181608083E1EBF0E0808184608083D8
S1134B70E0EBF0E0808181608083E1E9F0E0808116
S1134B8082608083808181608083E0E9F0E08081BD
S1134B9081608083E1EAF0E08081826080838081AB
S1134BA081608083E0EAF0E0808181608083E1E2DB
S1134BB0F1E0808182608083808181608083E0E293
S1134BC0F1E0808181608083EAE7F0E080818460A5
S1134BD08083808182608083808181608083808102
S1134BE0806880831092C100089590E0FC013197A1
S1134BF0E131F10508F058C0E158FE4FB7C0E0E8D4
S1134C00F0E080818F7780830895E0E8F0E0808190
S1134C108F7D8083089584B58F7784BD089584B58E
S1134C208F7D84BD0895E0EBF0E080818F778083F1
S1134C300895E0EBF0E080818F7D80830895E0E9C2
S1134C40F0E080818F7780830895E0E9F0E080814F
S1134C508F7D80830895E0E9F0E08081877F808301
S1134C600895E0EAF0E080818F7780830895E0EA98
S1134C70F0E080818F7D80830895E0EAF0E0808118
S1134C80877F80830895E0E2F1E080818F778083DD
S1134C900895E0E2F1E080818F7D80830895E0E271
S1134CA0F1E08081877F808308951F93CF93DF9302
S1134CB0C62F282F30E0F901E05EFC4F8491F90102
S1134CC0EA59FC4F1491F901E455FC4FD491DD23CA
S1134CD0C1F081118ADF2D2F30E0F901EE0FFF1FA3
S1134CE0E45FFB4FA591B4918FB7F894C11105C04F
S1134CF0EC9110951E231C9303C0EC911E2B1C9366
S1134D008FBFDF91CF911F910895DB018F939F9304
S1134D1042D0BF91AF91A29F800D911DA39F900D92
S1134D20B29F900D11240895A1E21A2EAA1BBB1B59
S1134D30FD010DC0AA1FBB1FEE1FFF1FA217B30763
S1134D40E407F50720F0A21BB30BE40BF50B661F79
S1134D50771F881F991F1A9469F76095709580953D
S1134D6090959B01AC01BD01CF010895EE0FFF1F8B
S1134D700590F491E02D1994A29FB001B39FC00156
S1134D80A39F700D811D1124911DB29F700D811D73
S1134D901124911D0895F0DFA59F900DB49F900DEF
S1134DA0A49F800D911D112408950790F691E02D84
S1134DB019940F931F93CF93DF93CDB7DEB72E973C
S1134DC00FB6F894DEBF0FBECDBF8C0186E08C8396
S1134DD01A8309838FEF9FE79E838D83CE0101960B
S1134DE010D0EF81F885E00FF11F10822E960FB6D8
S1134DF0F894DEBF0FBECDBFDF91CF911F910F910D
S1134E0008952F923F924F925F926F927F928F926A
S1134E109F92AF92BF92CF92DF92EF92FF920F9345
S1134E201F93CF93DF93CDB7DEB72C970FB6F894CB
S1134E30DEBF0FBECDBF7C016B018A01FC0117826E
S1134E401682838181FFB0C1CE0101964C01F70126
S1134E509381F60193FD859193FF81916F018823DE
S1134E6009F49EC1853239F493FD859193FF8191B4
S1134E706F01853221F4B70190E0C7D1E8CF512CFE
S1134E80312C20E02032A0F48B3269F030F48032EF
S1134E9059F0833269F420612CC08D3239F08033AB
S1134EA039F4216026C02260246023C0286021C018
S1134EB027FD27C030ED380F3A3078F426FF06C0BE
S1134EC0FAE05F9E300D1124532E13C08AE0389E01
S1134ED0300D1124332E20620CC08E3221F426FDB5
S1134EE05FC1206406C08C3611F4206802C0883685
S1134EF041F4F60193FD859193FF81916F01811136
S1134F00C1CF982F9F7D9554933028F40C5F1F4F89
S1134F10FFE3F9830DC0833631F0833771F08335B5
S1134F2009F057C021C0F801808189830E5F1F4FAB
S1134F3044244394512C540114C03801F2E06F0E00
S1134F40711CF801A080B18026FF03C0652D70E0BC
S1134F5002C06FEF7FEFC5012C874CD12C01830178
S1134F602C852F77222E16C03801F2E06F0E711CAB
S1134F70F801A080B18026FF03C0652D70E002C057
S1134F806FEF7FEFC5012C872AD12C012C85206877
S1134F90222E830123FC19C0832D90E04816590664
S1134FA0A0F4B70180E290E030D13A94F5CFF50156
S1134FB027FC859127FE81915F01B70190E025D1FF
S1134FC031103A94F1E04F1A51084114510479F721
S1134FD0DEC0843611F0893631F5F80127FF07C0A9
S1134FE060817181828193810C5F1F4F08C0608151
S1134FF07181882777FD8095982F0E5F1F4F2F763C
S1135000B22E97FF09C090958095709561957F4F5A
S11350108F4F9F4F2068B22E2AE030E0A40127D1A1
S1135020A82EA81843C0853729F42F7EB22E2AE073
S113503030E025C0F22FF97FBF2E8F36C1F018F46F
S1135040883579F0ADC0803719F0883721F0A8C0D1
S11350502F2F2061B22EB4FE0DC08B2D8460B82E8C
S113506009C024FF0AC09F2F9660B92E06C028E00D
S113507030E005C020E130E002C020E132E0F80178
S1135080B7FE07C060817181828193810C5F1F4FDD
S113509006C06081718180E090E00E5F1F4FA40123
S11350A0E6D0A82EA818FB2DFF77BF2EB6FE0BC0A6
S11350B02B2D2E7FA51450F4B4FE0AC0B2FC08C0F8
S11350C02B2D2E7E05C07A2C2B2D03C07A2C01C0EB
S11350D0752C24FF0DC0FE01EA0DF11D8081803383
S11350E011F4297E09C022FF06C07394739404C08E
S11350F0822F867809F0739423FD12C020FF06C026
S11351005A2C731418F4530C5718732C731460F43A
S1135110B70180E290E02C8778D073942C85F6CF89
S1135120731410F4371801C0312C24FF11C0B701D7
S113513080E390E02C8769D02C8522FF16C021FFE4
S113514003C088E590E002C088E790E0B7010CC096
S1135150822F867851F021FD02C080E201C08BE2EB
S113516027FD8DE2B70190E050D0A51430F4B701CB
S113517080E390E04AD05A94F8CFAA94F401EA0D5F
S1135180F11D8081B70190E040D0A110F6CF33200B
S113519009F45DCEB70180E290E037D03A94F7CFBE
S11351A0F7018681978102C08FEF9FEF2C960FB68F
S11351B0F894DEBF0FBECDBFDF91CF911F910F9149
S11351C0FF90EF90DF90CF90BF90AF909F908F9023
S11351D07F906F905F904F903F902F900895FC01C7
S11351E00590615070400110D8F7809590958E0F0E
S11351F09F1F0895FC016150704001900110D8F781
S1135200809590958E0F9F1F08950F931F93CF93B2
S1135210DF93182F092FEB018B8181FD03C08FEFE2
S11352209FEF20C082FF10C04E815F812C813D81A1
S1135230421753077CF4E881F9819F012F5F3F4FA8
S113524039832883108306C0E885F985812F199551
S1135250892B29F72E813F812F5F3F4F3F832E8378
S1135260812F902FDF91CF911F910F910895FA0113
S1135270AA27283051F1203181F1E8946F936E7F91
S11352806E5F7F4F8F4F9F4FAF4FB1E03ED0B4E082
S11352903CD0670F781F891F9A1FA11D680F791FC3
S11352A08A1F911DA11D6A0F711D811D911DA11DD4
S11352B020D009F468943F912AE0269F11243019E4
S11352C0305D3193DEF6CF010895462F4770405D7F
S11352D04193B3E00FD0C9F7F6CF462F4F70405D2E
S11352E04A3318F0495D31FD4052419302D0A9F789
S11352F0EACFB4E0A6959795879577956795BA9583
S1135300C9F700976105710508959B01AC010A2E48
S113531006945795479537952795BA95C9F7620F1F
S1115320731F841F951FA01D0895F894FFCFDE
S113532E000000000000803F0000004000004040EC
S113533E000080400000A0400000C0400000E0409B
S113534E000000410000803F00000000000000004B
S113535E000000000000803F00000000000000007C
S113536E000000000000803F0AD7A33C01000100AA
S113537E0100FFFFFFFFFFFF010001000100FFFF1F
S113538E018001800180FF7FFF7FFF7F616C706869
S113539E6120006265746120007000414E473A201E
S11353AE25642C2025642C25642C25640A00256490
S11353BE3A2025640049523A2025640A004F666655
S11353CE7365743A00656E005461736B093200495B
S11353DE444C450000000000391C0A1CDF1BE71B6F
S11353EEFA1B091C000000006920B9230C203D2083
S10753FE24205E20E5
S9030000FC
