S012000043473330303252544F532E737265637B
S113000074C20000A3C20000A1C200009FC200008D
S11300109DC200009BC2000099C2000097C200006C
S113002095C2000093C2000091C200008FC200007C
S11300308DC200000C94101989C2000087C2000010
S113004085C2000083C2000081C200007FC200009C
S11300507DC200000C94701779C200000C941A2918
S113006075C200000C94D2240C9452256FC2000077
S11300706DC200006BC2000069C2000067C20000CC
S113008065C2000063C2000061C200005FC20000DC
S11300900C9412250C94912559C200000C948A1DCD
S11300A055C2000053C2000051C200004FC20000FC
S11300B04DC200004BC2000049C2000047C200000C
S11300C045C2000043C2000041C200003FC200001C
S11300D00C94D0253BC2000039C200000C940F26BA
S11300E035C20000901E931E931E931E931E931EF2
S11300F0931E931EAA1D931E931E931E931E931E5E
S1130100931E931EAA1D931E931E931E931E931E4D
S1130110931E931EB21D931E931E931E931E931E35
S1130120931E931ED71D931E931E931E931E931E00
S1130130931E931EB21D931E931E931E931E931E15
S1130140931E931EDC1D931E931E931E931E931EDB
S1130150931E931EE11D931E931E931E931E931EC6
S1130160931E931EF21D931E931E931E931E931EA5
S1130170931E931E1B1E931E931E931E931E931E6B
S1130180931E931EE61D931E931E931E931E931E91
S1130190931E931E001E931E931E931E931E931E66
S11301A0931E931E1D1E931E931E931E931E931E39
S11301B0931E931E1D1E931E931E931E931E931E29
S11301C0931E931E1D1E931E931E931E931E931E19
S11301D0931E931E1D1E931E931E931E931E931E09
S11301E0931E931E261E931E931E931E931E931EF0
S11301F0931E931E571E931E931E931E931E931EAF
S1130200931E931E261E931E931E931E931E931ECF
S1130210931E931E571E931E931E931E931E931E8E
S1130220931E931E3E1E931E931E931E931E931E97
S1130230931E931E5B1E931E931E931E931E931E6A
S1130240931E931E5B1E931E931E931E931E931E5A
S1130250931E931E701E931E931E931E931E931E35
S1130260931E931E8A1E931E931E931E931E931E0B
S1130270931E931E8A1E036EDB363D9A9999993D0F
S1130280ABAAAA2A3E000000803F084AD73B3BCED7
S1130290016E84BCBFFDC12F3D6C74319ABD568381
S11302A03DDA3D00C77F11BED9E4BB4C3E916BAA39
S11302B0AABE000000803F072C7AA5BA6CC590DA6C
S11302C03B9365FC8BBC53F810FD3C5692834DBDAB
S11302D0879D3AB63DCBC9BF5BBE73DA0FC93F05F4
S11302E0A84CCDB2D44EB93836A9020C50B9918677
S11302F088083CA6AAAA2ABE000000803F076342E1
S113030036B79BD8A71A39685618AEBAAB558C1DA8
S11303103CB7CC5763BD6DEDFD753EF6177231BF2A
S1130320000000803F08000000BE922449123EAB4A
S1130330AAAA2ABECDCCCC4C3E00000080BEABAAFB
S1130340AAAA3E00000000BF000000803F00000099
S11303500000084178D3BB4387D1133D190E3CC339
S1130360BD4282AD2B3E68EC8276BED98FE1A93EB8
S11303704C80EFFFBE01C4FF7F3F0000000000007F
S1130380732A782A7D2A872AFE2A912A992AA12A61
S1130390AB2AB52ABF2ACC2AD62AFE2AE02AEA2A80
S11303A0F42A222B262B162B1C2B6B2B2A2B302BBF
S11303B0362B3C2B422B482B4E2B542B6B2B5A2B7E
S11303C0602B662B0000090A02080B0C0D070603BC
S11303D00401000000000000000000000000000014
S11303E00000000000000000000000000000000009
S11303F011100F00000000000000000000000000C9
S1130400000000000000000000000102102020088D
S1130410081020401020408002010201080402015B
S113042001020408102040808040201008040201CA
S11304308004020180402010080402010804020123
S113044001020408102040800102040810204080AA
S113045005050505070508080808020202020A0A3C
S1130460080804040404010101010101010103035A
S1130470030303030303040707070C0C0C0C0C0C05
S11304800C0C0202020206060606060606060B0B02
S11304900B0B0B0B0B0B0000200023002600290084
S11304A02C002F00320000010000030106010901A5
S11304B000002200250028002B002E00310034000B
S11304C002010000050108010B01000021002400C5
S11304D027002A002D003000330001010000040130
S11304E007010A016E0B781F152711241FBECFEFD9
S11304F0D1E2DEBFCDBF00E00CBF12E0A0E0B2E06D
S1130500E8EDFDE500E00BBF02C007900D92AE3DA3
S1130510B107D9F722E1AEEDB2E001C01D92A931D5
S1130520B207E1F714E0CAEED4E000E006C0229777
S11305300109FE010BBF0E942A2CC43ED10780E0B2
S11305400807A9F70E94D40D0C94EA2E59CD2F92D6
S11305503F924F925F926F927F928F929F92AF924F
S1130560BF92CF92DF92EF92FF920F931F93CF939C
S1130570DF93CDB7DEB762970FB6F894DEBF0FBE38
S1130580CDBF988B8F875A8B498B812C912C2E0150
S11305908DE0480E511C7E876D8746C0F501619140
S11305A07191819191915F01F701208131814281A3
S11305B053810E944122F801619371938193919335
S11305C08F01FCE0EF0EF11C0415150539F72D81A0
S11305D03E814F81588569817A818B819C810E94FB
S11305E07D1F29853A854B855C850E947D1FF3011B
S11305F061937193819391933F01F4E0CF0ED11CE9
S11306008CE0C816D10449F08E010F5F1F4FED84B2
S1130610FE84EC0CFD1C5101C1CFECE08E0E911C4C
S1130620F4E28F16910459F069887A88680C791C71
S1130630C12CD12C2F843888280C391CE5CF629624
S11306400FB6F894DEBF0FBECDBFDF91CF911F91DF
S11306500F91FF90EF90DF90CF90BF90AF909F905D
S11306608F907F906F905F904F903F902F90089560
S1130670AF92BF92CF92DF92EF92FF920F931F93AC
S1130680CF93DF935C01062F172FC3E0D0E0C12C7A
S1130690D12C7601F50161917191819191915F0164
S11306A0F80121913191419151918F010E94412290
S11306B09B01AC01C701B6010E947D1F6B017C0147
S11306C02197209739F7DF91CF911F910F91FF90D8
S11306D0EF90DF90CF90BF90AF900895AF92BF920C
S11306E0CF92DF92EF92FF920F931F93CF93DF93FA
S11306F05C01EB018A01FA0120853185428553852D
S11307006C817D818E819F810E9441226B017C01DD
S1130710F8012481358146815781688579858A85E8
S11307209B850E9441229B01AC01C701B6010E9436
S11307307C1FF5016083718382839383F801208198
S1130740318142815381688579858A859B850E94A0
S113075041226B017C01F801208531854285538556
S1130760688179818A819B810E9441229B01AC012D
S1130770C701B6010E947C1FF501648375838683DB
S11307809783F80124813581468157816881798175
S11307908A819B810E9441226B017C01F8012081A6
S11307A03181428153816C817D818E819F810E9440
S11307B041229B01AC01C701B6010E947C1FF501D7
S11307C06087718782879387DF91CF911F910F9103
S11307D0FF90EF90DF90CF90BF90AF9008958F92ED
S11307E09F92AF92BF92EF92FF920F931F93CF937A
S11307F0DF9349015A01062F172F7C01C0E0D0E096
S1130800F80161917191819191918F01A5019401F8
S11308100E944122F70161937193819391937F0127
S11308202196C330D10561F7DF91CF911F910F91CC
S1130830FF90EF90BF90AF909F908F900895CF92CC
S1130840DF92EF92FF920F931F93CF93DF93E62EE5
S1130850F72E042F152F6C01C0E0D0E0F701619151
S11308607191819191917F01F8012191319141918F
S113087051918F010E947D1FF601619371938193C1
S113088091936F012196C330D10541F7DF91CF9148
S11308901F910F91FF90EF90DF90CF90089586E124
S11308A09FE00C94401F089542E063E080E297E0EB
S11308B00E943C0F80E297E00E94830E40E263E2D4
S11308C080E297E00E94630E4FE060E280E297E0EE
S11308D00C94630E089580E297E00E94980E409174
S11308E02007509121075093ED074093EC07209186
S11308F02207309123073093EF072093EE0780916E
S11309002407909125079093F1078093F007609155
S1130910E0077091E107461B570BE0914C02F09100
S11309204D02E49FB001E59F700DF49F700D1124FA
S11309307093DF076093DE074091E2075091E3076D
S1130940241B350B60914E0270914F02629FA001EF
S1130950639F500D729F500D11245093DD074093F7
S1130960DC072091E4073091E507821B930B40914B
S1130970500250915102489F9001499F300D589F59
S1130980300D11243093DB072093DA07089542E0F9
S113099064E08AEF96E00E949A158AEF96E00E943E
S11309A0FD1380911307823049F0833071F448E1DC
S11309B061E28AEF96E00C94F313089548E263E24F
S11309C08AEF96E00C94F313089540E363E28AEF10
S11309D096E00C94F31308958AEF96E00E943A147B
S11309E04091FA065091FB065595479555954795C4
S11309F055954795559547955093F3074093F207BE
S1130A002091FC063091FD0635952795359527955F
S1130A1035952795359527953093F5072093F40759
S1130A208091FE069091FF069595879595958795FB
S1130A3095958795959587959093F7078093F607F5
S1130A406091E6077091E707461B570BE09152024D
S1130A50F0915302E49FB001E59F700DF49F700D77
S1130A6011247093D9076093D8074091E8075091F7
S1130A70E907241B350B6091540270915502629F63
S1130A80A001639F500D729F500D11245093D707FE
S1130A904093D6072091EA073091EB07821B930B12
S1130AA04091560250915702489F9001499F300D42
S1130AB0589F300D11243093D5072093D4070895FF
S1130AC08AEF96E00E94B314409158025091590263
S1130AD02091000730910107429FC001439F900D70
S1130AE0529F900D11249093D3078093D207409185
S1130AF05A0250915B022091020730910307429FF2
S1130B00C001439F900D529F900D11249093D107E3
S1130B108093D00740915C0250915D0220910407BC
S1130B2030910507429FC001439F900D529F900D45
S1130B3011249093CF078093CE070895CF92DF922C
S1130B40EF92FF92CF93DF93CDB7DEB7A4970FB6A2
S1130B50F894DEBF0FBECDBF60E372E084E292E0A2
S1130B6087DD905820E030E040E05FE30E944122BE
S1130B706B017C019B01AC0160E372E0CE01019644
S1130B802EDEA701960164E272E0CE010D9627DE07
S1130B9044E252E0BE016F5F7F4FCB0150DE40E381
S1130BA052E0BE01635F7F4FCB0149DEAE01435F7C
S1130BB05F4FBE016F5F7F4FCE0149968FDDBE014F
S1130BC06F5F7F4FCB0154DD9B01AC0160E070E0AF
S1130BD080E490E40E947C1F20E030E040E05FE38A
S1130BE00E9441229B01AC01BE016F5F7F4F84E2F2
S1130BF092E0F5DDBE01635F7F4FCB0139DD9B01E0
S1130C00AC0160E070E080E490E40E947C1F20E08E
S1130C1030E040E05FE30E9441229B01AC01BE0151
S1130C20635F7F4F80E392E0DADDBE01675E7F4F52
S1130C30CB011EDD9B01AC0160E070E080E490E438
S1130C400E947C1F20E030E040E05FE30E944122EC
S1130C509B01AC01BE01675E7F4F8CE392E0BFDD78
S1130C60A4960FB6F894DEBF0FBECDBFDF91CF912F
S1130C70FF90EF90DF90CF9008954F925F926F9224
S1130C807F928F929F92AF92BF92CF92DF92EF9218
S1130C90FF926091B2077091B3078091B40790916D
S1130CA0B5078090B6079090B707A090B807B090AA
S1130CB0B907C090BA07D090BB07E090BC07F0908A
S1130CC0BD079B01AC010E9441222B013C01A501FF
S1130CD09401C501B4010E9441229B01AC01C301EE
S1130CE0B2010E947D1F4B015C01A7019601C7015F
S1130CF0B6010E9441229B01AC01C501B4010E94CE
S1130D007D1F0E94FA2220E030E040E85BE30E946D
S1130D1041229B01AC0160E070E080E89FE30E9407
S1130D207C1F6B017C0120E030E0A9010E94362287
S1130D301816B4F4A7019601C701B6010E947D1FDD
S1130D409B01AC0160E070E080E89FE30E947C1F9F
S1130D5020E030E0A9010E945A20882304F55AC0FB
S1130D60A7019601C701B6010E947D1F20E030E073
S1130D7040E85FE30E947D1F4B015C0120E030E00E
S1130D80A9010E945A2088230CF448C020E030E0D6
S1130D90A901C701B6010E9436221816BCF4A701A6
S1130DA09601C701B6010E947D1F9B01AC0160E062
S1130DB070E080E89FE30E947C1F20E030E040E880
S1130DC05FE30E94362218166CF113C020E030E075
S1130DD040E85FE3C501B4010E94362218165CF1B5
S1130DE020E030E0A901C701B6010E94362218169E
S1130DF054F5A7019601C701B6010E947D1F9B010E
S1130E00AC0160E070E080E89FE30E947C1F4B012E
S1130E105C0119C0812C912C540115C0812C912C9A
S1130E20540111C00F2E812C912CF0E8AF2EFFE35A
S1130E30BF2EF02D08C00F2E812C912CF0E8AF2E80
S1130E40FFE3BF2EF02D4CE352E062EB77E08EE53A
S1130E5097E044DC2AE037ED43EA5CE3C501B401E2
S1130E600E9441229B01AC016EE577E08EE897E099
S1130E70B6DC2CEA35EC47EA57E3C501B4010E941D
S1130E8041229B01AC016EE577E08AEE92E0A7DC9B
S1130E904AEE52E062E877E0CB01D1DCC090BE07B5
S1130EA0D090BF07E090C007F090C107C701B6011A
S1130EB00E945E204B015C01C701B6010E94F02232
S1130EC0209124023091250240912602509127025C
S1130ED00E9441226B017C01209130023091310249
S1130EE04091320250913302C501B4010E94412263
S1130EF09B01AC01C701B6010E947C1F9B01AC01A0
S1130F006CE372E082E597E06ADC2AE939E949E9B1
S1130F105FE362E577E08EED92E061DC4EED52E056
S1130F206EE877E0CB018BDC2CEA35EC47EA57E33B
S1130F3062E577E08AEE92E052DC4AEE52E062E843
S1130F4077E0CB017CDCFF90EF90DF90CF90BF90F7
S1130F50AF909F908F907F906F905F904F90089587
S1130F604F925F926F927F928F929F92AF92BF92B5
S1130F70CF92DF92EF92FF920F931F93CF93DF9361
S1130F8000D01F92CDB7DEB76091DE077091DF0706
S1130F90882777FD8095982F0E94FC2029E732E26C
S1130FA040EA5AE30E9441226093A6077093A70780
S1130FB08093A8079093A9076091DC077091DD07DF
S1130FC0882777FD8095982F0E94FC2029E732E23C
S1130FD040EA5AE30E9441226093AA077093AB0748
S1130FE08093AC079093AD076091DA077091DB07AB
S1130FF0882777FD8095982F0E94FC2029E732E20C
S113100040EA5AE30E9441226093AE077093AF070F
S11310108093B0079093B1076091D8077091D90776
S1131020882777FD8095982F0E94FC206093B20753
S11310307093B3078093B4079093B5076091D60774
S11310407091D707882777FD8095982F0E94FC2000
S11310506093B6077093B7078093B8079093B90766
S11310606091D4077091D507882777FD8095982FD4
S11310700E94FC206093BA077093BB078093BC075F
S11310809093BD0742E857E066EA77E086E797E089
S1131090D6DB4EE857E066E777E08AE997E0CFDBF6
S11310A010920002109201021092020210920302A6
S11310B0C0904802D0904902E0904A02F0904B025E
S11310C046015701B7FAB094B7F8B0944090A2071C
S11310D05090A3076090A4077090A507A301920104
S11310E0C501B4010E944122609304027093050279
S11310F0809306029093070280919E0790919F0728
S1131100A091A007B091A10789839A83AB83BC8384
S11311109C01AD01C701B6010E94412260930802FF
S11311207093090280930A0290930B02A301920127
S1131130C701B6010E94412260930C0270930D0214
S113114080930E0290930F021092100210921102DB
S1131150109212021092130240909A0750909B072B
S113116060909C0770909D07A3019201C501B40192
S11311700E94412260931402709315028093160218
S11311809093170229813A814B815C81C501B40196
S11311900E944122609318027093190280931A02EC
S11311A090931B02A3019201C701B6010E94412240
S11311B060931C0270931D0280931E0290931F0281
S11311C01092200210922102109222021092230205
S11311D04CE257E060E072E084E292E0B8D9C12CBE
S11311E0D12CA12CB12C21C0D8012D913D914D9130
S11311F05D918D01F40160817181828193810E94EE
S11312007D1FD4016D937D938D939D934D01BFEF0D
S1131210EB1AFB0AE3E0EE16F10431F7FCE0CF0E23
S1131220D11C84E2C816D10451F0D601AC5DBD4F87
S11312304D018601045D184FEA2CFB2CD5CF0F908D
S11312400F900F900F90DF91CF911F910F91FF900E
S1131250EF90DF90CF90BF90AF909F908F907F9052
S11312606F905F904F90089560913C0270913D02A1
S113127080913E0290913F020E94E11FDC01CB016C
S1131280B05880936E0790936F07A0937007B09344
S113129071072091440230914502409146025091D9
S11312A04702609140027091410280914202909104
S11312B043020E9407206093720770937307809320
S11312C07407909375072091240230912502409170
S11312D02602509127026091300270913102809170
S11312E03202909133020E94072060936A07709340
S11312F06B0780936C0790936D0708954F925F92EC
S11313006F927F928F929F92AF92BF92CF92DF9211
S1131310EF92FF920F931F93CF93DF93CDB7DEB776
S113132060970FB6F894DEBF0FBECDBFC0907207B2
S1131330D0907307E0907407F0907507C701B60169
S11313400E945E2069837A838B839C83C701B601E4
S11313500E94F0226D837E838F839887C0906E07EE
S1131360D0906F07E0907007F0907107C701B60145
S11313700E945E206D877E878F87988BC701B60198
S11313800E94F02269877A878B879C87A0905802F5
S1131390B090590280E099E0A89EB001A99E700D1A
S11313A0B89E700D11248091D2079091D307680FD5
S11313B0791F882777FD8095982F0E94FC2020E0D4
S11313C038E94EE955E40E9461206B017C01B501C6
S11313D0882777FD8095982F0E94FC2020E030E03C
S11313E040E05FE30E9441229B01AC01C701B601CA
S11313F00E947C1F2B013C016093CA077093CB07AA
S11314008093CC079093CD07A0905A02B0905B02D2
S113141082E998E0A89EB001A99E700DB89E700D57
S113142011248091D0079091D107680F791F8827E4
S113143077FD8095982F0E94FC2020E030EF4DE945
S113144055E40E9461206B017C01B501882777FD7A
S11314508095982F0E94FC2020E030E040E05FE37C
S11314600E9441229B01AC01C701B6010E947C1F6E
S11314704B015C016093C6077093C7078093C8074C
S11314809093C90700915C0210915D028CE698E08C
S1131490089FB001099F700D189F700D1124809151
S11314A0CE079091CF07680F791F882777FD809525
S11314B0982F0E94FC2020E038E649E955E40E9478
S11314C061206B017C01B801882777FD8095982FF6
S11314D00E94FC2020E030E040E05FE30E944122D3
S11314E09B01AC01C701B6010E947C1F6B017C010A
S11314F06093C2077093C3078093C4079093C50792
S1131500A30192016D857E858F8598890E94412271
S11315102B013C01A50194016D817E818F81988509
S11315200E94412229853A854B855C850E9441228F
S11315309B01AC01C301B2010E947D1F2B013C0140
S1131540A701960169817A818B819C810E94412245
S113155029853A854B855C850E9441229B01AC011B
S1131560C301B2010E947D1F2B013C01A50194011E
S113157069817A818B819C810E9441224B015C01AB
S1131580A70196016D817E818F8198850E944122F9
S11315909B01AC01C501B4010E947C1F9058A301BA
S11315A092010E9407206093BE077093BF07809347
S11315B0C0079093C10760960FB6F894DEBF0FBEC4
S11315C0CDBFDF91CF911F910F91FF90EF90DF90EE
S11315D0CF90BF90AF909F908F907F906F905F90CF
S11315E04F900895CF93DF93C82F8EE190E00E942F
S11315F0DE1BD0E0CC0FDD1FCE01880F991F880FB2
S1131600991F880F991F8C0F9D1F885F974F0E9409
S11316103E17AC019093070880930608CD59D74F25
S11316209C01A1E7BFE10E94112C481B590B569560
S11316304795840F951F96958795929582958F70FF
S113164089279F70892799838883DF91CF91089593
S113165086E30E942B2ABC01882777FD8095982F6A
S11316600E94FC2020E030E040EA5BE30E9441223B
S1131670609302087093030880930408909305080C
S113168028E431EE4AE95FEB0E94A42221E73DE31E
S113169048E552E40E9441220E94CE207093010842
S11316A0609300080895009731F46FEF70E085E0CF
S11316B00C944F2A0895019731F46FEF70E086E09F
S11316C00C944F2A089560E070E085E00E944F2A50
S11316D060E070E086E00C944F2A08952AEF30E031
S11316E047E166E188E098E00E9476162AEF30E050
S11316F049E168E18AE198E00E9476162AEF30E039
S11317004BE16AE18CE298E00E9476162AEF30E021
S11317104DE16CE18EE398E00E9476162AEF30E00A
S11317204FE16EE180E598E00E94761680E297E052
S1131730C3D28AEF96E0C2C40895BC018EEC9FE048
S11317400E943A288EEC9FE00C9481240895CF9354
S1131750DF93CDB7DEB7FE01369661917191AF018B
S11317608AEF92E00E942E2C8AEF92E0E6DFDF916E
S1131770CF91089583E892E09F938F93E8DF21EE61
S11317803EE245E652E460916E0770916F078091E6
S11317907007909171070E9441220E94C9207F9393
S11317A06F9385E892E09F938F93D1DF0F900F9012
S11317B00F900F900F900F90089580ED97E00E9486
S11317C0DE1B809150079091510701969093510729
S11317D0809350078091FC079091FD07A091FE072C
S11317E0B091FF078093F8079093F907A093FA0745
S11317F0B093FB070E9464296093FC077093FD0774
S11318008093FE079093FF070091F8071091F90762
S11318102091FA073091FB070617170728073907A5
S1131820ACF4601B710B820B930B0E94FC2020E034
S113183030E04AE754E40E946120609348027093C8
S1131840490280934A0290934B0208C010924802C6
S11318501092490210924A0210924B023CD8BCD812
S11318608091500790915107069730F010925107DC
S11318701092500725D942DD73DB60D9FED9F4DC20
S113188079DF9BCF0F2EF3E6AF2EF8E0BF2EF02DBD
S1131890812C912C0F2EF9E8EF2EF2E0FF2EF02D83
S11318A00F2EF0E9CF2EF2E0DF2EF02D80E09ADE4D
S11318B081E098DE82E096DE83E094DE84E092DECE
S11318C0C7DE8501C82DD92DF801808191810E5F75
S11318D01F4F9F938F93DF93CF93FF92EF9237DF46
S11318E021960F900F900F900F900F900F90C5308E
S11318F0D10551F7809101088F93809100088F934F
S1131900DF92CF9224DF2091000830910108A901D1
S1131910445151090F900F900F900F904F31510582
S113192020F4882D992DBFDE12C0A901425351091C
S11319304333510520F481E090E0B5DE08C024561D
S113194031092333310518F482E090E0ACDE88EEEF
S113195093E00E94DE1BAACFCF938CEA9FE00E9403
S11319602F2418161906B4F58CEA9FE00E9460240F
S113197082309105F9F4C0E0E091AC0FF091AD0F25
S11319800190F081E02D6C2F8CEA9FE01995CF5FD8
S1131990C83091F7E091AC0FF091AD0F0190F08158
S11319A0E02D6FEF8CEA9FE019958CEA9FE00E948E
S11319B0812410C08330910531F46FEF70E085E02D
S11319C00E944F2A07C0049729F460E070E085E084
S11319D00E944F2A84E690E00E94DE1BCF91089576
S11319E08CEA9FE00E942F2418161906CCF78CEA83
S11319F09FE00E946024019751F44AE050E062E0C5
S1131A0070E08CEA9FE00E94FC2881E0089580E069
S1131A1008958F929F92AF92BF92CF92DF92EF92EE
S1131A20FF920F931F93CF93DF9340E052EC61E05A
S1131A3070E08EEC9FE00E94922640E052EC61E060
S1131A4070E08CEA9FE00E949226809162088111E6
S1131A5005C0C6DF809362088823D9F30E944F042F
S1131A600E94C7040E94540464E170E080E090E0A6
S1131A700E94962900E210E00F2EFCEEEF2EF7E014
S1131A80FF2EF02DC0EED7E00F2EF8EFAF2EF7E0CB
S1131A90BF2EF02D0E946B040E94EC04D7018C2E03
S1131AA09D2EFE018D919D9120813181820F931F86
S1131AB081939193AA15BB05A9F764E170E080E0D6
S1131AC090E00E949629015011090115110511F7A2
S1131AD00CEE17E0E82DF92DDF0180819181992327
S1131AE00CF44F969595879595958795959587953B
S1131AF095958795959587958D939C933296E01748
S1131B00F10751F7EAEEF7E080915602D82EC12C86
S1131B10808191818C199D099183808368E972E0A9
S1131B208EEC9FE00E943A28C82DD92D69917991B5
S1131B304AE050E08EEC9FE00E9404290C171D0738
S1131B40A9F70E9464296093FC077093FD078093B2
S1131B50FE079093FF0764E170E080E090E00E944C
S1131B60962910925107109250078AEF96E0C7D534
S1131B706093F6027093F7028093F8029093F9024F
S1131B8080EA92E09F938F93E2DD0F900F90DF91B4
S1131B90CF911F910F91FF90EF90DF90CF90BF9066
S1131BA0AF909F908F900895AF92BF92CF92DF92A3
S1131BB0EF92FF920F93CF93DF9300D000D0CDB775
S1131BC0DEB70E94C92925DFA12CB12CC12CD12C50
S1131BD0CE0105967C0106E020E030E040E850E0CC
S1131BE063EA72E082E49CE00E946819CE010396E5
S1131BF07C0105E020E030E040E850E06AEA72E071
S1131C008DED9BE00E946819CE0101967C0104E0F1
S1131C1020E030E040E850E061EB72E08CEA9CE0C8
S1131C200E9468190E94701A80E090E026960FB610
S1131C30F894DEBF0FBECDBFDF91CF910F91FF901F
S1131C40EF90DF90CF90BF90AF900895CF93DF9344
S1131C50EC010E94991A80916D0890916E08892B6D
S1131C6031F482E798E090936E0880936D08409178
S1131C706F08509170089E01240F351F2B3D85E09D
S1131C80380770F44217530770F4C0916D08D0916F
S1131C906E08C40FD51F3093700820936F0805C0D9
S1131CA0C0E0D0E002C0C0E0D0E00E945D1BCE01E5
S1131CB0DF91CF9108950895FC0183E08783128614
S1131CC01186138608950F931F93CF93DF93EC012E
S1131CD0062F142F688586E19FE00E94591F602F0C
S1131CE086E19FE00E94001F612F86E19FE00E9431
S1131CF0001F86E19FE00E94751F8E83DF91CF91C4
S1131D001F910F910895CF93DF93EC018F8182305F
S1131D1021F440E069E3CE01D6DF40E063E2CE0186
S1131D20D2DF4FE660E2CE01CEDFDF91CF9108959E
S1131D309F92AF92BF92CF92DF92EF92FF920F9356
S1131D401F93CF93DF93EC01688586E19FE00E94A7
S1131D50591FE091160FF091170F0190F081E02DBB
S1131D6068EA86E19FE0199586E19FE00E94751F6D
S1131D7046E0688586E19FE00E94561F0E94642920
S1131D808B0110C089859A85892B61F00E94642992
S1131D90601B710B89859A858617970718F481E073
S1131DA08B8732C086E19FE00E94A61E069754F3FB
S1131DB086E19FE00E94AE1EA82E86E19FE00E946D
S1131DC0AE1E982E86E19FE00E94AE1E082F86E18B
S1131DD09FE00E94AE1EB82E86E19FE00E94AE1ED8
S1131DE0182F86E19FE00E94AE1ED92CC12CCA2870
S1131DF0D982C882FB2CE12CE02AFB82EA82982F4C
S1131E008827812B9D838C83DF91CF911F910F9124
S1131E10FF90EF90DF90CF90BF90AF909F90089588
S1131E20CF93DF93C62FD42F86E19FE00E94591FE2
S1131E306D2F86E19FE00E94001F86E19FE00E94D3
S1131E40751F811111C041E06C2F86E19FE00E9453
S1131E50561F86E19FE00E94A61E892B41F086E171
S1131E609FE00E94AE1E05C08FEF9FEF02C08FEF70
S1131E709FEFDF91CF9108950F931F93CF93DF933B
S1131E80EC01162F042F633009F456C04230C9F513
S1131E9056C0133009F058C0873D910509F458C065
S1131EA001E011E02CC0013091F04FE06AE6CE0170
S1131EB0B7DF8F3F2FEF920751F0133009F046C080
S1131EC0873D910509F047C000E012E018C01330C7
S1131ED011F0111114C0002349F04FE069E6CE015E
S1131EE09FDF833D9105D1F1013039F04FE068E681
S1131EF0CE0196DF833D910599F11330B9F002309C
S1131F00B9F01F83112351F01330A0F4013011F400
S1131F108BE601C08AE6888781E041C0013011F474
S1131F2089E601C088E6888781E039C080E037C04F
S1131F3080E035C081E033C0442341F11EC08FEFFF
S1131F40860F833030F60FC001E0C3CF00E0C1CF6D
S1131F5001E012E0D4CF00E011E0D1CF01E001C0F4
S1131F6000E01F82DBCF4FE06BE6CE0159DF8F3FED
S1131F702FEF920709F08DCF98CF4FE06BE650DF3B
S1131F808F3F2FEF920709F087CF8DCF4FE06AE69E
S1131F9047DF8F3F2FEF920709F092CF98CFDF9161
S1131FA0CF911F910F910895FC0103969283818331
S1131FB02FEF3FEF34832383968385839087878332
S1131FC010820895FC01118610860895CF93DF9343
S1131FD09C01FB01DC011196CD91DC911297D38316
S1131FE0C2838C819D81958384838C819D81DC0156
S1131FF013967C936E9312977D836C83318720872D
S1132000F90180818F5F8083DF91CF910895CF9311
S1132010DF93EB01488159814F3F2FEF520721F4A1
S1132020FC01A781B0850DC0DC0113961296ED91D9
S1132030FC911397208131814217530710F0DF017F
S1132040F5CF1296ED91FC911397FB83EA83D58328
S1132050C483BD83AC831396DC93CE931297998784
S11320608887FC0120812F5F2083DF91CF91089521
S1132070CF93DF93FC01A085B185C281D381848194
S113208095819D838C83C481D581828193819B8337
S11320908A831196CD91DC911297CE17DF0731F424
S11320A08C819D8112969C938E9311971186108634
S11320B08C9181508C93DF91CF910895CF93DF93CE
S11320C0EC0186E0E1E6F2E0DE01529601900D9229
S11320D08A95E1F786E0E7E6F2E0DE011C960190DE
S11320E00D928A95E1F784E0898F1CA21BA21DA2A0
S11320F0DF91CF9108954F925F926F927F928F926A
S11321009F92AF92BF92CF92DF92EF92FF920F9382
S11321101F93CF93DF9300D01F92CDB7DEB78C010E
S1132120DC014D905D906D907C90139714968D908A
S11321309D90AD90BC90179718968D919D910D90A0
S1132140BC91A02D89839A83AB83BC83A3019201A4
S1132150C301B2010E9441226B017C01A5019401DB
S1132160C501B4010E9441229B01AC01C701B60123
S11321700E947D1F6B017C0129813A814B815C8126
S1132180CA01B9010E9441229B01AC01C701B601F9
S11321900E947D1F0E94FA226B017C019B01AC010D
S11321A0C301B2010E946120F801608371838283BC
S11321B09383A7019601C501B4010E946120D8014F
S11321C014966D937D938D939C931797A701960115
S11321D069817A818B819C810E946120F8016087EA
S11321E07187828793870F900F900F900F90DF91E4
S11321F0CF911F910F91FF90EF90DF90CF90BF9000
S1132200AF909F908F907F906F905F904F900895C4
S11322104F925F926F927F928F929F92AF92BF92F2
S1132220CF92DF92EF92FF920F931F93CF93DF939E
S1132230CDB7DEB7AA970FB6F894DEBF0FBECDBFF9
S11322408C01298F3A8F4B8F5C8F6D8F7E8FDC01D1
S11322501696CD90DC901797EE24D7FCE094FE2CD4
S113226052964D915C915397662757FD6095762F52
S11322701C968D919C911D97AA2797FDA095BA2F26
S1132280480F591F6A1F7B1FDB01CA0177231CF407
S11322900196A11DB11DB595A79597958795A701A1
S11322A09601281B390B4A0B5B0B2F8F38A349A3CC
S11322B05AA3D8011896CD90DC901997EE24D7FC38
S11322C0E094FE2C54964D915C915597662757FDEA
S11322D06095762F1E968D919C911F97AA2797FD46
S11322E0A095BA2F480F591F6A1F7B1FDB01CA0133
S11322F077231CF40196A11DB11DB595A79597955B
S11323008795A7019601281B390B4A0B5B0B2BA35E
S11323103CA34DA35EA3D8011A964D905C901B97E5
S1132320662457FC6094762C56964D915C91579791
S1132330662757FD6095762F50968D919C91519705
S1132340AA2797FDA095BA2F480F591F6A1F7B1F14
S1132350DB01CA0177231CF40196A11DB11DB595BB
S1132360A79597958795481A590A6A0A7B0AF8012E
S113237084809580AA2497FCA094BA2C82819381AE
S11323809C01442737FD4095542F2FA338A749A714
S11323905AA72BA13CA14DA15EA1C501B4010E9485
S11323A0DA2B6B017C01A30192016FA178A589A5A9
S11323B09AA50E94DA2BA7019601261B370B480B1E
S11323C0590BCA01B9010E94FC206D877E878F8753
S11323D0988BD801CD90DC90EE24D7FCE094FE2CB1
S11323E0A3019201C701B6010E94DA2B2B013C0123
S11323F02F8D38A149A15AA1C501B4010E94DA2B3D
S1132400A3019201261B370B480B590BCA01B901D2
S11324100E94FC20698B7A8B8B8B9C8B2F8D38A12F
S113242049A15AA16FA178A589A59AA50E94DA2B82
S11324304B015C012BA13CA14DA15EA1C701B601DA
S11324400E94DA2BA5019401261B370B480B590B6C
S1132450CA01B9010E94FC206D8B7E8B8F8B988FF3
S1132460CE010D9648DED80112966D917C9113979A
S1132470882777FD8095982F0E94FC206B017C01B2
S11324802D893E894F89588D2F8F38A349A35AA38C
S1132490D80114966D917C911597882777FD8095C6
S11324A0982F0E94FC202B013C0129893A894B89F1
S11324B05C892BA33CA34DA35EA32F8D38A149A116
S11324C05AA1C701B6010E9441224B015C012BA114
S11324D03CA14DA15EA1C301B2010E9441229B0116
S11324E0AC01C501B4010E947C1F69837A838B838C
S11324F09C838D859E85AF85B8898FA398A7A9A74E
S1132500BAA7D8016D917C91882777FD8095982F83
S11325100E94FC204B015C012FA138A549A55AA5B6
S1132520C301B2010E9441222B013C01A501940187
S11325306F8D78A189A19AA10E9441229B01AC01CF
S1132540C301B2010E947C1F6D837E838F839887B1
S1132550A50194016BA17CA18DA19EA10E944122A1
S11325604B015C012FA138A549A55AA5C701B601A5
S11325700E9441229B01AC01C501B4010E947C1F51
S113258069877A878B879C87CE010196B4DD698D34
S11325907A8D882777FD8095982F0E94FC202B0147
S11325A03C016B8D7C8D882777FD8095982F0E9448
S11325B0FC204B015C016D8D7E8D882777FD809515
S11325C0982F0E94FC206B017C0129813A814B8168
S11325D05C81C301B2010E9441226F8F78A389A359
S11325E09AA32D813E814F815885C501B4010E9473
S11325F041229B01AC016F8D78A189A19AA10E940F
S11326007D1F6F8F78A389A39AA329853A854B856B
S11326105C85C701B6010E9441229B01AC016F8D0C
S113262078A189A19AA10E947D1F6F8F78A389A3A5
S11326309AA32D853E854F855889C301B2010E9416
S113264041222B013C0129893A894B895C89C501C6
S1132650B4010E9441229B01AC01C301B2010E945A
S11326607D1F4B015C012D893E894F89588DC7011F
S1132670B6010E9441229B01AC01C501B4010E9434
S11326807D1F2F8D38A149A15AA10E94072020E067
S113269030E044E353E40E9441222BED3FE049E45F
S11326A050E40E9461206B017C0120E030E0A9012C
S11326B00E945A20882354F420E030E044EB53E491
S11326C0C701B6010E947D1F6B017C01C701B601E1
S11326D0AA960FB6F894DEBF0FBECDBFDF91CF919F
S11326E01F910F91FF90EF90DF90CF90BF90AF902C
S11326F09F908F907F906F905F904F900895CF93AD
S1132700DF93CDB7DEB72C970FB6F894DEBF0FBEBC
S1132710CDBFFC01218D233079F431E0232F3F8399
S113272018861A8619861C861B8630E040E05A8576
S113273060E07C856DDD0EC01A8219822FEF422F76
S11327402B832C831E821D8220E03A815FEF60E0A0
S11327507E815EDD2C960FB6F894DEBF0FBECDBF32
S1132760DF91CF9108950F931F93CF93DF93EC01E3
S1132770062F142F6A8D86E19FE00E94591F602F57
S113278086E19FE00E94001F612F86E19FE00E9486
S1132790001F86E19FE00E94751F888FDF91CF9113
S11327A01F910F9108950F931F93CF93DF93EC0123
S11327B0062F142F6B8D86E19FE00E94591F602F16
S11327C086E19FE00E94001F612F86E19FE00E9446
S11327D0001F86E19FE00E94751F888FDF91CF91D3
S11327E01F910F910895FC01218D233011F0603267
S11327F010F4D9CF0895B7CF0895CF93DF93EC01A8
S1132800898D8330A9F440E061E2CE01ECDF47E535
S113281060E2CE01E8DF44E664E2CE01E4DF40E2B8
S113282065E2CE01E0DF40E066E2CE01DCDF1FC0FE
S1132830823049F448E063E2CE0195DF47E460E288
S1132840CE0191DF08C040E063E2CE018CDF47E2B5
S113285060E2CE0188DF4CE060E0CE01A4DF40E21C
S113286061E0CE01A0DF40E062E0CE019CDFDF91B9
S1132870CF9108959F92AF92BF92CF92DF92EF9241
S1132880FF920F931F93CF93DF93EC016A8D86E140
S11328909FE00E94591FE091160FF091170F0190CD
S11328A0F081E02D68EA86E19FE0199586E19FE0DA
S11328B00E94751F888F46E06A8D86E19FE00E9422
S11328C0561F0E9464298B0110C08BA19CA1892BE7
S11328D061F00E946429601B710B8BA19CA1861777
S11328E0970718F481E08DA332C086E19FE00E942F
S11328F0A61E069754F386E19FE00E94AE1EA82E02
S113290086E19FE00E94AE1E982E86E19FE00E9421
S1132910AE1E082F86E19FE00E94AE1EB82E86E10F
S11329209FE00E94AE1E182F86E19FE00E94AE1E1B
S1132930D92CC12CCA28D982C882FB2CE12CE02ACC
S1132940FB82EA82982F8827812B9D838C83DF91D9
S1132950CF911F910F91FF90EF90DF90CF90BF9098
S1132960AF909F900895CF92DF92EF92FF920F93D2
S11329701F93CF93DF93EC016B8D86E19FE00E9460
S1132980591F898D833031F46E8D772767FD7095DB
S1132990606804C06D8D772767FD7095E091160F10
S11329A0F091170F0190F081E02D86E19FE01995D9
S11329B086E19FE00E94751F888F46E06B8D86E15B
S11329C09FE00E94561F0E9464298B0110C08BA1B6
S11329D09CA1892B61F00E946429601B710B8BA15F
S11329E09CA18617970718F481E08DA36EC086E139
S11329F09FE00E94A61E069754F3898D8330F9F454
S1132A0086E19FE00E94AE1EC82E86E19FE00E94F0
S1132A10AE1ED82E86E19FE00E94AE1EE82E86E10F
S1132A209FE00E94AE1EF82E86E19FE00E94AE1E3B
S1132A30082F86E19FE00E94AE1E182F36C086E163
S1132A409FE00E94AE1ED82E86E19FE00E94AE1E3B
S1132A50C82E898D811115C086E19FE00E94AE1EAB
S1132A60F82E86E19FE00E94AE1EE82E86E19FE0EC
S1132A700E94AE1E182F86E19FE00E94AE1E082F12
S1132A8014C086E19FE00E94AE1E182F86E19FE0ED
S1132A900E94AE1E082F86E19FE00E94AE1EF82E13
S1132AA086E19FE00E94AE1EE82E6C2D70E07D2929
S1132AB07F836E834E2D50E05F2959874887202FEE
S1132AC030E0C901912B9B878A87DF91CF911F91B9
S1132AD00F91FF90EF90DF90CF900895CF93DF9305
S1132AE0C62FD42F86E19FE00E94591F6D2F86E1E7
S1132AF09FE00E94001F86E19FE00E94751F8111E4
S1132B0011C041E06C2F86E19FE00E94561F86E1D0
S1132B109FE00E94A61E892B41F086E19FE00E945F
S1132B20AE1E05C08FEF9FEF02C08FEF9FEFDF91C6
S1132B30CF9108950F931F93CF93DF93EC01162F3A
S1132B40042F643009F4ADC0423009F047C0ADC071
S1132B504FE06DE1CE01C2DF8934910509F4ABC0C9
S1132B60013041F04FE06EE1CE01B8DF89349105C8
S1132B7009F4A3C0143011F0133068F50023A9F050
S1132B8040E269E1CE01AADF019669F0143009F050
S1132B9099C04FE06EE1CE01A1DFCC9709F094C05B
S1132BA001E012E01BC0013099F040E268E1CE017F
S1132BB095DF019669F0143009F089C04FE06EE1A9
S1132BC0CE018CDF11E0CC9709F010E000E006C0E4
S1132BD0143009F460C0023009F45FC0198F113059
S1132BE071F108F442C01230C1F0133009F057C03B
S1132BF0013011F48DE101C08EE18B8F8A8F88E062
S1132C008E8F89E08D8F8AE088A38BE08F8F8CE094
S1132C108AA38DE089A381E064C089E18A8F8EE173
S1132C208B8F83E08D8F84E08E8F87E08F8F88E099
S1132C3088A385E089A386E08AA381E052C001309D
S1132C4011F489E101C088E18A8F8EE18B8F83E0E2
S1132C508D8F84E08E8F87E08F8F88E088A385E056
S1132C6089A386E08AA381E03CC0013011F489E1A4
S1132C7001C088E18A8F8EE18B8F83E08D8F84E0A1
S1132C808E8F85E08F8F86E088A387E089A388E014
S1132C908AA381E026C080E024C080E022C081E0D5
S1132CA020C0442309F45ECF53CF8DEF860F8230CA
S1132CB008F062CF0EC001E003C000E001C001E0F3
S1132CC013E089CF01E08ACF01E010E087CF00E074
S1132CD085CF4FE06DE1CE0101DF8934910579F3B1
S1132CE041CFDF91CF911F910F910895CF93DF933F
S1132CF0DC0170E0FB01E65FFB4FE4911496EC937A
S1132D00149750E0FA01E65FFB4FE4911596EC93BB
S1132D101597605B7B4FFB01849190E0880F991FAE
S1132D2080559B4FFC01C591D4911796DC93CE93AB
S1132D301697FA01E05BFB4F849190E0880F991F8E
S1132D408A569B4FFC014591549119965C934E937E
S1132D501897FB016491E62FF0E0EE0FFF1FE65396
S1132D60FB4F859194911B969C938E931A972F5F9A
S1132D703F4F49E3429FC001439F900D11248E3879
S1132D80FFE69F0710F08DE89FE61D969C938E93B7
S1132D901C97DF91CF9108950F931F93CF93DF93E7
S1132DA0EC01EA85FB8590818C81892B8083EE81FF
S1132DB0FF8190818C8180958923808384E090E0D9
S1132DC00E94BE29EE81FF8190818C81892B8083B2
S1132DD08AE090E00E94BE29EE81FF8190818C817F
S1132DE0809589238083EA85FB8590818C818095F9
S1132DF089238083E885F98590818D818923B1F5C4
S1132E000E9470290C851D8520E030E00855194E7C
S1132E102F4F3F4FDC01CB01800F911FA21FB31F27
S1132E208E879F87A88BB98B0BC00E9470290E8553
S1132E301F85288939890617170728073907C0F01D
S1132E40E885F98590818D81892379F30E94702921
S1132E502C853D85DC01CB01820F931FA11DB11D83
S1132E608E879F87A88BB98B81E003C080E001C067
S1132E7080E0DF91CF911F910F9108950F931F93DD
S1132E80CF93DF93EC0188DF81110CC01FC00E9437
S1132E9070290E851F852889398906171707280781
S1132EA03907B8F0E885F98590818D81892379F710
S1132EB00E9470292C853D85255031094E855F85FA
S1132EC0241B350BC901860F971F05C080E090E0D5
S1132ED002C080E090E0DF91CF911F910F9108959F
S1132EE01F920F920FB60F9211240BB60F922F93CD
S1132EF03F934F935F936F937F938F939F93AF937E
S1132F00BF93EF93FF93E0914D0EF0914E0E199500
S1132F10FF91EF91BF91AF919F918F917F916F91AD
S1132F205F914F913F912F910F900BBE0F900FBE69
S1132F300F901F90189531E1FC013083319722E204
S1132F4020833197A3E3A083319760833197708303
S1132F503197108231971082319760E860833197FE
S1132F6010823197108231971082319762E060832A
S1132F70319763E06083319764E06083319765E063
S1132F806083319766E06083319767E060833197AF
S1132F9068E06083319769E06083319760E1608322
S1132FA031973083319732E13083319733E1308385
S1132FB0319734E13083319735E13083319736E10D
S1132FC03083319737E13083319738E1308331975B
S1132FD039E13083319730E23083319731E2308305
S1132FE031972083319723E22083319740833197AF
S1132FF05083319726E22083319727E2208331974B
S113300028E22083319729E22083319720E320832B
S1133010319721E320838997089582E08093B0005B
S11330201092B20080E38093B300E0E7F0E0808187
S11330308260808384E08093B100A091A60EB09159
S1133040A70ECD91CDBFDD91DEBFFF91EF91DF9152
S1133050CF91BF91AF919F918F917F916F915F912C
S11330604F913F912F911F910F91FF90EF90DF901F
S1133070CF90BF90AF909F908F907F906F905F9014
S11330804F903F902F901F900F900CBE0F900BBE4F
S11330900F900FBE0F90089581E008950F920FB620
S11330A0F8940F920BB60F920CB60F921F92112444
S11330B02F923F924F925F926F927F928F929F9244
S11330C0AF92BF92CF92DF92EF92FF920F931F9332
S11330D02F933F934F935F936F937F938F939F931C
S11330E0AF93BF93CF93DF93EF93FF93A091A60E7B
S11330F0B091A70E0DB60D920EB60D92B4D3A09159
S1133100A60EB091A70ECD91CDBFDD91DEBFFF918C
S1133110EF91DF91CF91BF91AF919F918F917F916B
S11331206F915F914F913F912F911F910F91FF905C
S1133130EF90DF90CF90BF90AF909F908F907F9053
S11331406F905F904F903F902F901F900F900CBE08
S11331500F900BBE0F900FBE0F9008950F920FB6F5
S1133160F8940F920BB60F920CB60F921F92112483
S11331702F923F924F925F926F927F928F929F9283
S1133180AF92BF92CF92DF92EF92FF920F931F9371
S11331902F933F934F935F936F937F938F939F935B
S11331A0AF93BF93CF93DF93EF93FF93A091A60EBA
S11331B0B091A70E0DB60D920EB60D92C0D181112D
S11331C052D3A091A60EB091A70ECD91CDBFDD91A3
S11331D0DEBFFF91EF91DF91CF91BF91AF919F91AE
S11331E08F917F916F915F914F913F912F911F919B
S11331F00F91FF90EF90DF90CF90BF90AF909F9092
S11332008F907F906F905F904F903F902F901F9082
S11332100F900CBE0F900BBE0F900FBE0F90089531
S11332209DDF1895E0916E0EF0916F0E80818111F3
S113323007C08FEF9FEF90935F0280935E02089523
S1133240E0916E0EF0916F0E0580F681E02D068000
S1133250F781E02D8281938190935F0280935E02D7
S11332600895CF93DF93EC01E091A60EF091A70EA1
S1133270938382838091560E9091570EC817D90775
S113328068F46091A60E7091A70E80916C0E9091D7
S11332906D0E6E5F7F4F0E94071017C06091A60EDF
S11332A07091A70E80916E0E90916F0E6E5F7F4F9E
S11332B00E94071080915E0290915F02C817D9079F
S11332C020F4D0935F02C0935E02DF91CF91089502
S11332D04F925F926F927F928F929F92AF92BF9222
S11332E0CF92DF92EF92FF920F931F93CF93DF93CE
S11332F04C015B012A01390181E290E00E94260E13
S1133300EC01009709F4DAC0C114D10409F0BFC07C
S1133310C2010E94260E988F8F8B892B09F0B9C0A9
S1133320CE010E945B0ECAC0CF013191DA013D93F8
S1133330AD01DC018C91882311F02150A9F718A26A
S1133340102F043008F013E01E8B5E01B2E0AB0EC8
S1133350B11CC5010E94E20FCE010C960E94E20F3F
S1133360D987C88784E090E0811B91099D878C8769
S1133370DB8BCA8BA301B401C601DDDD998388838D
S1133380E114F10419F0F701D183C0830FB6F89466
S11333900F928091580E8F5F8093580E8091A60EE5
S11333A09091A70E892BA9F5D093A70EC093A60ED2
S11333B08091580E8130E1F582E89EE00E94D40F9E
S11333C08BE89EE00E94D40F84E99EE00E94D40F13
S11333D08DE99EE00E94D40F89E79EE00E94D40FFD
S11333E080E79EE00E94D40F83E69EE00E94D40F03
S11333F08AE59EE00E94D40F89E79EE090936F0EC9
S113340080936E0E80E79EE090936D0E80936C0E19
S11334100FC08091540E81110BC0E091A60EF09163
S1133420A70E8689081720F0D093A70EC093A60E86
S11334308091500E8F5F8093500E8E899091550E1F
S1133440981710F48093550E90E09C01220F331FBF
S1133450220F331F220F331F820F931FB5018E5784
S1133460914F0E94E60F0F900FBE8091540E882357
S113347051F0E091A60EF091A70E8689801728F4EA
S11334800DDE81E01CC081E01AC081E018C0D88E36
S1133490CF8AF1E04F1A5108CF88D88CC40CD51CC0
S11334A0D5018C91898F8C91882309F448CFAE0182
S11334B0465E5F4FF501319627E036CF8FEFDF91FF
S11334C0CF911F910F91FF90EF90DF90CF90BF901D
S11334D0AF909F908F907F906F905F904F900895E2
S11334E0AF92BF92CF92DF92EF92FF920F93A12CF3
S11334F0B12CC12CD12CE12CF12C00E020E030E0E7
S113350045E550E068EB72E08AEF9BE1E1DE813053
S113351041F4F8948093540E1092570E1092560E64
S11335207CDD0F91FF90EF90DF90CF90BF90AF9034
S1133530089580914F0E8F5F80934F0E0895CF9220
S1133540DF92EF92FF920F931F93CF93DF938091BB
S11335504F0E811199C08091560E9091570E01968D
S11335609093570E8093560EE090560EF090570E9F
S1133570E114F104B1F480916E0E90916F0E2091DC
S11335806C0E30916D0E30936F0E20936E0E9093EF
S11335906D0E80936C0E8091510E8F5F8093510E4F
S11335A041DE80915E0290915F02E816F90608F40C
S11335B054C0D12CCC24C39401C0DC2CE0916E0EF9
S11335C0F0916F0E8081811107C08FEF9FEF909370
S11335D05F0280935E0242C0E0916E0EF0916F0E26
S11335E00580F681E02DC681D7812A813B81E216D0
S11335F0F30628F430935F0220935E022FC08E01FD
S11336000E5F1F4FC8010E9438108C899D89892B39
S113361021F0CE010C960E9438102E898091550E0F
S1133620821710F42093550E30E0C901880F991FBA
S1133630880F991F880F991F820F931FB8018E5707
S1133640914F0E94E60FE091A60EF091A70E9E897D
S11336508689981708F0B1CFB1CFD12CE091A60E8E
S1133660F091A70E868990E0FC01EE0FFF1FEE0F8C
S1133670FF1FEE0FFF1F8E0F9F1FFC01EE57F14F30
S11336808081823040F409C08091530E8F5F809313
S1133690530ED12C02C0DD24D3948091520E882382
S11336A011F0DD24D3948D2DDF91CF911F910F91D3
S11336B0FF90EF90DF90CF900895DF92EF92FF920A
S11336C00F931F93CF93DF930FB6F8940F928091CB
S11336D04F0E815080934F0E80914F0E81115FC029
S11336E08091580E882309F45CC00F2EF3E6EF2E68
S11336F0FEE0FF2EF02DDD24D39430C0E091680E5F
S1133700F091690EC681D781CE010C960E943810C3
S11337108E010E5F1F4FC8010E9438108E89909150
S1133720550E981710F48093550E90E09C01220FCB
S1133730331F220F331F220F331F820F931FB80131
S11337408E57914F0E94E60FE091A60EF091A70EBE
S11337509E898689981710F0D092520EF7018081C5
S11337608111CCCF8091530E882391F08091530E18
S1133770882371F0C1E0E3DE8111C093520E809181
S1133780530E81508093530E8091530E8111F3CFC9
S11337908091520E813039F481DC81E005C080E0F3
S11337A003C080E001C080E00F900FBEDF91CF9195
S11337B01F910F91FF90EF90DF900895CF93DF93C7
S11337C0EC01009799F0B5DE8091560E9091570E5A
S11337D0C80FD91F8091A60E9091A70E02960E9441
S11337E03810CE013EDD69DF811101C057DCDF9165
S11337F0CF9108950F2EF2E8EF2EFEE0FF2EF02D6C
S1133800CAE5DEE026C095DE188157DF112309F1F1
S11338100FB6F8940F92E0915F0EF091600E06815E
S11338201781C80102960E9438108091580E815069
S11338308093580E8091590E81508093590E0F90A9
S11338400FBEF8018789908D0E945B0EC8010E940B
S11338505B0E8091590E8111D6CFF70180818230A1
S1133860C0F31CDCF6CF80914F0E882321F081E059
S11338708093520E08951092520E8091550E90E04E
S1133880FC01EE0FFF1FEE0FFF1FEE0FFF1F8E0F49
S11338909F1FFC01EE57F14F8081811117C0809169
S11338A0550E81508093550E8091550E90E0FC0189
S11338B0EE0FFF1FEE0FFF1FEE0FFF1F8E0F9F1F58
S11338C0FC01EE57F14F8081882349F3E091550EB6
S11338D0F0E0CF01880F991F880F991F880F991F57
S11338E0E80FF91FEE57F14FA181B28112960D90A6
S11338F0BC91A02DB283A183CF010396A817B90769
S113390031F412968D919C91139792838183018057
S1133910F281E02D868197819093A70E8093A60E65
S113392008951092150F81E08093130F1092120FD7
S113393061E084E10E94AA2B61E085E10E94AA2B48
S1133940E9EBF0E080818E7F808380818D7F8083AE
S113395088E48093B80085E48093BC0008954132E4
S113396008F045C09091150F9111FCCF91E0909310
S1133970150F2093130F2FEF2093A80E1092ED0E26
S1133980240F2093EC0E9093140F9091140F880F32
S1133990892B8093140F8091120F813051F410926F
S11339A0120F8091140F8093BB0085EC8093BC00B0
S11339B003C085EE8093BC008091150F8130E1F344
S11339C08091ED0E841710F44091ED0E442389F09C
S11339D0EEEEFEE0A62FB72F2FEF240F30E021519B
S11339E0314F91919D93E217F307D9F704C080E01A
S11339F00895842F0895842F08950F93413208F079
S1133A0050C09091150F9111FCCF92E09093150F37
S1133A100093130F9FEF9093A80E1092ED0E409316
S1133A20EC0E442369F0FB01AEEEBEE06F5F7F4F06
S1133A304150640F711D91919D93E617F707D9F7D3
S1133A401092140F9091140F880F892B8093140FE8
S1133A508091120F813051F41092120F8091140F43
S1133A608093BB0085EC8093BC0003C085EE8093FB
S1133A70BC00222341F08091150F823021F4809103
S1133A80150F8230E1F38091A80E8F3F61F0809191
S1133A90A80E803251F08091A80E803341F483E067
S1133AA007C081E005C080E003C082E001C084E07B
S1133AB00F9108956132A8F42091150F243099F4E0
S1133AC06093CA0E662389F0FC01ACECBEE001965B
S1133AD06150860F911D21912D93E817F907D9F7AD
S1133AE006C081E0089582E0089580E0089580E0B2
S1133AF0089585ED8093BC00ECEBF0E0808184FDBB
S1133B00FDCF1092150F089585EC8093BC001092A0
S1133B10150F08951F920F920FB60F9211240BB632
S1133B200F922F933F934F935F936F937F938F9352
S1133B309F93AF93BF93EF93FF938091B900887FD6
S1133B4090E0893C910508F0EEC0FC01EE58FF4F6F
S1133B500C940B2C8091140F8093BB0085EC809304
S1133B60BC00E1C09091ED0E8091EC0E981780F4AA
S1133B70E091ED0E81E08E0F8093ED0EF0E0E251C6
S1133B80F14F80818093BB0085EC8093BC00CBC057
S1133B908091130F882311F0ACDFC5C081E08093BE
S1133BA0120F84EA8093BC001092150FBCC080E20F
S1133BB08093A80E9EDFB7C080E38093A80E99DFA0
S1133BC0B2C088E38093A80E9FDFADC0E091ED0EF4
S1133BD081E08E0F8093ED0E8091BB00F0E0E25106
S1133BE0F14F80839091ED0E8091EC0E981720F4A4
S1133BF085EC8093BC0097C085E88093BC0093C09B
S1133C00E091ED0E81E08E0F8093ED0E8091BB006C
S1133C10F0E0E251F14F80838091130F882311F07B
S1133C2068DF81C081E08093120F84EA8093BC0036
S1133C301092150F78C05DDF76C083E08093150F76
S1133C401092A90E85EC8093BC006DC08091A90EE2
S1133C50803280F4E091A90E81E08E0F8093A90E4A
S1133C608091BB00F0E0E655F14F808385EC8093B2
S1133C70BC0059C085E88093BC0055C08091A90E52
S1133C80803230F4E091A90EF0E0E655F14F108255
S1133C9030DF6091A90E70E0E0910E0FF0910F0FEC
S1133CA08AEA9EE019951092A90E2EDF3CC085E8A1
S1133CB08093BC0038C084E08093150F1092CB0E23
S1133CC01092CA0EE091100FF091110F1995809186
S1133CD0CA0E811105C081E08093CA0E1092CC0EE9
S1133CE0E091CB0E81E08E0F8093CB0EF0E0E45395
S1133CF0F14F80818093BB009091CB0E8091CA0ECE
S1133D00981720F485EC8093BC000DC085E880935F
S1133D10BC0009C085EC8093BC001092150F03C051
S1133D201092A80EE6DEFF91EF91BF91AF919F91A3
S1133D308F917F916F915F914F913F912F910F9050
S1133D400BBE0F900FBE0F901F9018958091460FD9
S1133D5090E02091470F821B910908952091470F0D
S1133D608091460F281750F4E22FF0E0E85BF04F03
S1133D70808190E02F5F2093470F08958FEF9FEF8E
S1133D800895E091470F8091460FE81730F4F0E072
S1133D90E85BF04F808190E008958FEF9FEF0895E6
S1133DA00895CF92DF92EF92FF920F931F93CF93D8
S1133DB0DF938C017B016A018091220F882399F0A3
S1133DC04115510599F0EB01E40EF51E6991D801F6
S1133DD0ED91FC910190F081E02DC8011995CE156B
S1133DE0DF05A1F703C0642FC70164DEC601DF91BC
S1133DF0CF911F910F91FF90EF90DF90CF90089596
S1133E00CF93DF931F92CDB7DEB769832091220F42
S1133E102223E1F02091230F203240F021E030E012
S1133E20FC013383228380E090E016C08091240F4C
S1133E30E82FF0E0EB5DF04F998190838F5F8093E2
S1133E40240F8093230F81E090E006C061E0CE014F
S1133E50019630DE81E090E00F90DF91CF910895DC
S1133E60FC011382128248EE53E060E070E0448368
S1133E7055836683778381EC92E0918380830895F0
S1133E801092470F1092460F1092240F1092230F96
S1133E9048CD0895862F413208F040E268E47FE07F
S1133EA05EDD1092470F8093460F089521E0F2CF14
S1133EB0089581E08093220F6093450F1092240FA0
S1133EC01092230F08950F93062F21E04091230FA2
S1133ED065E27FE08091450F90DD1092240F1092EF
S1133EE0230F1092220F0F91089561E0ECCF0895F3
S1133EF086E19FE0B5CF08955058BB27AA270ED07E
S1133F006AC233D230F038D220F031F49F3F11F43A
S1133F101EF4F2C10EF4E095E7FBE8C1E92F7DD26F
S1133F2080F3BA17620773078407950718F071F4D2
S1133F309EF595C20EF4E0950B2EBA2FA02D0B0121
S1133F40B90190010C01CA01A0011124FF27591BDA
S1133F5099F0593F50F4503E68F11A16F040A22FE0
S1133F60232F342F4427585FF3CF46953795279551
S1133F70A795F0405395C9F77EF41F16BA0B620B50
S1133F80730B840BBAF09150A1F0FF0FBB1F661F97
S1133F90771F881FC2F70EC0BA0F621F731F841FDA
S1133FA048F4879577956795B795F7959E3F08F000
S1133FB0B3CF9395880F08F09927EE0F97958795BF
S1133FC008959F939F77EEE389379E0720F4E6E7F1
S1133FD0F2E0BAD109C04BD19058A2EA2AED3FE0F1
S1133FE049EC5FE39BDFF7D10F9007FC90580895ED
S1133FF0BCD158F080E891E009F49EEFBDD128F0DF
S113400040E851E059F45EEF09C076C128C2E92FB7
S1134010E07803D268F3092E052AC1F3261737077F
S11340204807590738F00E2E07F8E02569F0E02517
S1134030E0640AC0EF6307F8009407FADB01B901F2
S11340409D01DC01CA01AD01EF934AD0C4D10AD06D
S11340505F91552331F02BED3FE049E450FD49ECED
S11340604CCF0895DF93DD27B92FBF7740E85FE396
S11340701616170648075B0710F4D92FFBD19F9338
S11340808F937F936F93F4D2EAE8F2E038D1A3D10F
S11340902F913F914F915F9100D2DD2349F09058C9
S11340A0A2EA2AED3FE049EC5FE3D0785D2736DFF2
S11340B0DF9191C1F7D008F481E0089565D1E395CB
S11340C09BC10CD088C158D140F04FD130F021F4BD
S11340D05F3F19F00BC15111C3C10EC19ED198F3BA
S11340E09923C9F35523B1F3951B550BBB27AA2775
S11340F062177307840738F09F5F5F4F220F331FE7
S1134100441FAA1FA9F333D00E2E3AF0E0E830D0B2
S113411091505040E695001CCAF729D0FE2F27D0B5
S1134120660F771F881FBB1F261737074807AB0783
S1134130B0E809F0BB0B802DBF01FF2793585F4FF8
S11341402AF09E3F510568F0D1C08AC15F3FECF36D
S1134150983EDCF3869577956795B795F7959F5FBD
S1134160C9F7880F911D9695879597F90895E1E011
S1134170660F771F881FBB1F621773078407BA0770
S113418020F0621B730B840BBA0BEE1F88F7E095CB
S1134190089504D06894B11163C1089546D188F09C
S11341A09F5790F0B92F9927B751A0F0D1F0660F1F
S11341B0771F881F991F1AF0BA95C9F712C0B1303A
S11341C081F04DD1B1E008954AC1672F782F882737
S11341D0B85F39F0B93FCCF3869577956795B39579
S11341E0D9F73EF490958095709561957F4F8F4FE8
S11341F09F4F0895E89409C097FB3EF490958095ED
S1134200709561957F4F8F4F9F4F9923A9F0F92F98
S113421096E9BB279395F695879577956795B79516
S1134220F111F8CFFAF4BB0F11F460FF1BC06F5FFC
S11342307F4F8F4F9F4F16C0882311F096E911C00E
S1134240772321F09EE8872F762F05C0662371F02F
S113425096E8862F70E060E02AF09A95660F771F43
S1134260881FDAF7880F9695879597F90895DF9355
S1134270CF931F930F938B01EC01E7EBF2E03FD058
S1134280AAD09801AE018B01EC0160E070E080E8F7
S11342909FE332DEAFD19801AE010F911F91CF9110
S11342A0DF91FBC0990F0008550FAA0BE0E8FEEF61
S11342B016161706E807F907C0F012161306E407E6
S11342C0F50798F0621B730B840B950B39F40A26DF
S11342D061F0232B242B252B21F408950A2609F4BD
S11342E0A140A6958FEF811D811D089597F99F67C1
S11342F080E870E060E008959FEF80EC0895DF931C
S1134300CF931F930F93FF92EF92DF927B018C0167
S1134310689405C0DA2EEF01C0D0FE01E894A5919F
S11343202591359145915591AEF3EF01F7DDFE01ED
S11343309701A801DA9479F7DF90EF90FF900F913D
S11343401F91CF91DF9108959F938F937F936F93E4
S1134350FF93EF939B01AC0194D0EF91FF91CFDFDA
S11343602F913F914F915F918CC000240A941616AF
S1134370170618060906089500240A94121613064F
S1134380140605060895B8CF50D0E8F3E894E0E0A9
S1134390BB279F57F0F02AED3FE049EC06C0EE0F33
S11343A0BB0F661F771F881F28F0B23A6207730796
S11343B0840728F0B25A620B730B840BE3959A9529
S11343C072F7803830F49A95BB0F661F771F881FE9
S11343D0D2F7904883C1092E0394000C11F488236A
S11343E052F0BB0F40F4BF2B11F460FF04C06F5FA9
S11343F07F4F8F4F9F4F0895EF93E0FF06C0A2EACF
S11344002AED3FE049EC5FEB89DDE5DF0F90039493
S113441001FC9058EFEDF2E097CF57FD9058440F10
S1134420551F59F05F3F71F04795880F97FB991F0F
S113443061F09F3F79F087950895121613061406CC
S1134440551FF2CF4695F1DF08C016161706180659
S1134450991FF1CF86957105610508940895E89434
S1134460BB2766277727CB0197F908951BDF08F44C
S11344708FEF08959B01AC0160E070E080E89FE35A
S113448020CE0BD0A8CF71DF28F076DF18F095236B
S113449009F02CCF31CF1124E3CFBFDFA0F3959FD8
S11344A0D1F3950F50E0551F629FF001729FBB2717
S11344B0F00DB11D639FAA27F00DB11DAA1F649FC3
S11344C06627B00DA11D661F829F2227B00DA11D76
S11344D0621F739FB00DA11D621F839FA00D611DFC
S11344E0221F749F3327A00D611D231F849F600D1D
S11344F0211D822F762F6A2F11249F5750408AF056
S1134500E1F088234AF0EE0FFF1FBB1F661F771FE1
S1134510881F91505040A9F79E3F510570F0E6CE98
S11345209FCF5F3FECF3983EDCF3869577956795D4
S1134530B795F795E7959F5FC1F7FE2B880F911DFF
S11345409695879597F90895FA01EE0FFF1F309617
S11345502105310599F16115710561F48038BFE3D6
S11345609B0749F168949038810561F08038BFEF6A
S11345709B0741F0992342F5FF3FE10531052105F1
S113458011F1E8940894E795D901AA2329F4AB2FF3
S1134590BE2FF85FD0F310C0FF5F70F4A695E0F76C
S11345A0F73950F019F0FF3A38F49F779F930CD005
S11345B00F9007FC905808953EF09ECE60E070E0A6
S11345C080E89FE308954FE79F775F934F933F936E
S11345D02F93D2D02F913F914F915F9152DF50C0D2
S11345E09F93D2DE0F9007FCEE5F06CF11F40EF41A
S11345F083CE72C01ADFD0F39923D9F3CEF39F5739
S1134600550B87FF77D00024A0E640EA900180583C
S11346105695979528F4805C660F771F881F20F0C5
S113462026173707480730F4621B730B840B2029C5
S113463031294A2BA69517940794202531254A271A
S113464058F7660F771F881F20F02617370748078B
S113465030F4620B730B840B200D311D411DA095AA
S113466081F7B901842F9158880F969587950895FD
S11346709B01AC0106CF19F40EF038CEF0CE3CCE3F
S1134680D4DEC8F39638C0F707F80F92E8942BE30A
S11346903AEA48EB5FE703DF0F920F920F924DB7B0
S11346A05EB70F92A9D0EDEFF2E029DE4F915F9152
S11346B0EF91FF91E595EE1FFF1F49F0FE57E0686B
S11346C04427EE0F441FFA95E1F74195550B1BD093
S11346D00F9007FECFCE08959F3F31F0915020F404
S11346E0879577956795B795880F911D96958795CA
S11346F097F9089591505040660F771F881FD2F79D
S11347000895F4CDE9CF91DEE8F39923D9F3940F1A
S1134710511DBBF39150504094F059F0882332F06E
S1134720660F771F881F91505040C1F79E3F510577
S113473044F7880F911D9695879597F908955F3FE3
S1134740ACF0983E9CF0BB27869577956795B79516
S113475008F4B1609395C1F7BB0F58F711F460FFEB
S1134760E8CF6F5F7F4F8F4F9F4FE3CF79CE0EF02F
S1134770B3CFC2CD6894BACD58DEC8F39923D1F330
S1134780C6F3DF93CF931F930F93FF92C92FDD27B7
S113479088232AF02197660F771F881FDAF720E015
S11347A030E040E85FEB9FE3883920F0803E30F052
S11347B021968F77A2DBE5E2F3E003C09EDBE2E51E
S11347C0F3E09DDD8B01BE01EC01FB2E6F577109F7
S11347D07595771F880B990B0FDD28E132E741E3CC
S11347E05FE35BDEAF2D9801AE01FF900F911F9147
S11347F0CF91DF9193DBEFCDFA01DC01AA0FBB1F50
S11348009B01AC01BF5728F4222733274427507853
S11348101FC0B75188F4AB2F0024469537952795D0
S1134820011CA395D2F3002069F0220F331F441F0B
S1134830B395DAF30DD060CB61307105A0E88A0737
S1134840B94630F49B01AC01662777278827907816
S1134850309621F020833183428353830895FC01F1
S113486024853585F901E05CFF4F80819181329682
S113487020813181805C9F4F821B930B8F739078D2
S1134880992324F40197806C9F6F01960895FC018D
S113489084859585FC01E05CFF4F4081518132960F
S11348A0208131814217530741F020813181FC017D
S11348B0E20FF31F808190E008958FEF9FEF08953A
S11348C0FC0184859585FC01E05CFF4F40815181AA
S11348D03296208131814217530781F02081318142
S11348E0DC01A20FB31F8C91208131812F5F3F4FD8
S11348F02F7333273183208390E008958FEF9FEF48
S11349000895FC0181A1882329F0A489B5898C919B
S113491086FFFBCF11A208951F93CF93DF93EC0181
S11349208E859F85FC01E05CFF4F0190F081E02DB6
S11349303196EF73FF271E2F7F2FDC01AE5BBF4F35
S1134940212F372F4D915C911197E417F507C1F38F
S1134950FC01E05CFF4F40815181FC01E40FF51F35
S11349606083EE85FF85E05CFF4F31832083EE8911
S1134970FF89408121E030E0C9010F8C02C0880F1B
S1134980991F0A94E2F7842B808381E089A3EC8940
S1134990FD8980818064808381E090E0DF91CF9104
S11349A01F9108951F920F920FB60F9211240BB608
S11349B00F922F933F934F938F939F93AF93BF93F4
S11349C0EF93FF938091C00082FD1AC04091C6000E
S11349D080910C1290910D1201968F73992720915A
S11349E00E1230910F128217930761F0ECE0F2E19E
S11349F0A081B181A453BE4E4C939183808302C0A5
S1134A008091C600FF91EF91BF91AF919F918F91DB
S1134A104F913F912F910F900BBE0F900FBE0F90AF
S1134A201F9018951F920F920FB60F9211240BB678
S1134A300F922F933F934F938F939F93AF93BF9373
S1134A40EF93FF938091C80082FD1AC04091CE007D
S1134A50809184119091851101968F7399272091EB
S1134A608611309187118217930761F0E4E8F1E130
S1134A70A081B181AC5BBE4E4C939183808302C014
S1134A808091CE00FF91EF91BF91AF919F918F9153
S1134A904F913F912F910F900BBE0F900FBE0F902F
S1134AA01F9018951F920F920FB60F9211240BB6F8
S1134AB00F922F933F938F939F93AF93BF93EF9353
S1134AC0FF932091C8113091C9118091CA1190911E
S1134AD0CB112817390731F4E1ECF0E080818F7DA8
S1134AE0808310C0EAECF1E1A081B181A857BE4EE9
S1134AF02C918081918101968F7399279183808372
S1134B002093C600FF91EF91BF91AF919F918F9138
S1134B103F912F910F900BBE0F900FBE0F901F90DF
S1134B2018951F920F920FB60F9211240BB60F9285
S1134B302F933F938F939F93AF93BF93EF93FF93E1
S1134B402091401130914111809142119091431173
S1134B502817390731F4E9ECF0E080818F7D8083F8
S1134B6010C0E2E4F1E1A081B181A050BF4E2C91CC
S1134B708081918101968F739927918380832093FB
S1134B80CE00FF91EF91BF91AF919F918F913F9193
S1134B902F910F900BBE0F900FBE0F901F90189582
S1134BA01F920F920FB60F9211240BB60F922F93F0
S1134BB03F938F939F93AF93BF93EF93FF93209172
S1134BC0B8103091B9108091BA109091BB10281789
S1134BD0390731F4E1EDF0E080818F7D808310C0EE
S1134BE0EAEBF0E1A081B181A858BF4E2C918081FD
S1134BF0918101968F739927918380832093D600A6
S1134C00FF91EF91BF91AF919F918F913F912F9120
S1134C100F900BBE0F900FBE0F901F9018951F9210
S1134C200F920FB60F9211240BB60F922F933F934E
S1134C308F939F93AF93BF93EF93FF932091301083
S1134C403091311080913210909133102817390728
S1134C5031F4E1E3F1E080818F7D808310C0E2E3F1
S1134C60F0E1A081B181A051B04F2C91808191815C
S1134C7001968F7399279183808320933601FF9146
S1134C80EF91BF91AF919F918F913F912F910F9091
S1134C900BBE0F900FBE0F901F9018958F929F928E
S1134CA0AF92BF92CF92DF92EF92FF920F931F9336
S1134CB0CF93DF93CDB7DEB7FC011382128288EE67
S1134CC093E0A0E0B0E084839583A683B78381ED6D
S1134CD092E0918380837587648757874687318BF9
S1134CE0208B138B028BF58AE48AD78AC68AB18E0D
S1134CF0A08E938E828E8889848F8989858F8A89F4
S1134D00868F8B89878F8C8980A3DF91CF911F91A8
S1134D100F91FF90EF90DF90CF90BF90AF909F9056
S1134D208F900895CF92DF92EF92FF92CF93DF930B
S1134D30EC016A017B01411581EE5807610571059B
S1134D4001F1EC89FD8981E090E008A002C0880FA0
S1134D50991F0A94E2F7808360E079E08DE390E0A4
S1134D60A701960136D5BA01A9014150510961093B
S1134D7071097695679557954795411580E15807D0
S1134D80A0F0EC89FD89108260E874E88EE190E07F
S1134D90A70196011ED5BA01A90141505109610923
S1134DA071097695679557954795E889F9895083F0
S1134DB0EA89FB89408319A2EE89FF89408181E059
S1134DC090E09C010C8C02C0220F331F0A94E2F77E
S1134DD0242B2083EE89FF8940819C010D8C02C025
S1134DE0220F331F0A94E2F7242B2083EE89FF89D4
S1134DF040819C010E8C02C0220F331F0A94E2F7FB
S1134E00242B2083EE89FF8920810F8C02C0880F18
S1134E10991F0A94E2F7809582238083DF91CF91D2
S1134E20FF90EF90DF90CF9008955F926F927F9202
S1134E308F929F92AF92BF92CF92DF92EF92FF92A6
S1134E400F931F93CF93DF93552453945F920F2EA8
S1134E50F5E06F2EF02D6F920F2EF7E07F2EF02DE0
S1134E607F92D3E0DF93C4E0CF930F2EF6EC8F2E26
S1134E70912CF02D0F2EF2ECAF2EB12CF02D0F2E25
S1134E80F1ECCF2ED12CF02D0F2EF0ECEF2EF12CD7
S1134E90F02D04EC10E025EC30E048E851E16CEC36
S1134EA071E18EEC9FE0FADE5F926F927F92DF9366
S1134EB0CF930F2EFEEC8F2E912CF02D0F2EFAECAB
S1134EC0AF2EB12CF02D0F2EF9ECCF2ED12CF02DCE
S1134ED00F2EF8ECEF2EF12CF02D0CEC10E02DEC55
S1134EE030E040E051E164E471E18CEA9FE0D6DE19
S1134EF05F926F927F92DF93CF930F2EF6ED8F2EFA
S1134F00912CF02D0F2EF2EDAF2EB12CF02D0F2E93
S1134F10F1EDCF2ED12CF02D0F2EF0EDEF2EF12C44
S1134F20F02D04ED10E025ED30E048E750E16CEBA6
S1134F3070E18AE89FE0B2DE5F926F927F92DF9326
S1134F40CF930F2EF6E38F2E99249394F02D0F2EEA
S1134F50F2E3AF2EBB24B394F02D0F2EF1E3CF2E4A
S1134F60DD24D394F02D0F2EF0E3EF2EFF24F394E1
S1134F70F02D04E311E025E331E040EF5FE064E36A
S1134F8070E188E69FE08ADE8DB79EB744960FB63F
S1134F90F8949EBF0FBE8DBFDF91CF911F910F91EB
S1134FA0FF90EF90DF90CF90BF90AF909F908F9045
S1134FB07F906F905F900895CF92DF92EF92FF926F
S1134FC00F931F93CF93DF936C0141155105B1F0FB
S1134FD0062F172FEA01E12CF12CD8016D918D01D8
S1134FE0D601ED91FC910190F081E02DC601199557
S1134FF0E80EF91E2197209781F702C0E12CF12CCD
S1135000C701DF91CF911F910F91FF90EF90DF9037
S1135010CF9008956115710581F0FB010190002086
S1135020E9F73197AF01461B570BDC01ED91FC9179
S11350300280F381E02D1995089580E090E00895B1
S1135040DC01ED91FC910190F081E02D199508951A
S11350500F931F93CF93DF93EC016DE0F1DF8C018D
S11350606AE0CE01EDDF800F911FDF91CF911F9198
S11350700F9108950F931F93CF93DF93EC01CADF31
S11350808C01CE01E5DF800F911FDF91CF911F913D
S11350900F9108956F927F928F929F92AF92BF92D9
S11350A0CF92DF92EF92FF920F931F93CF93DF93F0
S11350B0CDB7DEB7A1970FB6F894DEBF0FBECDBF54
S11350C06C01742E352F862F972F622E19A221E0A2
S11350D0261520F00F2EFAE06F2EF02D7E01A1E2AE
S11350E0EA0EF11C862C912CA12CB12C672D732F68
S11350F0A50194016ED3E22F732F022F132F242FB7
S1135100352FF72D6E9EF0191124B1E0EB1AF1083A
S1135110FA3010F4F05D01C0F95CD701FC93012B67
S1135120022B032B29F07E2E372F842F952FDECFD1
S1135130E114F10491F0F70101900020E9F73197AF
S1135140AF014E195F09D601ED91FC910280F38104
S1135150E02DB701C601199502C080E090E0A19648
S11351600FB6F894DEBF0FBECDBFDF91CF911F9174
S11351700F91FF90EF90DF90CF90BF90AF909F90F2
S11351808F907F906F900895CF92DF92EF92FF926D
S11351900F931F93CF93DF93EC016A017B012115D9
S11351A0310541F4E881F9810190F081E02D642F0B
S11351B0199519C02A303105A9F4772384F46DE2D6
S11351C03FDF8C0144275527BA014C195D096E094C
S11351D07F092AE0CE015EDF800F911F04C02AE020
S11351E059DF01C057DFDF91CF911F910F91FF90DD
S11351F0EF90DF90CF9008959A01AB01662757FD99
S11352006095762FC1CF08950F931F93CF93DF93AB
S1135210EC019A01AB01662757FD6095762FB4DF48
S11352208C01CE0115DF800F911FDF91CF911F916B
S11352300F9108951F920F920FB60F9211242F937E
S11352403F938F939F93AF93BF938091111290914B
S11352501212A0911312B09114123091101223E083
S1135260230F2D3720F40196A11DB11D05C026E89A
S1135270230F0296A11DB11D2093101280931112C9
S113528090931212A0931312B093141280911512DA
S113529090911612A0911712B09118120196A11DA7
S11352A0B11D8093151290931612A0931712B09308
S11352B01812BF91AF919F918F913F912F910F90B1
S11352C00FBE0F901F9018952FB7F894609111128C
S11352D07091121280911312909114122FBF08959D
S11352E03FB7F8948091151290911612A09117125D
S11352F0B091181226B5A89B05C02F3F19F001964E
S1135300A11DB11D3FBFBA2FA92F982F8827820F47
S1135310911DA11DB11DBC01CD01660F771F881F12
S1135320991F660F771F881F991F0895CF92DF92E8
S1135330EF92FF92CF93DF936B017C01D1DFEB01FE
S1135340C114D104E104F10491F0CADF6C1B7D0B9C
S1135350683E734038F081E0C81AD108E108F108CA
S1135360C851DC4FC114D104E104F10471F7DF9199
S1135370CF91FF90EF90DF90CF9008950197009721
S113538039F0880F991F880F991F02970197F1F739
S11353900895789484B5826084BD84B5816084BDA9
S11353A085B5826085BD85B5816085BDEEE6F0E09A
S11353B0808181608083E1E8F0E0108280818260F6
S11353C08083808181608083E0E8F0E08081816077
S11353D08083E1EBF0E0808184608083E0EBF0E0A7
S11353E0808181608083E1E9F0E080818260808354
S11353F0808181608083E0E9F0E080818160808346
S1135400E1EAF0E080818260808380818160808332
S1135410E0EAF0E0808181608083E1E2F1E0808174
S113542082608083808181608083E0E2F1E080811A
S113543081608083EAE7F0E08081846080838081FA
S113544082608083808181608083808180688083A2
S11354501092C1000895863308F08653EBE7F0E01C
S11354609081282F2870977F922B908387702091AA
S1135470600290E4299F90011124282B20937C0042
S1135480EAE7F0E0808180648083808186FDFDCF3F
S1135490809178002091790090E0922B08951F93D9
S11354A0CF93DF93182FEB0161E016D1209721F4FD
S11354B060E0812F4FD1ACC0CF3FD10521F461E032
S11354C0812F48D1A5C0412F50E0FA01EC53FC4F85
S11354D0449150E0FA013197E131F10508F08EC0B2
S11354E0E054FE4F98C184B5806884BDC7BD90C0A8
S11354F084B5806284BDC8BD8BC0E0E8F0E08081E3
S113550080688083D0938900C093880081C0E0E8DC
S1135510F0E0808180628083D0938B00C0938A0006
S113552077C0E0EBF0E0808180688083C093B300B3
S11355306FC0E0EBF0E0808180628083C093B400B0
S113554067C0E0E9F0E0808180688083D0939900AF
S1135550C09398005DC0E0E9F0E0808180628083C0
S1135560D0939B00C0939A0053C0E0E9F0E080819F
S113557088608083D0939D00C0939C0049C0E0EA7A
S1135580F0E080818068808380818F7B8083D093EA
S1135590A900C093A8003CC0E0EAF0E080818062EA
S11355A08083D093AB00C093AA0032C0E0EAF0E05D
S11355B0808188608083D093AD00C093AC0028C004
S11355C0E0E2F1E0808180688083D0932901C09378
S11355D028011EC0E0E2F1E0808180628083D093E4
S11355E02B01C0932A0114C0E0E2F1E080818860BD
S11355F08083D0932D01C0932C010AC0C038D105FB
S113560024F460E0812FA6D003C061E0812FA2D0F2
S1135610DF91CF911F91089590E0FC013197E13122
S1135620F10508F058C0EF52FE4FF5C0E0E8F0E095
S113563080818F7780830895E0E8F0E080818F7D1A
S11356408083089584B58F7784BD089584B58F7D54
S113565084BD0895E0EBF0E080818F778083089526
S1135660E0EBF0E080818F7D80830895E0E9F0E055
S113567080818F7780830895E0E9F0E080818F7DD9
S113568080830895E0E9F0E08081877F8083089536
S1135690E0EAF0E080818F7780830895E0EAF0E02B
S11356A080818F7D80830895E0EAF0E08081877FA8
S11356B080830895E0E2F1E080818F77808308950C
S11356C0E0E2F1E080818F7D80830895E0E2F1E003
S11356D08081877F80830895CF93DF9390E0FC01DE
S11356E0E65FFB4F2491FC01E05BFB4F8491882330
S11356F071F190E0880F991FFC01E653FB4FA591CF
S1135700B49180559B4FFC01C591D49161110BC09C
S11357108FB7F8949C91209592239C93E8812E2333
S113572028838FBF14C0623061F48FB7F8943C9122
S1135730922F909593239C93E8812E2B28838FBFDF
S113574006C08FB7F894EC912E2B2C938FBFDF916A
S1135750CF9108951F93CF93DF93C62F282F30E066
S1135760F901EC53FC4F8491F901E65FFB4F14916E
S1135770F901E05BFB4FD491DD23C1F081114CDFD3
S11357802D2F30E0F901EE0FFF1FE055FB4FA591DF
S1135790B4918FB7F894C11105C0EC9110951E23F4
S11357A01C9303C0EC911E2B1C938FBFDF91CF91F0
S11357B01F910895DB018F939F9342D0BF91AF91C6
S11357C0A29F800D911DA39F900DB29F900D112457
S11357D00895A1E21A2EAA1BBB1BFD010DC0AA1F2E
S11357E0BB1FEE1FFF1FA217B307E407F50720F046
S11357F0A21BB30BE40BF50B661F771F881F991FC1
S11358001A9469F760957095809590959B01AC0109
S1135810BD01CF010895EE0FFF1F0590F491E02D17
S11358201994A29FB001B39FC001A39F700D811D65
S11358301124911DB29F700D811D1124911D089595
S1135840F0DFA59F900DB49F900DA49F800D911D36
S1135850112408950790F691E02D19940F931F9346
S1135860CF93DF93CDB7DEB72E970FB6F894DEBF94
S11358700FBECDBF8C0186E08C831A8309838FEF22
S11358809FE79E838D83CE01019610D0EF81F8852A
S1135890E00FF11F10822E960FB6F894DEBF0FBEF4
S11358A0CDBFDF91CF911F910F9108952F923F9219
S11358B04F925F926F927F928F929F92AF92BF921C
S11358C0CF92DF92EF92FF920F931F93CF93DF93C8
S11358D0CDB7DEB72C970FB6F894DEBF0FBECDBFA1
S11358E07C016B018A01FC0117821682838181FF8E
S11358F0B0C1CE0101964C01F7019381F60193FDED
S1135900859193FF81916F01882309F49EC18532AB
S113591039F493FD859193FF81916F01853221F4D0
S1135920B70190E0C7D1E8CF512C312C20E02032D0
S1135930A0F48B3269F030F4803259F0833269F488
S113594020612CC08D3239F0803339F4216026C0B7
S11359502260246023C0286021C027FD27C030EDC9
S1135960380F3A3078F426FF06C0FAE05F9E300D17
S11359701124532E13C08AE0389E300D1124332E87
S113598020620CC08E3221F426FD5FC1206406C063
S11359908C3611F4206802C0883641F4F60193FD78
S11359A0859193FF81916F018111C1CF982F9F7DC4
S11359B09554933028F40C5F1F4FFFE3F9830DC017
S11359C0833631F0833771F0833509F057C021C035
S11359D0F801808189830E5F1F4F44244394512C26
S11359E0540114C03801F2E06F0E711CF801A0805C
S11359F0B18026FF03C0652D70E002C06FEF7FEF1A
S1135A00C5012C874CD12C0183012C852F77222EA4
S1135A1016C03801F2E06F0E711CF801A080B1804D
S1135A2026FF03C0652D70E002C06FEF7FEFC50154
S1135A302C872AD12C012C852068222E830123FC5B
S1135A4019C0832D90E048165906A0F4B70180E2EE
S1135A5090E030D13A94F5CFF50127FC859127FEEB
S1135A6081915F01B70190E025D131103A94F1E0C2
S1135A704F1A51084114510479F7DEC0843611F0ED
S1135A80893631F5F80127FF07C060817181828171
S1135A9093810C5F1F4F08C060817181882777FD57
S1135AA08095982F0E5F1F4F2F76B22E97FF09C057
S1135AB090958095709561957F4F8F4F9F4F20688B
S1135AC0B22E2AE030E0A40127D1A82EA81843C0A2
S1135AD0853729F42F7EB22E2AE030E025C0F22F3C
S1135AE0F97FBF2E8F36C1F018F4883579F0ADC038
S1135AF0803719F0883721F0A8C02F2F2061B22EEB
S1135B00B4FE0DC08B2D8460B82E09C024FF0AC0DA
S1135B109F2F9660B92E06C028E030E005C020E132
S1135B2030E002C020E132E0F801B7FE07C0608136
S1135B307181828193810C5F1F4F06C060817181E6
S1135B4080E090E00E5F1F4FA401E6D0A82EA818B5
S1135B50FB2DFF77BF2EB6FE0BC02B2D2E7FA51479
S1135B6050F4B4FE0AC0B2FC08C02B2D2E7E05C032
S1135B707A2C2B2D03C07A2C01C0752C24FF0DC068
S1135B80FE01EA0DF11D8081803311F4297E09C0E4
S1135B9022FF06C07394739404C0822F867809F0A0
S1135BA0739423FD12C020FF06C05A2C731418F4FA
S1135BB0530C5718732C731460F4B70180E290E00F
S1135BC02C8778D073942C85F6CF731410F437187F
S1135BD001C0312C24FF11C0B70180E390E02C8771
S1135BE069D02C8522FF16C021FF03C088E590E010
S1135BF002C088E790E0B7010CC0822F867851F08C
S1135C0021FD02C080E201C08BE227FD8DE2B701D5
S1135C1090E050D0A51430F4B70180E390E04AD06E
S1135C205A94F8CFAA94F401EA0DF11D8081B701CA
S1135C3090E040D0A110F6CF332009F45DCEB70137
S1135C4080E290E037D03A94F7CFF70186819781CC
S1135C5002C08FEF9FEF2C960FB6F894DEBF0FBEF5
S1135C60CDBFDF91CF911F910F91FF90EF90DF9007
S1135C70CF90BF90AF909F908F907F906F905F90E8
S1135C804F903F902F900895FC0105906150704013
S1135C900110D8F7809590958E0F9F1F0895FC01F1
S1135CA06150704001900110D8F7809590958E0F47
S1135CB09F1F08950F931F93CF93DF93182F092FDE
S1135CC0EB018B8181FD03C08FEF9FEF20C082FF2A
S1135CD010C04E815F812C813D81421753077CF4B3
S1135CE0E881F9819F012F5F3F4F39832883108317
