:1000000063C2000092C2000090C200008EC20000D5
:100010008CC200008AC2000088C2000086C20000B4
:1000200084C2000082C2000080C200007EC20000C4
:100030007CC200000C94C21478C2000076C200009A
:1000400074C2000072C2000070C200006EC20000E4
:100050006CC200000C94251368C200000C94F523B8
:1000600064C200000C947D200C94FD205EC2000050
:100070005CC200005AC2000058C2000056C2000014
:1000800054C2000052C2000050C200004EC2000024
:100090000C94BD200C943C2148C200000C943A19E9
:1000A00044C2000042C2000040C200003EC2000044
:1000B0003CC200003AC2000038C2000036C2000054
:1000C00034C2000032C2000030C200002EC2000064
:1000D0000C947B212AC2000028C200000C94BA2193
:1000E00024C20000401A431A431A431A431A431AFF
:1000F000431A431A5A19431A431A431A431A431A02
:10010000431A431A5A19431A431A431A431A431AF1
:10011000431A431A6219431A431A431A431A431AD9
:10012000431A431A8719431A431A431A431A431AA4
:10013000431A431A6219431A431A431A431A431AB9
:10014000431A431A8C19431A431A431A431A431A7F
:10015000431A431A9119431A431A431A431A431A6A
:10016000431A431AA219431A431A431A431A431A49
:10017000431A431ACB19431A431A431A431A431A10
:10018000431A431A9619431A431A431A431A431A35
:10019000431A431AB019431A431A431A431A431A0B
:1001A000431A431ACD19431A431A431A431A431ADE
:1001B000431A431ACD19431A431A431A431A431ACE
:1001C000431A431ACD19431A431A431A431A431ABE
:1001D000431A431ACD19431A431A431A431A431AAE
:1001E000431A431AD619431A431A431A431A431A95
:1001F000431A431A071A431A431A431A431A431A53
:10020000431A431AD619431A431A431A431A431A74
:10021000431A431A071A431A431A431A431A431A32
:10022000431A431AEE19431A431A431A431A431A3C
:10023000431A431A0B1A431A431A431A431A431A0E
:10024000431A431A0B1A431A431A431A431A431AFE
:10025000431A431A201A431A431A431A431A431AD9
:10026000431A431A3A1A431A431A431A431A431AAF
:10027000431A431A3A1A036EDB363D9A9999993D0F
:10028000ABAAAA2A3E000000803F084AD73B3BCEDB
:10029000016E84BCBFFDC12F3D6C74319ABD568385
:1002A0003DDA3D00C77F11BED9E4BB4C3E916BAA3D
:1002B000AABE000000803F072C7AA5BA6CC590DA70
:1002C0003B9365FC8BBC53F810FD3C5692834DBDAF
:1002D000879D3AB63DCBC9BF5BBE73DA0FC93F05F8
:1002E000A84CCDB2D44EB93836A9020C50B991867B
:1002F00088083CA6AAAA2ABE000000803F076342E5
:1003000036B79BD8A71A39685618AEBAAB558C1DAC
:100310003CB7CC5763BD6DEDFD753EF6177231BF2E
:10032000000000803F08000000BE922449123EAB4E
:10033000AAAA2ABECDCCCC4C3E00000080BEABAAFF
:10034000AAAA3E00000000BF000000803F0000009D
:100350000000084178D3BB4387D1133D190E3CC33D
:10036000BD4282AD2B3E68EC8276BED98FE1A93EBC
:100370004C80EFFFBE01C4FF7F3F00000000000083
:100380003525392529252F257E253D254325492538
:100390004F2555255B25612567257E256D25732510
:1003A00079250000090A02080B0C0D070603040159
:1003B000000000000000000000000000000000003D
:1003C000000000000000000000000000000011100C
:1003D0000F0000000000000000000000000000000E
:1003E000000000000000000001021020200808109A
:1003F0002040102040800201020108040201010295
:10040000040810204080804020100804020180046D
:1004100002018040201008040201080402010102C8
:1004200004081020408001020408102040800505C7
:100430000505070508080808020202020A0A08085A
:100440000404040401010101010101010303030388
:1004500003030303040707070C0C0C0C0C0C0C0C17
:100460000202020206060606060606060B0B0B0B28
:100470000B0B0B0B000020002300260029002C0092
:100480002F003200000100000301060109010000F5
:100490002200250028002B002E003100340002012C
:1004A0000000050108010B010000210024002700C5
:1004B0002A002D0030003300010100000401070173
:1004C0000A015609281BC02211241FBECFEFD1E21A
:1004D000DEBFCDBF00E00CBF12E0A0E0B2E0EEEF67
:1004E000F1E500E00BBF02C007900D92A03EB107FE
:1004F000D9F721E1A0EEB2E001C01D92A83FB207FA
:10050000E1F714E0C8ECD4E000E006C0229701094E
:10051000FE010BBF0E943D26C23CD10780E00807C8
:10052000A9F70E94080B0C94FD286ACD2F923F92E8
:100530004F925F926F927F928F929F92AF92BF92F3
:10054000CF92DF92EF92FF920F931F93CF93DF939F
:10055000CDB7DEB762970FB6F894DEBF0FBECDBF42
:10056000988B8F875A8B498B812C912C2E018DE093
:10057000480E511C7E876D8746C0F50161917191CF
:10058000819191915F01F7012081318142815381F5
:100590000E94EC1DF80161937193819391938F01F7
:1005A000FCE0EF0EF11C0415150539F72D813E8195
:1005B0004F81588569817A818B819C810E942D1B96
:1005C00029853A854B855C850E942D1BF30161933B
:1005D0007193819391933F01F4E0CF0ED11C8CE095
:1005E000C816D10449F08E010F5F1F4FED84FE84C1
:1005F000EC0CFD1C5101C1CFECE08E0E911CF4E21D
:100600008F16910459F069887A88680C791CC12C7E
:10061000D12C2F843888280C391CE5CF62960FB670
:10062000F894DEBF0FBECDBFDF91CF911F910F9128
:10063000FF90EF90DF90CF90BF90AF909F908F9002
:100640007F906F905F904F903F902F900895AF9262
:10065000BF92CF92DF92EF92FF920F931F93CF93AF
:10066000DF935C01062F172FC3E0D0E0C12CD12C03
:100670007601F50161917191819191915F01F8018C
:1006800021913191419151918F010E94EC1D9B016B
:10069000AC01C701B6010E942D1B6B017C012197A3
:1006A000209739F7DF91CF911F910F91FF90EF9035
:1006B000DF90CF90BF90AF900895AF92BF92CF924E
:1006C000DF92EF92FF920F931F93CF93DF935C0122
:1006D000EB018A01FA0120853185428553856C81C1
:1006E0007D818E819F810E94EC1D6B017C01F80150
:1006F0002481358146815781688579858A859B85E6
:100700000E94EC1D9B01AC01C701B6010E942C1B8D
:10071000F5016083718382839383F80120813181A5
:1007200042815381688579858A859B850E94EC1D6D
:100730006B017C01F80120853185428553856881F4
:1007400079818A819B810E94EC1D9B01AC01C701CC
:10075000B6010E942C1BF501648375838683978301
:10076000F8012481358146815781688179818A81A8
:100770009B810E94EC1D6B017C01F801208131817D
:10078000428153816C817D818E819F810E94EC1D0D
:100790009B01AC01C701B6010E942C1BF5016087CB
:1007A000718782879387DF91CF911F910F91FF907F
:1007B000EF90DF90CF90BF90AF9008958F929F926F
:1007C000AF92BF92EF92FF920F931F93CF93DF935D
:1007D00049015A01062F172F7C01C0E0D0E0F80133
:1007E00061917191819191918F01A50194010E9474
:1007F000EC1DF70161937193819391937F01219691
:10080000C330D10561F7DF91CF911F910F91FF9018
:10081000EF90BF90AF909F908F900895CF92DF920E
:10082000EF92FF920F931F93CF93DF93E62EF72E55
:10083000042F152F6C01C0E0D0E0F7016191719198
:10084000819191917F01F8012191319141915191D3
:100850008F010E942D1BF6016193719381939193F7
:100860006F012196C330D10541F7DF91CF911F91E0
:100870000F91FF90EF90DF90CF90089585EF9EE06D
:100880000C94F01A089542E063E08EE197E00E9434
:10089000500C8EE197E04BD740E263E28EE197E0A7
:1008A00026D74FE060E28EE197E021C708958EE100
:1008B00097E052D740911E0750911F075093D907D8
:1008C0004093D80720912007309121073093DB0710
:1008D0002093DA0780912207909123079093DD07F8
:1008E0008093DC076091CC077091CD07461B570BB6
:1008F000E0914C02F0914D02E49FB001E59F700D34
:10090000F49F700D11247093CB076093CA07409138
:10091000CE075091CF07241B350B60914E0270918A
:100920004F02629FA001639F500D729F500D1124D2
:100930005093C9074093C8072091D0073091D10741
:10094000821B930B4091500250915102489F90019D
:10095000499F300D589F300D11243093C7072093C5
:10096000C607089542E064E088EF96E00E94F31124
:1009700088EF96E00E94111180911107823049F0B2
:10098000833071F448E161E288EF96E00C9407113E
:10099000089548E263E288EF96E00C940711089509
:1009A00040E363E288EF96E00C940711089588EF26
:1009B00096E00E944E114091F8065091F906559527
:1009C0004795559547955595479555954795509316
:1009D000DF074093DE072091FA063091FB0635953C
:1009E00027953595279535952795359527953093F6
:1009F000E1072093E0078091FC069091FD06959514
:100A000087959595879595958795959587959093D5
:100A1000E3078093E2076091D2077091D307461BEA
:100A2000570BE0915202F0915302E49FB001E59F11
:100A3000700DF49F700D11247093C5076093C40767
:100A40004091D4075091D507241B350B6091540277
:100A500070915502629FA001639F500D729F500DCF
:100A600011245093C3074093C2072091D6073091B9
:100A7000D707821B930B4091560250915702489F13
:100A80009001499F300D589F300D11243093C107BC
:100A90002093C0070895CF92DF92EF92FF92CF93F9
:100AA000DF93CDB7DEB7A4970FB6F894DEBF0FBEC5
:100AB000CDBF60E372E084E292E0C9DD905820E0AF
:100AC00030E040E05FE30E94EC1D6B017C019B0184
:100AD000AC0160E372E0CE01019670DEA7019601E1
:100AE00064E272E0CE010D9669DE44E252E0BE019E
:100AF0006F5F7F4FCB0192DE40E352E0BE01635F48
:100B00007F4FCB018BDEAE01435F5F4FBE016F5F56
:100B10007F4FCE014996D1DDBE016F5F7F4FCB0184
:100B200096DD9B01AC0160E070E080E490E40E94FF
:100B30002C1B20E030E040E05FE30E94EC1D9B01B5
:100B4000AC01BE016F5F7F4F84E292E037DEBE01F1
:100B5000635F7F4FCB017BDD9B01AC0160E070E008
:100B600080E490E40E942C1B20E030E040E05FE352
:100B70000E94EC1D9B01AC01BE01635F7F4F80E3CF
:100B800092E01CDEBE01675E7F4FCB0160DD9B0102
:100B9000AC0160E070E080E490E40E942C1B20E057
:100BA00030E040E05FE30E94EC1D9B01AC01BE0120
:100BB000675E7F4F8CE392E001DEA4960FB6F89457
:100BC000DEBF0FBECDBFDF91CF91FF90EF90DF90E2
:100BD000CF9008954F925F926F927F928F929F92E3
:100BE000AF92BF92CF92DF92EF92FF926091B007E7
:100BF0007091B1078091B2079091B3078090B407CC
:100C00009090B507A090B607B090B707C090B8070E
:100C1000D090B907E090BA07F090BB079B01AC01F8
:100C20000E94EC1D2B013C01A5019401C501B401FA
:100C30000E94EC1D9B01AC01C301B2010E942D1B5F
:100C40004B015C01A7019601C701B6010E94EC1D92
:100C50009B01AC01C501B4010E942D1B0E94A51E81
:100C600020E030E040E85BE30E94EC1D9B01AC011A
:100C700060E070E080E89FE30E942C1B6B017C0128
:100C800020E030E0A9010E94E11D1816B4F4A7018C
:100C90009601C701B6010E942D1B9B01AC0160E0CB
:100CA00070E080E89FE30E942C1B20E030E0A90167
:100CB0000E940A1C882304F55AC0A7019601C701A7
:100CC000B6010E942D1B20E030E040E85FE30E9467
:100CD0002D1B4B015C0120E030E0A9010E940A1CA1
:100CE00088230CF448C020E030E0A901C701B60118
:100CF0000E94E11D1816BCF4A7019601C701B601B8
:100D00000E942D1B9B01AC0160E070E080E89FE336
:100D10000E942C1B20E030E040E85FE30E94E11DD0
:100D200018166CF113C020E030E040E85FE3C50125
:100D3000B4010E94E11D18165CF120E030E0A90129
:100D4000C701B6010E94E11D181654F5A7019601CE
:100D5000C701B6010E942D1B9B01AC0160E070E051
:100D600080E89FE30E942C1B4B015C0119C0812C81
:100D7000912C540115C0812C912C540111C00F2EBF
:100D8000812C912CF0E8AF2EFFE3BF2EF02D08C090
:100D90000F2E812C912CF0E8AF2EFFE3BF2EF02D0B
:100DA0004CE352E060EB77E08CE597E086DC2AE0EC
:100DB00037ED43EA5CE3C501B4010E94EC1D9B01E1
:100DC000AC016CE577E08CE897E0F8DC2CEA35ECD8
:100DD00047EA57E3C501B4010E94EC1D9B01AC0139
:100DE0006CE577E08CEE92E0E9DC4CEE52E060E8F6
:100DF00077E0CB0113DDC090BC07D090BD07E09039
:100E0000BE07F090BF07C701B6010E940E1C4B0140
:100E10005C01C701B6010E949B1E20912402309103
:100E2000250240912602509127020E94EC1D6B0181
:100E30007C01209130023091310240913202509178
:100E40003302C501B4010E94EC1D9B01AC01C70136
:100E5000B6010E942C1B9B01AC016CE372E080E5A3
:100E600097E0ACDC2AE939E949E95FE360E577E03E
:100E700080EE92E0A3DC40EE52E06CE877E0CB013C
:100E8000CDDC2CEA35EC47EA57E360E577E08CEE01
:100E900092E094DC4CEE52E060E877E0CB01BEDCFF
:100EA000FF90EF90DF90CF90BF90AF909F908F908A
:100EB0007F906F905F904F9008954F925F926F92E6
:100EC0007F928F929F92AF92BF92CF92DF92EF92DA
:100ED000FF920F931F93CF93DF9300D01F92CDB754
:100EE000DEB76091CA077091CB07882777FD8095A0
:100EF000982F0E94A71C29E732E240EA5AE30E9499
:100F0000EC1D6093A4077093A5078093A6079093A8
:100F1000A7076091C8077091C907882777FD80955A
:100F2000982F0E94A71C29E732E240EA5AE30E9468
:100F3000EC1D6093A8077093A9078093AA0790936C
:100F4000AB076091C6077091C707882777FD80952A
:100F5000982F0E94A71C29E732E240EA5AE30E9438
:100F6000EC1D6093AC077093AD078093AE07909330
:100F7000AF076091C4077091C507882777FD8095FA
:100F8000982F0E94A71C6093B0077093B1078093BD
:100F9000B2079093B3076091C2077091C307882787
:100FA00077FD8095982F0E94A71C6093B4077093DB
:100FB000B5078093B6079093B7076091C00770910B
:100FC000C107882777FD8095982F0E94A71C609302
:100FD000B8077093B9078093BA079093BB0740E8AE
:100FE00057E064EA77E084E797E018DC4CE857E0E4
:100FF00064E777E088E997E011DC10920002109234
:1010000001021092020210920302C0904802D09096
:101010004902E0904A02F0904B0246015701B7FAAC
:10102000B094B7F8B0944090A0075090A10760909A
:10103000A2077090A307A3019201C501B4010E9409
:10104000EC1D609304027093050280930602909356
:10105000070280919C0790919D07A0919E07B091F7
:101060009F0789839A83AB83BC839C01AD01C70131
:10107000B6010E94EC1D60930802709309028093F0
:101080000A0290930B02A3019201C701B6010E94CC
:10109000EC1D60930C0270930D0280930E029093EE
:1010A0000F0210921002109211021092120210926E
:1010B0001302409098075090990760909A0770909B
:1010C0009B07A3019201C501B4010E94EC1D60932E
:1010D00014027093150280931602909317022981CF
:1010E0003A814B815C81C501B4010E94EC1D609383
:1010F00018027093190280931A0290931B02A301A5
:101100009201C701B6010E94EC1D60931C0270930E
:101110001D0280931E0290931F02109220021092D3
:10112000210210922202109223024AE257E060E06C
:1011300072E084E292E0FAD9C12CD12CA12CB12C1E
:1011400021C0D8012D913D914D915D918D01F4010A
:1011500060817181828193810E942D1BD4016D93E6
:101160007D938D939D934D01BFEFEB1AFB0AE3E056
:10117000EE16F10431F7FCE0CF0ED11C84E2C81664
:10118000D10451F0D601AC5DBD4F4D018601065D25
:10119000184FEA2CFB2CD5CF0F900F900F900F908B
:1011A000DF91CF911F910F91FF90EF90DF90CF9043
:1011B000BF90AF909F908F907F906F905F904F9077
:1011C000089560913C0270913D0280913E029091A1
:1011D0003F020E94911BDC01CB01B05880936C0749
:1011E00090936D07A0936E07B0936F072091440210
:1011F0003091450240914602509147026091400271
:101200007091410280914202909143020E94B71B6B
:1012100060937007709371078093720790937307C0
:1012200020912402309125024091260250912702FC
:1012300060913002709131028091320290913302BC
:101240000E94B71B609368077093690780936A07D1
:1012500090936B07089586E30E94FB24BC018827C6
:1012600077FD8095982F0E94A71C20E030E040EA8F
:101270005BE30E94EC1D6093EE077093EF07809391
:10128000F0079093F10728E431EE4AE95FEB0E9402
:101290004F1E21E73DE348E552E40E94EC1D0E9409
:1012A000791C7093ED076093EC0708952CE231E010
:1012B00047E166E182EF97E00E94CF122CE231E035
:1012C00049E168E184E098E00E94CF122CE231E02D
:1012D0004BE16AE186E198E00E94CF122CE231E016
:1012E0004DE16CE188E298E00E94CF122CE231E0FF
:1012F0004FE16EE18AE398E00E94CF128EE197E021
:10130000EFD188EF96E0EEC30895BC018DEA9FE02F
:101310000E94E5238DEA9FE00C942C200895CF9342
:10132000DF93CDB7DEB7FE01369661917191AF01C3
:1013300088EF92E00E94412688EF92E0E6DFDF919D
:10134000CF910895CEE9D2E084E690E00E948E1716
:1013500082DF88EF96E0E7D69F938F937F936F931A
:1013600021EE3EE245E652E460916807709169071C
:1013700080916A0790916B070E94EC1D9F938F9359
:101380007F936F9321EE3EE245E652E460916C0755
:1013900070916D0780916E0790916F070E94EC1D10
:1013A0009F938F937F936F9321EE3EE245E652E445
:1013B0006091700770917107809172079091730727
:1013C0000E94EC1D9F938F937F936F93DF93CF9336
:1013D000A6DF0E943F24C090E807D090E907E09084
:1013E000EA07F090EB07AB01BC014C195D096E09EF
:1013F0007F098DB79EB742960FB6F8949EBF0FBE79
:101400008DBF423351056105710508F49DCF2091D0
:101410004E0730914F072F5F3F4F30934F07209378
:101420004E07C092E407D092E507E092E607F092FB
:10143000E7070E943F246093E8077093E9078093D1
:10144000EA079093EB070091E4071091E5072091DC
:10145000E6073091E7070617170728073907ACF4A6
:10146000601B710B820B930B0E94A71C20E030E0E5
:101470004AE754E40E94111C6093480270934902A9
:1014800080934A0290934B0208C010924802109237
:10149000490210924A0210924B0280914E0790919D
:1014A0004F07069720F010924F0710924E0705DD68
:1014B000F2DA90DB86DE48CF8F929F92AF92BF9296
:1014C000CF92DF92EF92FF920F931F93CF93DF9310
:1014D00040E052EC61E070E08DEA9FE00E943D2226
:1014E00061E08DE00E947F25C9D98EEA92E09F934A
:1014F0008F9315DF37DAC7D964E170E080E090E0C0
:101500000E9471240F900F9000E210E00F2EF8ED72
:10151000EF2EF7E0FF2EF02DCCECD7E00F2EF4EEFF
:10152000AF2EF7E0BF2EF02DC2D941DAD7018C2EB5
:101530009D2EFE018D919D9120813181820F931FFF
:1015400081939193AA15BB05A9F764E170E080E04F
:1015500090E00E947124015011090115110521F735
:1015600028ED37E0E82DF92DDF0180819181992365
:101570000CF44F96959587959595879595958795B4
:1015800095958795959587958D939C933296E217BF
:10159000F30751F7E6EDF7E080915602D82EC12C03
:1015A000808191818C199D099183808360ED77E022
:1015B00080E090E00E94712461E08DE00E94BD25F2
:1015C0000E943F246093E8077093E9078093EA073D
:1015D0009093EB0764E170E080E090E00E9471245A
:1015E00010924F0710924E0781EB92E09F938F93DA
:1015F00096DE0F900F90DF91CF911F910F91FF908A
:10160000EF90DF90CF90BF90AF909F908F90089514
:10161000AF92BF92CF92DF92EF92FF920F93CF9350
:10162000DF931F921F92CDB7DEB70E94992444DF4B
:10163000A12CB12CC12CD12CCE0101967C0105E04E
:1016400020E030E040E850E064EB72E082EA99E0AC
:101650000E9418150E94201680E090E00F900F90D5
:10166000DF91CF910F91FF90EF90DF90CF90BF90DF
:10167000AF900895CF93DF93EC010E9449168091BB
:101680004C0890914D08892B31F481E598E09093B6
:101690004D0880934C0840914E0850914F089E0190
:1016A000240F351F2B3D85E0380770F44217530790
:1016B00070F4C0914C08D0914D08C40FD51F3093E1
:1016C0004F0820934E0805C0C0E0D0E002C0C0E043
:1016D000D0E00E940D17CE01DF91CF9108950895BB
:1016E000FC0183E0878312861186138608950F9389
:1016F0001F93CF93DF93EC01062F142F688585EF9E
:101700009EE00E94091B602F85EF9EE00E94B01AA8
:10171000612F85EF9EE00E94B01A85EF9EE00E9447
:10172000251B8E83DF91CF911F910F910895CF9349
:10173000DF93EC018F81823021F440E069E3CE0138
:10174000D6DF40E063E2CE01D2DF4FE660E2CE01B9
:10175000CEDFDF91CF9108959F92AF92BF92CF924B
:10176000DF92EF92FF920F931F93CF93DF93EC01E1
:10177000688585EF9EE00E94091BE091F50EF091CF
:10178000F60E0190F081E02D68EA85EF9EE0199554
:1017900085EF9EE00E94251B46E0688585EF9EE070
:1017A0000E94061B0E943F248B0110C089859A85E8
:1017B000892B61F00E943F24601B710B89859A85FB
:1017C0008617970718F481E08B8732C085EF9EE07B
:1017D0000E94561A069754F385EF9EE00E945E1A07
:1017E000A82E85EF9EE00E945E1A982E85EF9EE05F
:1017F0000E945E1A082F85EF9EE00E945E1AB82EA6
:1018000085EF9EE00E945E1A182F85EF9EE00E94F1
:101810005E1AD92CC12CCA28D982C882FB2CE12C93
:10182000E02AFB82EA82982F8827812B9D838C8374
:10183000DF91CF911F910F91FF90EF90DF90CF90AC
:10184000BF90AF909F900895CF93DF93C62FD42F72
:1018500085EF9EE00E94091B6D2F85EF9EE00E94A0
:10186000B01A85EF9EE00E94251B811111C041E056
:101870006C2F85EF9EE00E94061B85EF9EE00E9484
:10188000561A892B41F085EF9EE00E945E1A05C032
:101890008FEF9FEF02C08FEF9FEFDF91CF91089501
:1018A0000F931F93CF93DF93EC01162F042F633018
:1018B00009F456C04230C9F556C0133009F058C07B
:1018C000873D910509F458C001E011E02CC00130BA
:1018D00091F04FE06AE6CE01B7DF8F3F2FEF92071E
:1018E00051F0133009F046C0873D910509F047C01B
:1018F00000E012E018C0133011F0111114C00023E1
:1019000049F04FE069E6CE019FDF833D9105D1F1BB
:10191000013039F04FE068E6CE0196DF833D910556
:1019200099F11330B9F00230B9F01F83112351F04F
:101930001330A0F4013011F48BE601C08AE68887E9
:1019400081E041C0013011F489E601C088E6888752
:1019500081E039C080E037C080E035C081E033C02D
:10196000442341F11EC08FEF860F833030F60FC045
:1019700001E0C3CF00E0C1CF01E012E0D4CF00E02E
:1019800011E0D1CF01E001C000E01F82DBCF4FE0CA
:101990006BE6CE0159DF8F3F2FEF920709F08DCF15
:1019A00098CF4FE06BE650DF8F3F2FEF920709F0A3
:1019B00087CF8DCF4FE06AE647DF8F3F2FEF92074B
:1019C00009F092CF98CFDF91CF911F910F91089599
:1019D000FC010396928381832FEF3FEF34832383AF
:1019E000968385839087878310820895FC011186F2
:1019F00010860895CF93DF939C01FB01DC011196C3
:101A0000CD91DC911297D383C2838C819D81958384
:101A100084838C819D81DC0113967C936E93129755
:101A20007D836C8331872087F90180818F5F80837C
:101A3000DF91CF910895CF93DF93EB0148815981D6
:101A40004F3F2FEF520721F4FC01A781B0850DC055
:101A5000DC0113961296ED91FC9113972081318150
:101A60004217530710F0DF01F5CF1296ED91FC916C
:101A70001397FB83EA83D583C483BD83AC8313961A
:101A8000DC93CE93129799878887FC0120812F5F82
:101A90002083DF91CF910895CF93DF93FC01A08540
:101AA000B185C281D381848195819D838C83C481DA
:101AB000D581828193819B838A831196CD91DC911C
:101AC0001297CE17DF0731F48C819D8112969C937B
:101AD0008E931197118610868C9181508C93DF9193
:101AE000CF910895CF93DF93EC0186E0E1E6F2E039
:101AF000DE01529601900D928A95E1F786E0E7E6C5
:101B0000F2E0DE011C9601900D928A95E1F784E0E7
:101B1000898F1CA21BA21DA2DF91CF9108954F9225
:101B20005F926F927F928F929F92AF92BF92CF926D
:101B3000DF92EF92FF920F931F93CF93DF9300D02A
:101B40001F92CDB7DEB78C01DC014D905D906D909A
:101B50007C90139714968D909D90AD90BC901797A4
:101B600018968D919D910D90BC91A02D89839A839B
:101B7000AB83BC83A3019201C301B2010E94EC1D9F
:101B80006B017C01A5019401C501B4010E94EC1D0B
:101B90009B01AC01C701B6010E942D1B6B017C01AA
:101BA00029813A814B815C81CA01B9010E94EC1DF7
:101BB0009B01AC01C701B6010E942D1B0E94A51E0E
:101BC0006B017C019B01AC01C301B2010E94111C9D
:101BD000F8016083718382839383A7019601C50115
:101BE000B4010E94111CD80114966D937D938D93BE
:101BF0009C931797A701960169817A818B819C81BB
:101C00000E94111CF80160877187828793870F906B
:101C10000F900F900F90DF91CF911F910F91FF9038
:101C2000EF90DF90CF90BF90AF909F908F907F907C
:101C30006F905F904F9008954F925F926F927F9256
:101C40008F929F92AF92BF92CF92DF92EF92FF92CC
:101C50000F931F93CF93DF93CDB7DEB7AA970FB63D
:101C6000F894DEBF0FBECDBF8C01298F3A8F4B8F0A
:101C70005C8F6D8F7E8FDC011696CD90DC90179770
:101C8000EE24D7FCE094FE2C52964D915C91539734
:101C9000662757FD6095762F1C968D919C911D9718
:101CA000AA2797FDA095BA2F480F591F6A1F7B1FBF
:101CB000DB01CA0177231CF40196A11DB11DB59566
:101CC000A79597958795A7019601281B390B4A0B75
:101CD0005B0B2F8F38A349A35AA3D8011896CD9038
:101CE000DC901997EE24D7FCE094FE2C54964D918D
:101CF0005C915597662757FD6095762F1E968D91BE
:101D00009C911F97AA2797FDA095BA2F480F591F9E
:101D10006A1F7B1FDB01CA0177231CF40196A11DFA
:101D2000B11DB595A79597958795A7019601281B95
:101D3000390B4A0B5B0B2BA33CA34DA35EA3D8012D
:101D40001A964D905C901B97662457FC6094762CF5
:101D500056964D915C915797662757FD6095762F63
:101D600050968D919C915197AA2797FDA095BA2FD7
:101D7000480F591F6A1F7B1FDB01CA0177231CF420
:101D80000196A11DB11DB595A79597958795481A00
:101D9000590A6A0A7B0AF80184809580AA2497FC74
:101DA000A094BA2C828193819C01442737FD4095F1
:101DB000542F2FA338A749A75AA72BA13CA14DA167
:101DC0005EA1C501B4010E94ED256B017C01A30158
:101DD00092016FA178A589A59AA50E94ED25A7017A
:101DE0009601261B370B480B590BCA01B9010E94FB
:101DF000A71C6D877E878F87988BD801CD90DC904C
:101E0000EE24D7FCE094FE2CA3019201C701B60199
:101E10000E94ED252B013C012F8D38A149A15AA12B
:101E2000C501B4010E94ED25A3019201261B370BC9
:101E3000480B590BCA01B9010E94A71C698B7A8B08
:101E40008B8B9C8B2F8D38A149A15AA16FA178A5AE
:101E500089A59AA50E94ED254B015C012BA13CA10F
:101E60004DA15EA1C701B6010E94ED25A501940117
:101E7000261B370B480B590BCA01B9010E94A71C3E
:101E80006D8B7E8B8F8B988FCE010D9648DED8019F
:101E900012966D917C911397882777FD8095982FE6
:101EA0000E94A71C6B017C012D893E894F89588DAA
:101EB0002F8F38A349A35AA3D80114966D917C9112
:101EC0001597882777FD8095982F0E94A71C2B01D6
:101ED0003C0129893A894B895C892BA33CA34DA3FA
:101EE0005EA32F8D38A149A15AA1C701B6010E9456
:101EF000EC1D4B015C012BA13CA14DA15EA1C301D6
:101F0000B2010E94EC1D9B01AC01C501B4010E940D
:101F10002C1B69837A838B839C838D859E85AF85FB
:101F2000B8898FA398A7A9A7BAA7D8016D917C916A
:101F3000882777FD8095982F0E94A71C4B015C0194
:101F40002FA138A549A55AA5C301B2010E94EC1DD5
:101F50002B013C01A50194016F8D78A189A19AA163
:101F60000E94EC1D9B01AC01C301B2010E942C1B1D
:101F70006D837E838F839887A50194016BA17CA1DB
:101F80008DA19EA10E94EC1D4B015C012FA138A5E3
:101F900049A55AA5C701B6010E94EC1D9B01AC01E1
:101FA000C501B4010E942C1B69877A878B879C87A7
:101FB000CE010196B4DD698D7A8D882777FD8095F5
:101FC000982F0E94A71C2B013C016B8D7C8D8827CC
:101FD00077FD8095982F0E94A71C4B015C016D8DA9
:101FE0007E8D882777FD8095982F0E94A71C6B0116
:101FF0007C0129813A814B815C81C301B2010E943D
:10200000EC1D6F8F78A389A39AA32D813E814F8108
:102010005885C501B4010E94EC1D9B01AC016F8D78
:1020200078A189A19AA10E942D1B6F8F78A389A303
:102030009AA329853A854B855C85C701B6010E9424
:10204000EC1D9B01AC016F8D78A189A19AA10E9422
:102050002D1B6F8F78A389A39AA32D853E854F856D
:102060005889C301B2010E94EC1D2B013C01298952
:102070003A894B895C89C501B4010E94EC1D9B0122
:10208000AC01C301B2010E942D1B4B015C012D89E3
:102090003E894F89588DC701B6010E94EC1D9B01F6
:1020A000AC01C501B4010E942D1B2F8D38A149A19F
:1020B0005AA10E94B71B20E030E044E353E40E94A1
:1020C000EC1D2BED3FE049E450E40E94111C6B0134
:1020D0007C0120E030E0A9010E940A1C882354F40E
:1020E00020E030E044EB53E4C701B6010E942D1B11
:1020F0006B017C01C701B601AA960FB6F894DEBF4A
:102100000FBECDBFDF91CF911F910F91FF90EF9048
:10211000DF90CF90BF90AF909F908F907F906F9007
:102120005F904F900895CF93DF93CDB7DEB72C9794
:102130000FB6F894DEBF0FBECDBFFC01218D23305A
:1021400079F431E0232F3F8318861A8619861C867E
:102150001B8630E040E05A8560E07C856DDD0EC076
:102160001A8219822FEF422F2B832C831E821D820D
:1021700020E03A815FEF60E07E815EDD2C960FB655
:10218000F894DEBF0FBECDBFDF91CF9108950F93BE
:102190001F93CF93DF93EC01062F142F6A8D85EFE9
:1021A0009EE00E94091B602F85EF9EE00E94B01AFE
:1021B000612F85EF9EE00E94B01A85EF9EE00E949D
:1021C000251B888FDF91CF911F910F9108950F9359
:1021D0001F93CF93DF93EC01062F142F6B8D85EFA8
:1021E0009EE00E94091B602F85EF9EE00E94B01ABE
:1021F000612F85EF9EE00E94B01A85EF9EE00E945D
:10220000251B888FDF91CF911F910F910895FC01BD
:10221000218D233011F0603210F4D9CF0895B7CF5B
:102220000895CF93DF93EC01898D8330A9F440E0CA
:1022300061E2CE01ECDF47E560E2CE01E8DF44E693
:1022400064E2CE01E4DF40E265E2CE01E0DF40E09F
:1022500066E2CE01DCDF1FC0823049F448E063E271
:10226000CE0195DF47E460E2CE0191DF08C040E097
:1022700063E2CE018CDF47E260E2CE0188DF4CE012
:1022800060E0CE01A4DF40E261E0CE01A0DF40E0EB
:1022900062E0CE019CDFDF91CF9108959F92AF92D3
:1022A000BF92CF92DF92EF92FF920F931F93CF9343
:1022B000DF93EC016A8D85EF9EE00E94091BE0919F
:1022C000F50EF091F60E0190F081E02D68EA85EFB1
:1022D0009EE0199585EF9EE00E94251B888F46E0C1
:1022E0006A8D85EF9EE00E94061B0E943F248B01B1
:1022F00010C08BA19CA1892B61F00E943F24601B20
:10230000710B8BA19CA18617970718F481E08DA310
:1023100032C085EF9EE00E94561A069754F385EF6F
:102320009EE00E945E1AA82E85EF9EE00E945E1A33
:10233000982E85EF9EE00E945E1A082F85EF9EE0A2
:102340000E945E1AB82E85EF9EE00E945E1A182F3A
:1023500085EF9EE00E945E1AD92CC12CCA28D98232
:10236000C882FB2CE12CE02AFB82EA82982F882786
:10237000812B9D838C83DF91CF911F910F91FF90D3
:10238000EF90DF90CF90BF90AF909F900895CF9344
:10239000DF93C62FD42F85EF9EE00E94091B6D2F7F
:1023A00085EF9EE00E94B01A85EF9EE00E94251BFB
:1023B000811111C041E06C2F85EF9EE00E94061B49
:1023C00085EF9EE00E94561A892B41F085EF9EE032
:1023D0000E945E1A05C08FEF9FEF02C08FEF9FEF44
:1023E000DF91CF9108950F931F93CF93DF93EC016B
:1023F000162F042F643009F4ADC0423009F047C0F5
:10240000ADC04FE06DE1CE01C2DF8934910509F422
:10241000ABC0013041F04FE06EE1CE01B8DF89344E
:10242000910509F4A3C0143011F0133068F50023AE
:10243000A9F040E269E1CE01AADF019669F014300B
:1024400009F099C04FE06EE1CE01A1DFCC9709F011
:1024500094C001E012E01BC0013099F040E268E155
:10246000CE0195DF019669F0143009F089C04FE084
:102470006EE1CE018CDF11E0CC9709F010E000E0B6
:1024800006C0143009F460C0023009F45FC0198F2F
:10249000113071F108F442C01230C1F0133009F06C
:1024A00057C0013011F48DE101C08EE18B8F8A8F0E
:1024B00088E08E8F89E08D8F8AE088A38BE08F8FF4
:1024C0008CE08AA38DE089A381E064C089E18A8FD2
:1024D0008EE18B8F83E08D8F84E08E8F87E08F8FEE
:1024E00088E088A385E089A386E08AA381E052C0C2
:1024F000013011F489E101C088E18A8F8EE18B8F70
:1025000083E08D8F84E08E8F87E08F8F88E088A3B3
:1025100085E089A386E08AA381E03CC0013011F404
:1025200089E101C088E18A8F8EE18B8F83E08D8FF6
:1025300084E08E8F85E08F8F86E088A387E089A373
:1025400088E08AA381E026C080E024C080E022C029
:1025500081E020C0442309F45ECF53CF8DEF860F76
:10256000823008F062CF0EC001E003C000E001C07D
:1025700001E013E089CF01E08ACF01E010E087CFCE
:1025800000E085CF4FE06DE1CE0101DF8934910598
:1025900079F341CFDF91CF911F910F910895CF93A0
:1025A000DF93DC0170E0FB01E851FC4FE4911496ED
:1025B000EC93149750E0FA01E851FC4FE491159622
:1025C000EC931597625D7B4FFB01849190E0880F3F
:1025D000991F82579B4FFC01C591D4911796DC93AC
:1025E000CE931697FA01E25DFB4F849190E0880F3D
:1025F000991F8C589B4FFC014591549119965C93FF
:102600004E931897FB016491E62FF0E0EE0FFF1F49
:10261000E855FB4F859194911B969C938E931A9746
:102620002F5F3F4F49E3429FC001439F900D11240C
:102630008E38FFE69F0710F08DE89FE61D969C936D
:102640008E931C97DF91CF9108951F920F920FB632
:102650000F9211240BB60F922F933F934F935F93DA
:102660006F937F938F939F93AF93BF93EF93FF935A
:10267000E0912C0EF0912D0E1995FF91EF91BF91E5
:10268000AF919F918F917F916F915F914F913F910A
:102690002F910F900BBE0F900FBE0F901F901895AB
:1026A00031E1FC013083319722E220833197A3E3AB
:1026B000A08331976083319770833197108231976F
:1026C0001082319760E860833197108231971082D1
:1026D00031971082319762E06083319763E06083C5
:1026E000319764E06083319765E06083319766E0FD
:1026F0006083319767E06083319768E0608331974A
:1027000069E06083319760E160833197308331976E
:1027100032E13083319733E13083319734E13083D4
:10272000319735E13083319736E13083319737E1A6
:102730003083319738E13083319739E130833197F5
:1027400030E23083319731E2308331972083319703
:1027500023E220833197408331975083319726E2DB
:102760002083319727E22083319728E22083319715
:1027700029E22083319720E32083319721E32083CE
:102780008997089582E08093B0001092B20096EE8F
:102790009093B3008093700083E08093B100A09188
:1027A000850EB091860ECD91CDBFDD91DEBFFF913C
:1027B000EF91DF91CF91BF91AF919F918F917F91D9
:1027C0006F915F914F913F912F911F910F91FF90CA
:1027D000EF90DF90CF90BF90AF909F908F907F90C1
:1027E0006F905F904F903F902F901F900F900CBE76
:1027F0000F900BBE0F900FBE0F90089581E00895CB
:102800000F920FB6F8940F920BB60F920CB60F9270
:102810001F9211242F923F924F925F926F927F925C
:102820008F929F92AF92BF92CF92DF92EF92FF92E0
:102830000F931F932F933F934F935F936F937F93C8
:102840008F939F93AF93BF93CF93DF93EF93FF93B8
:10285000A091850EB091860E0DB60D920EB60D921A
:10286000B2D3A091850EB091860ECD91CDBFDD91F2
:10287000DEBFFF91EF91DF91CF91BF91AF919F911B
:102880008F917F916F915F914F913F912F911F9108
:102890000F91FF90EF90DF90CF90BF90AF909F90FF
:1028A0008F907F906F905F904F903F902F901F90F0
:1028B0000F900CBE0F900BBE0F900FBE0F9008959F
:1028C0000F920FB6F8940F920BB60F920CB60F92B0
:1028D0001F9211242F923F924F925F926F927F929C
:1028E0008F929F92AF92BF92CF92DF92EF92FF9220
:1028F0000F931F932F933F934F935F936F937F9308
:102900008F939F93AF93BF93CF93DF93EF93FF93F7
:10291000A091850EB091860E0DB60D920EB60D9259
:10292000BED1811150D3A091850EB091860ECD916C
:10293000CDBFDD91DEBFFF91EF91DF91CF91BF91D0
:10294000AF919F918F917F916F915F914F913F9147
:102950002F911F910F91FF90EF90DF90CF90BF903C
:10296000AF909F908F907F906F905F904F903F902F
:102970002F901F900F900CBE0F900BBE0F900FBEAC
:102980000F9008959DDF1895E0914D0EF0914E0E39
:102990008081811107C08FEF9FEF90935F0280933A
:1029A0005E020895E0914D0EF0914E0E0580F68185
:1029B000E02D0680F781E02D8281938190935F0264
:1029C00080935E020895CF93DF93EC01E091850E32
:1029D000F091860E938382838091350E9091360E0E
:1029E000C817D90760F46091850E7091860E8091AA
:1029F0004B0E90914C0E6E5F7F4F1DD816C06091AC
:102A0000850E7091860E80914D0E90914E0E6E5FE8
:102A10007F4F11D880915E0290915F02C817D9074D
:102A200020F4D0935F02C0935E02DF91CF910895AE
:102A30004F925F926F927F928F929F92AF92BF92CE
:102A4000CF92DF92EF92FF920F931F93CF93DF937A
:102A50004C015B012A01390181E290E00E943A0BAE
:102A6000EC01009709F4DAC0C114D10409F0BFC029
:102A7000C2010E943A0B988F8F8B892B09F0B9C045
:102A8000CE010E946F0BCAC0CF013191DA013D9394
:102A9000AD01DC018C91882311F02150A9F718A217
:102AA000102F043008F013E01E8B5E01B2E0AB0E75
:102AB000B11CC5010E94F60CCE010C960E94F60CCA
:102AC000D987C88784E090E0811B91099D878C8716
:102AD000DB8BCA8BA301B401C601E2DD9983888335
:102AE000E114F10419F0F701D183C0830FB6F89413
:102AF0000F928091370E8F5F8093370E8091850EF5
:102B00009091860E892BA9F5D093860EC093850EE1
:102B10008091370E8130E1F581E69EE00E94E80C5D
:102B20008AE69EE00E94E80C83E79EE00E94E80CA3
:102B30008CE79EE00E94E80C88E59EE00E94E80C8D
:102B40008FE49EE00E94E80C82E49EE00E94E80C84
:102B500089E39EE00E94E80C88E59EE090934E0E8B
:102B600080934D0E8FE49EE090934C0E80934B0E1D
:102B70000FC08091330E81110BC0E091850EF09152
:102B8000860E8689081720F0D093860EC093850E96
:102B900080912F0E8F5F80932F0E8E899091340E2F
:102BA000981710F48093340E90E09C01220F331F8D
:102BB000220F331F220F331F820F931FB5018F592E
:102BC000914F0E94FA0C0F900FBE8091330E882314
:102BD00051F0E091850EF091860E8689801728F4D9
:102BE0000FDE81E01CC081E01AC081E018C0D88EE1
:102BF000CF8AF1E04F1A5108CF88D88CC40CD51C6D
:102C0000D5018C91898F8C91882309F448CFAE012E
:102C1000465E5F4FF501319627E036CF8FEFDF91AB
:102C2000CF911F910F91FF90EF90DF90CF90BF90C9
:102C3000AF909F908F907F906F905F904F9008958E
:102C4000AF92BF92CF92DF92EF92FF920F93A12C9F
:102C5000B12CC12CD12CE12CF12C00E020E030E093
:102C600045E550E06BEB72E08AEA97E1E1DE813006
:102C700041F4F8948093330E1092360E1092350E74
:102C800081DD0F91FF90EF90DF90CF90BF90AF90DC
:102C9000089580912E0E8F5F80932E0E0895CF920F
:102CA000DF92EF92FF920F931F93CF93DF93809168
:102CB0002E0E811199C08091350E9091360E01969D
:102CC0009093360E8093350EE090350EF090360ED0
:102CD000E114F104B1F480914D0E90914E0E2091CB
:102CE0004B0E30914C0E30934E0E20934D0E909320
:102CF0004C0E80934B0E8091300E8F5F8093300E80
:102D000043DE80915E0290915F02E816F90608F4B6
:102D100054C0D12CCC24C39401C0DC2CE0914D0EC6
:102D2000F0914E0E8081811107C08FEF9FEF90933D
:102D30005F0280935E0242C0E0914D0EF0914E0E14
:102D40000580F681E02DC681D7812A813B81E2167C
:102D5000F30628F430935F0220935E022FC08E01A9
:102D60000E5F1F4FC8010E944C0D8C899D89892BD5
:102D700021F0CE010C960E944C0D2E898091340ECC
:102D8000821710F42093340E30E0C901880F991F88
:102D9000880F991F880F991F820F931FB8018F59B1
:102DA000914F0E94FA0CE091850EF091860E9E895B
:102DB0008689981708F0B1CFB1CFD12CE091850E5C
:102DC000F091860E868990E0FC01EE0FFF1FEE0F5A
:102DD000FF1FEE0FFF1F8E0F9F1FFC01EF59F14FDA
:102DE0008081823040F409C08091320E8F5F8093E1
:102DF000320ED12C02C0DD24D3948091310E882371
:102E000011F0DD24D3948D2DDF91CF911F910F917F
:102E1000FF90EF90DF90CF900895DF92EF92FF92B6
:102E20000F931F93CF93DF930FB6F8940F92809177
:102E30002E0E815080932E0E80912E0E81115FC038
:102E40008091370E882309F45CC00F2EF2E4EF2E38
:102E5000FEE0FF2EF02DDD24D39430C0E091470E2C
:102E6000F091480EC681D781CE010C960E944C0D80
:102E70008E010E5F1F4FC8010E944C0D8E899091EC
:102E8000340E981710F48093340E90E09C01220FBA
:102E9000331F220F331F220F331F820F931FB801DE
:102EA0008F59914F0E94FA0CE091850EF091860E99
:102EB0009E898689981710F0D092310EF701808193
:102EC0008111CCCF8091320E882391F08091320E07
:102ED000882371F0C1E0E3DE8111C093310E80914F
:102EE000320E81508093320E8091320E8111F3CFD9
:102EF0008091310E813039F483DC81E005C080E0BF
:102F000003C080E001C080E00F900FBEDF91CF9141
:102F10001F910F91FF90EF90DF900895CF93DF9373
:102F2000EC01009799F0B5DE8091350E9091360E48
:102F3000C80FD91F8091850E9091860E02960E942F
:102F40004C0DCE0140DD69DF811101C059DCDF91FC
:102F5000CF9108950F2EF1E6EF2EFEE0FF2EF02D1B
:102F6000C9E3DEE026C095DE188157DF112309F1A1
:102F70000FB6F8940F92E0913E0EF0913F0E06814D
:102F80001781C80102960E944C0D8091370E815026
:102F90008093370E8091380E81508093380E0F90B9
:102FA0000FBEF8018789908D0E946F0BC8010E94A7
:102FB0006F0B8091380E8111D6CFF701808182305E
:102FC000C0F31EDCF6CF80912E0E882321F081E025
:102FD0008093310E08951092310E8091340E90E05E
:102FE000FC01EE0FFF1FEE0FFF1FEE0FFF1F8E0FF6
:102FF0009F1FFC01EF59F14F8081811117C0809113
:10300000340E81508093340E8091340E90E0FC0198
:10301000EE0FFF1FEE0FFF1FEE0FFF1F8E0F9F1F04
:10302000FC01EF59F14F8081882349F3E091340E80
:10303000F0E0CF01880F991F880F991F880F991F03
:10304000E80FF91FEF59F14FA181B28112960D904F
:10305000BC91A02DB283A183CF010396A817B90715
:1030600031F412968D919C91139792838183018004
:10307000F281E02D868197819093860E8093850E54
:1030800008951092F40E81E08093F20E1092F10EEA
:1030900061E084E10E94BD2561E085E10E94BD25DB
:1030A000E9EBF0E080818E7F808380818D7F80835B
:1030B00088E48093B80085E48093BC000895413291
:1030C00008F045C09091F40E9111FCCF91E09093DF
:1030D000F40E2093F20E2FEF2093870E1092CC0E59
:1030E000240F2093CB0E9093F30E9091F30E880F44
:1030F000892B8093F30E8091F10E813051F4109260
:10310000F10E8091F30E8093BB0085EC8093BC00A0
:1031100003C085EE8093BC008091F40E8130E1F312
:103120008091CC0E841710F44091CC0E442389F08A
:10313000EDECFEE0A62FB72F2FEF240F30E0225347
:10314000314F91919D93E217F307D9F704C080E0C6
:103150000895842F0895842F08950F93413208F025
:1031600050C09091F40E9111FCCF92E09093F40E28
:103170000093F20E9FEF9093870E1092CC0E409327
:10318000CB0E442369F0FB01ADECBEE06F5F7F4FD7
:103190004150640F711D91919D93E617F707D9F780
:1031A0001092F30E9091F30E880F892B8093F30EFB
:1031B0008091F10E813051F41092F10E8091F30E56
:1031C0008093BB0085EC8093BC0003C085EE8093A8
:1031D000BC00222341F08091F40E823021F48091D2
:1031E000F40E8230E1F38091870E8F3F61F0809181
:1031F000870E803251F08091870E803341F483E056
:1032000007C081E005C080E003C082E001C084E027
:103210000F9108956132A8F42091F40E243099F4AE
:103220006093A90E662389F0FC01ABEABEE001962B
:103230006150860F911D21912D93E817F907D9F759
:1032400006C081E0089582E0089580E0089580E05E
:10325000089585ED8093BC00ECEBF0E0808184FD67
:10326000FDCF1092F40E089585EC8093BC0010926F
:10327000F40E08951F920F920FB60F9211240BB601
:103280000F922F933F934F935F936F937F938F93FF
:103290009F93AF93BF93EF93FF938091B900887F83
:1032A00090E0893C910508F0EEC0FC01EE58FF4F1C
:1032B0000C941E268091F30E8093BB0085EC8093C6
:1032C000BC00E1C09091CC0E8091CB0E981780F499
:1032D000E091CC0E81E08E0F8093CC0EF0E0E353B2
:1032E000F14F80818093BB0085EC8093BC00CBC004
:1032F0008091F20E882311F0ACDFC5C081E080938D
:10330000F10E84EA8093BC001092F40EBCC080E2FF
:103310008093870E9EDFB7C080E38093870E99DF8E
:10332000B2C088E38093870E9FDFADC0E091CC0EE2
:1033300081E08E0F8093CC0E8091BB00F0E0E353D0
:10334000F14F80839091CC0E8091CB0E981720F492
:1033500085EC8093BC0097C085E88093BC0093C047
:10336000E091CC0E81E08E0F8093CC0E8091BB005B
:10337000F0E0E353F14F80838091F20E882311F047
:1033800068DF81C081E08093F10E84EA8093BC0005
:103390001092F40E78C05DDF76C083E08093F40E67
:1033A0001092880E85EC8093BC006DC08091880ED1
:1033B000803280F4E091880E81E08E0F8093880E39
:1033C0008091BB00F0E0E757F14F808385EC80935C
:1033D000BC0059C085E88093BC0055C08091880E20
:1033E000803230F4E091880EF0E0E757F14F108220
:1033F00030DF6091880E70E0E091ED0EF091EE0EFE
:1034000089E89EE019951092880E2EDF3CC085E871
:103410008093BC0038C084E08093F40E1092AA0E12
:103420001092A90EE091EF0EF091F00E1995809197
:10343000A90E811105C081E08093A90E1092AB0EF8
:10344000E091AA0E81E08E0F8093AA0EF0E0E55580
:10345000F14F80818093BB009091AA0E8091A90EBC
:10346000981720F485EC8093BC000DC085E880930C
:10347000BC0009C085EC8093BC001092F40E03C020
:103480001092870EE6DEFF91EF91BF91AF919F9171
:103490008F917F916F915F914F913F912F910F90FD
:1034A0000BBE0F900FBE0F901F9018958091250FA7
:1034B00090E02091260F821B910908952091260FFC
:1034C0008091250F281750F4E22FF0E0E95DF04FCE
:1034D000808190E02F5F2093260F08958FEF9FEF5C
:1034E0000895E091260F8091250FE81730F4F0E061
:1034F000E95DF04F808190E008958FEF9FEF089590
:103500000895CF92DF92EF92FF920F931F93CF9384
:10351000DF938C017B016A018091010F882399F070
:103520004115510599F0EB01E40EF51E6991D801A2
:10353000ED91FC910190F081E02DC8011995CE1517
:10354000DF05A1F703C0642FC70164DEC601DF9168
:10355000CF911F910F91FF90EF90DF90CF90089542
:10356000CF93DF931F92CDB7DEB769832091010F10
:103570002223E1F02091020F203240F021E030E0E0
:10358000FC013383228380E090E016C08091030F1A
:10359000E82FF0E0EC5FF04F998190838F5F80938C
:1035A000030F8093020F81E090E006C061E0CE013E
:1035B000019630DE81E090E00F90DF91CF91089589
:1035C000FC011382128248EE53E060E070E0448315
:1035D00055836683778384EC92E09183808308959A
:1035E0001092260F1092250F1092030F1092020FC7
:1035F00048CD0895862F413208F040E267E27FE02F
:103600005EDD1092260F8093250F089521E0F2CF02
:10361000089581E08093010F6093240F1092030FAF
:103620001092020F08950F93062F21E04091020F90
:1036300064E07FE08091240F90DD1092030F1092E0
:10364000020F1092010F0F91089561E0ECCF0895E1
:1036500085EF9EE0B5CF08955058BB27AA270ED01E
:1036600065C22ED230F033D220F031F49F3F11F4F6
:103670001EF4EDC10EF4E095E7FBE3C1E92F78D22B
:1036800080F3BA17620773078407950718F071F47F
:103690009EF590C20EF4E0950B2EBA2FA02D0B01D3
:1036A000B90190010C01CA01A0011124FF27591B87
:1036B00099F0593F50F4503E68F11A16F040A22F8D
:1036C000232F342F4427585FF3CF469537952795FE
:1036D000A795F0405395C9F77EF41F16BA0B620BFD
:1036E000730B840BBAF09150A1F0FF0FBB1F661F44
:1036F000771F881FC2F70EC0BA0F621F731F841F87
:1037000048F4879577956795B795F7959E3F08F0AC
:10371000B3CF9395880F08F09927EE0F979587956B
:1037200008959F939F77EEE389379E0720F4E6E79D
:10373000F2E0B5D109C046D19058A2EA2AED3FE0A7
:1037400049EC5FE39BDFF2D10F9007FC905808959E
:10375000B7D158F080E891E009F49EEFB8D128F095
:1037600040E851E059F45EEF09C071C123C2E92F6E
:10377000E078FED168F3092E052AC1F32617370732
:103780004807590738F00E2E07F8E02569F0E025C4
:10379000E0640AC0EF6307F8009407FADB01B9019F
:1037A0009D01DC01CA01AD01EF934AD0BFD10AD01F
:1037B0005F91552331F02BED3FE049E450FD49EC9A
:1037C0004CCF0895DF93DD27B92FBF7740E85FE343
:1037D0001616170648075B0710F4D92FF6D19F93EA
:1037E0008F937F936F93EFD2EAE8F2E033D19ED1CB
:1037F0002F913F914F915F91FBD1DD2349F090587C
:10380000A2EA2AED3FE049EC5FE3D0785D2736DF9E
:10381000DF918CC1F2D008F481E0089560D1E39586
:1038200096C10CD083C153D140F04AD130F021F47D
:103830005F3F19F006C15111BEC109C199D198F37A
:103840009923C9F35523B1F3951B550BBB27AA2721
:1038500062177307840738F09F5F5F4F220F331F93
:10386000441FAA1FA9F333D00E2E3AF0E0E830D05F
:1038700091505040E695001CCAF729D0FE2F27D062
:10388000660F771F881FBB1F261737074807AB0730
:10389000B0E809F0BB0B802DBF01FF2793585F4FA5
:1038A0002AF09E3F510568F0CCC085C15F3FECF324
:1038B000983EDCF3869577956795B795F7959F5F6A
:1038C000C9F7880F911D9695879597F90895E1E0BE
:1038D000660F771F881FBB1F621773078407BA071D
:1038E00020F0621B730B840BBA0BEE1F88F7E09578
:1038F000089546D188F09F5790F0B92F9927B75176
:10390000A0F0D1F0660F771F881F991F1AF0BA95A3
:10391000C9F712C0B13081F04DD1B1E008954AC16C
:10392000672F782F8827B85F39F0B93FCCF3869599
:1039300077956795B395D9F73EF4909580957095F6
:1039400061957F4F8F4F9F4F0895E89409C097FB73
:103950003EF490958095709561957F4F8F4F9F4F66
:103960009923A9F0F92F96E9BB279395F6958795AA
:1039700077956795B795F111F8CFFAF4BB0F11F46D
:1039800060FF1BC06F5F7F4F8F4F9F4F16C0882314
:1039900011F096E911C0772321F09EE8872F762F4A
:1039A00005C0662371F096E8862F70E060E02AF08B
:1039B0009A95660F771F881FDAF7880F9695879577
:1039C00097F90895DF93CF931F930F938B01EC0129
:1039D000E7EBF2E03FD0AAD09801AE018B01EC01F9
:1039E00060E070E080E89FE337DEAFD19801AE0180
:1039F0000F911F91CF91DF91FBC0990F0008550FD8
:103A0000AA0BE0E8FEEF16161706E807F907C0F064
:103A100012161306E407F50798F0621B730B840B6C
:103A2000950B39F40A2661F0232B242B252B21F446
:103A300008950A2609F4A140A6958FEF811D811DE6
:103A4000089597F99F6780E870E060E008959FEF20
:103A500080EC0895DF93CF931F930F93FF92EF9223
:103A6000DF927B018C01689405C0DA2EEF01C0D093
:103A7000FE01E894A5912591359145915591AEF3BC
:103A8000EF01FCDDFE019701A801DA9479F7DF90E0
:103A9000EF90FF900F911F91CF91DF9108959F9329
:103AA0008F937F936F93FF93EF939B01AC0194D01F
:103AB000EF91FF91CFDF2F913F914F915F918CC09C
:103AC00000240A94161617061806090608950024FD
:103AD0000A9412161306140605060895B8CF50D09E
:103AE000E8F3E894E0E0BB279F57F0F02AED3FE0D1
:103AF00049EC06C0EE0FBB0F661F771F881F28F02A
:103B0000B23A62077307840728F0B25A620B730B4C
:103B1000840BE3959A9572F7803830F49A95BB0F31
:103B2000661F771F881FD2F7904883C1092E039420
:103B3000000C11F4882352F0BB0F40F4BF2B11F49A
:103B400060FF04C06F5F7F4F8F4F9F4F0895EF93CB
:103B5000E0FF06C0A2EA2AED3FE049EC5FEB8EDD14
:103B6000E5DF0F90039401FC9058EFEDF2E097CF62
:103B700057FD9058440F551F59F05F3F71F047951E
:103B8000880F97FB991F61F09F3F79F08795089503
:103B9000121613061406551FF2CF4695F1DF08C022
:103BA000161617061806991FF1CF8695710561053F
:103BB00008940895E894BB2766277727CB0197F9E7
:103BC00008951BDF08F48FEF08959B01AC0160E0BE
:103BD00070E080E89FE325CE0BD0A8CF71DF28F0FE
:103BE00076DF18F0952309F02CCF31CF1124E3CFE5
:103BF000BFDFA0F3959FD1F3950F50E0551F629F53
:103C0000F001729FBB27F00DB11D639FAA27F00D35
:103C1000B11DAA1F649F6627B00DA11D661F829F5C
:103C20002227B00DA11D621F739FB00DA11D621F41
:103C3000839FA00D611D221F749F3327A00D611D5E
:103C4000231F849F600D211D822F762F6A2F112440
:103C50009F5750408AF0E1F088234AF0EE0FFF1F93
:103C6000BB1F661F771F881F91505040A9F79E3FCA
:103C7000510570F0E6CE9FCF5F3FECF3983EDCF34A
:103C8000869577956795B795F795E7959F5FC1F707
:103C9000FE2B880F911D9695879597F90895FA0147
:103CA000EE0FFF1F30962105310599F16115710561
:103CB00061F48038BFE39B0749F16894903881052F
:103CC00061F08038BFEF9B0741F0992342F5FF3F39
:103CD000E1053105210511F1E8940894E795D90132
:103CE000AA2329F4AB2FBE2FF85FD0F310C0FF5FDB
:103CF00070F4A695E0F7F73950F019F0FF3A38F470
:103D00009F779F930CD00F9007FC905808953EF03A
:103D10009ECE60E070E080E89FE308954FE79F77D4
:103D20005F934F933F932F93D2D02F913F914F9119
:103D30005F9152DF50C09F93D2DE0F9007FCEE5F81
:103D400006CF11F40EF483CE72C01ADFD0F399239C
:103D5000D9F3CEF39F57550B87FF77D00024A0E609
:103D600040EA900180585695979528F4805C660F3C
:103D7000771F881F20F026173707480730F4621B8B
:103D8000730B840B202931294A2BA695179407948D
:103D9000202531254A2758F7660F771F881F20F006
:103DA00026173707480730F4620B730B840B200D7E
:103DB000311D411DA09581F7B901842F9158880FBD
:103DC0009695879508959B01AC0106CF19F40EF0E6
:103DD00038CEF0CE3CCED4DEC8F39638C0F707F824
:103DE0000F92E8942BE33AEA48EB5FE703DF0F9288
:103DF0000F920F924DB75EB70F92A9D0EDEFF2E0A0
:103E000029DE4F915F91EF91FF91E595EE1FFF1F26
:103E100049F0FE57E0684427EE0F441FFA95E1F79A
:103E20004195550B1BD00F9007FECFCE08959F3FB5
:103E300031F0915020F4879577956795B795880F65
:103E4000911D9695879597F9089591505040660F6A
:103E5000771F881FD2F70895F4CDE9CF91DEE8F3FC
:103E60009923D9F3940F511DBBF39150504094F016
:103E700059F0882332F0660F771F881F9150504009
:103E8000C1F79E3F510544F7880F911D9695879580
:103E900097F908955F3FACF0983E9CF0BB2786955C
:103EA00077956795B79508F4B1609395C1F7BB0F07
:103EB00058F711F460FFE8CF6F5F7F4F8F4F9F4F30
:103EC000E3CF79CE0EF0B3CFC2CD6894BACD58DE31
:103ED000C8F39923D1F3C6F3DF93CF931F930F93C6
:103EE000FF92C92FDD2788232AF02197660F771FBD
:103EF000881FDAF720E030E040E85FEB9FE3883985
:103F000020F0803E30F021968F77A7DBE5E2F3E0EA
:103F100003C0A3DBE2E5F3E09DDD8B01BE01EC0114
:103F2000FB2E6F5771097595771F880B990B0FDD65
:103F300028E132E741E35FE35BDEAF2D9801AE019C
:103F4000FF900F911F91CF91DF9198DBEFCDFA0198
:103F5000DC01AA0FBB1F9B01AC01BF5728F422272D
:103F60003327442750781FC0B75188F4AB2F002463
:103F7000469537952795011CA395D2F3002069F04B
:103F8000220F331F441FB395DAF30DD065CB613098
:103F90007105A0E88A07B94630F49B01AC01662799
:103FA000772788279078309621F0208331834283C9
:103FB00053830895FC0124853585F901E05CFF4FAA
:103FC00080819181329620813181805C9F4F821B5C
:103FD000930B8F739078992324F40197806C9F6FD3
:103FE00001960895FC0184859585FC01E05CFF4FF6
:103FF000408151813296208131814217530741F02F
:1040000020813181FC01E20FF31F808190E008954F
:104010008FEF9FEF0895FC0184859585FC01E05C9E
:10402000FF4F4081518132962081318142175307E1
:1040300081F020813181DC01A20FB31F8C9120819E
:1040400031812F5F3F4F2F7333273183208390E0DF
:1040500008958FEF9FEF0895FC0181A1882329F037
:10406000A489B5898C9186FFFBCF11A208951F9377
:10407000CF93DF93EC018E859F85FC01E05CFF4FC1
:104080000190F081E02D3196EF73FF271E2F7F2FD7
:10409000DC01AE5BBF4F212F372F4D915C91119703
:1040A000E417F507C1F3FC01E05CFF4F408151814B
:1040B000FC01E40FF51F6083EE85FF85E05CFF4F98
:1040C00031832083EE89FF89408121E030E0C901FE
:1040D0000F8C02C0880F991F0A94E2F7842B80830B
:1040E00081E089A3EC89FD8980818064808381E0FF
:1040F00090E0DF91CF911F9108951F920F920FB61C
:104100000F9211240BB60F922F933F934F938F93DF
:104110009F93AF93BF93EF93FF938091C00082FD75
:104120001AC04091C6008091EB119091EC1101965C
:104130008F7399272091ED113091EE11821793071B
:1041400061F0EBEEF1E1A081B181A555BE4E4C933B
:104150009183808302C08091C600FF91EF91BF914F
:10416000AF919F918F914F913F912F910F900BBEE7
:104170000F900FBE0F901F9018951F920F920FB6C1
:104180000F9211240BB60F922F933F934F938F935F
:104190009F93AF93BF93EF93FF938091C80082FDED
:1041A0001AC04091CE0080916311909164110196E4
:1041B0008F739927209165113091661182179307AB
:1041C00061F0E3E6F1E1A081B181AD5DBE4E4C93BB
:1041D0009183808302C08091CE00FF91EF91BF91C7
:1041E000AF919F918F914F913F912F910F900BBE67
:1041F0000F900FBE0F901F9018951F920F920FB641
:104200000F9211240BB60F922F933F938F939F938E
:10421000AF93BF93EF93FF932091A7113091A81113
:104220008091A9119091AA112817390731F4E1EC76
:10423000F0E080818F7D808310C0E9EAF1E1A08108
:10424000B181A959BE4E2C918081918101968F73C5
:104250009927918380832093C600FF91EF91BF91AE
:10426000AF919F918F913F912F910F900BBE0F9027
:104270000FBE0F901F9018951F920F920FB60F92BE
:1042800011240BB60F922F933F938F939F93AF936D
:10429000BF93EF93FF9320911F11309120118091D4
:1042A0002111909122112817390731F4E9ECF0E03F
:1042B00080818F7D808310C0E1E2F1E1A081B18136
:1042C000A152BF4E2C918081918101968F739927C5
:1042D000918380832093CE00FF91EF91BF91AF91A6
:1042E0009F918F913F912F910F900BBE0F900FBE1A
:1042F0000F901F9018951F920F920FB60F921124D6
:104300000BB60F922F933F938F939F93AF93BF93CF
:10431000EF93FF932091971030919810809199100E
:1043200090919A102817390731F4E1EDF0E080817F
:104330008F7D808310C0E9E9F0E1A081B181A95AA5
:10434000BF4E2C918081918101968F739927918323
:1043500080832093D600FF91EF91BF91AF919F9101
:104360008F913F912F910F900BBE0F900FBE0F902A
:104370001F9018951F920F920FB60F9211240BB633
:104380000F922F933F938F939F93AF93BF93EF938E
:10439000FF9320910F103091101080911110909187
:1043A00012102817390731F4E1E3F1E080818F7DA5
:1043B000808310C0E1E1F0E1A081B181A153B04F51
:1043C0002C918081918101968F73992791838083AD
:1043D00020933601FF91EF91BF91AF919F918F9103
:1043E0003F912F910F900BBE0F900FBE0F901F901B
:1043F00018958F929F92AF92BF92CF92DF92EF92D9
:10440000FF920F931F93CF93DF93CDB7DEB7FC01DD
:104410001382128288EE93E0A0E0B0E0848395835B
:10442000A683B78384ED92E0918380837587648748
:1044300057874687318B208B138B028BF58AE48A52
:10444000D78AC68AB18EA08E938E828E8889848FF9
:104450008989858F8A89868F8B89878F8C8980A3AC
:10446000DF91CF911F910F91FF90EF90DF90CF9050
:10447000BF90AF909F908F900895CF92DF92EF9270
:10448000FF92CF93DF93EC016A017B01411581EE2E
:1044900058076105710501F1EC89FD8981E090E023
:1044A00008A002C0880F991F0A94E2F7808360E099
:1044B00079E08DE390E0A70196019ED3BA01A901AE
:1044C000415051096109710976956795579547954E
:1044D000411580E15807A0F0EC89FD89108260E861
:1044E00074E88EE190E0A701960186D3BA01A90194
:1044F000415051096109710976956795579547951E
:10450000E889F9895083EA89FB89408319A2EE89F9
:10451000FF89408181E090E09C010C8C02C0220F59
:10452000331F0A94E2F7242B2083EE89FF89408110
:104530009C010D8C02C0220F331F0A94E2F7242B3A
:104540002083EE89FF8940819C010E8C02C0220FDE
:10455000331F0A94E2F7242B2083EE89FF89208100
:104560000F8C02C0880F991F0A94E2F7809582236E
:104570008083DF91CF91FF90EF90DF90CF900895EF
:104580005F926F927F928F929F92AF92BF92CF92E3
:10459000DF92EF92FF920F931F93CF93DF935524F7
:1045A00053945F920F2EF5E06F2EF02D6F920F2E29
:1045B000F7E07F2EF02D7F92D3E0DF93C4E0CF931E
:1045C0000F2EF6EC8F2E912CF02D0F2EF2ECAF2E3D
:1045D000B12CF02D0F2EF1ECCF2ED12CF02D0F2E73
:1045E000F0ECEF2EF12CF02D04EC10E025EC30E097
:1045F00047E651E16BEA71E18DEA9FE0FADE5F92F6
:104600006F927F92DF93CF930F2EFEEC8F2E912C23
:10461000F02D0F2EFAECAF2EB12CF02D0F2EF9EC61
:10462000CF2ED12CF02D0F2EF8ECEF2EF12CF02DFB
:104630000CEC10E02DEC30E04FED50E163E271E165
:104640008BE89FE0D6DE5F926F927F92DF93CF93ED
:104650000F2EF6ED8F2E912CF02D0F2EF2EDAF2EAA
:10466000B12CF02D0F2EF1EDCF2ED12CF02D0F2EE1
:10467000F0EDEF2EF12CF02D04ED10E025ED30E003
:1046800047E550E16BE970E189E69FE0B2DE5F92B9
:104690006F927F92DF93CF930F2EF6E38F2E9924A4
:1046A0009394F02D0F2EF2E3AF2EBB24B394F02D94
:1046B0000F2EF1E3CF2EDD24D394F02D0F2EF0E357
:1046C000EF2EFF24F394F02D04E311E025E331E015
:1046D0004FEC5FE063E170E187E49FE08ADE8DB735
:1046E0009EB744960FB6F8949EBF0FBE8DBFDF9164
:1046F000CF911F910F91FF90EF90DF90CF90BF90DF
:10470000AF909F908F907F906F905F900895CF9221
:10471000DF92EF92FF920F931F93CF93DF936C0181
:1047200041155105B1F0062F172FEA01E12CF12CAC
:10473000D8016D918D01D601ED91FC910190F08130
:10474000E02DC6011995E80EF91E2197209781F7F3
:1047500002C0E12CF12CC701DF91CF911F910F9185
:10476000FF90EF90DF90CF9008956115710581F073
:10477000FB0101900020E9F73197AF01461B570B71
:10478000DC01ED91FC910280F381E02D19950895F3
:1047900080E090E00895DC01ED91FC910190F081C2
:1047A000E02D199508950F931F93CF93DF93EC019C
:1047B0006DE0F1DF8C016AE0CE01EDDF800F911F2B
:1047C000DF91CF911F910F9108950F931F93CF9376
:1047D000DF93EC01CADF8C01CE01E5DF800F911F72
:1047E000DF91CF911F910F9108951F920F920FB6F5
:1047F0000F9211242F933F938F939F93AF93BF9367
:104800008091F0119091F111A091F211B091F311FA
:104810003091EF1123E0230F2D3720F40196A11DD5
:10482000B11D05C026E8230F0296A11DB11D2093DE
:10483000EF118093F0119093F111A093F211B093C6
:10484000F3118091F4119091F511A091F611B091AE
:10485000F7110196A11DB11D8093F4119093F511EC
:10486000A093F611B093F711BF91AF919F918F91E3
:104870003F912F910F900FBE0F901F9018952FB75B
:10488000F8946091F0117091F1118091F211909172
:10489000F3112FBF08953FB7F8948091F4119091D0
:1048A000F511A091F611B091F71126B5A89B05C09E
:1048B0002F3F19F00196A11DB11D3FBFBA2FA92F9F
:1048C000982F8827820F911DA11DB11DBC01CD011C
:1048D000660F771F881F991F660F771F881F991F04
:1048E0000895CF92DF92EF92FF92CF93DF936B0107
:1048F0007C01D1DFEB01C114D104E104F10491F09A
:10490000CADF6C1B7D0B683E734038F081E0C81A2B
:10491000D108E108F108C851DC4FC114D104E10409
:10492000F10471F7DF91CF91FF90EF90DF90CF907E
:104930000895789484B5826084BD84B5816084BD17
:1049400085B5826085BD85B5816085BDEEE6F0E008
:10495000808181608083E1E8F0E010828081826064
:104960008083808181608083E0E8F0E080818160E5
:104970008083E1EBF0E0808184608083E0EBF0E015
:10498000808181608083E1E9F0E0808182608083C2
:10499000808181608083E0E9F0E0808181608083B4
:1049A000E1EAF0E0808182608083808181608083A1
:1049B000E0EAF0E0808181608083E1E2F1E08081E3
:1049C00082608083808181608083E0E2F1E0808189
:1049D00081608083EAE7F0E0808184608083808169
:1049E0008260808380818160808380818068808311
:1049F0001092C1000895863308F08653EBE7F0E08B
:104A00009081282F2870977F922B90838770209118
:104A1000600290E4299F90011124282B20937C00B0
:104A2000EAE7F0E0808180648083808186FDFDCFAD
:104A3000809178002091790090E0922B089590E089
:104A4000FC013197E131F10508F058C0E054FE4F08
:104A5000F5C0E0E8F0E080818F7780830895E0E89A
:104A6000F0E080818F7D8083089584B58F7784BD49
:104A7000089584B58F7D84BD0895E0EBF0E08081DA
:104A80008F7780830895E0EBF0E080818F7D8083D5
:104A90000895E0E9F0E080818F7780830895E0E970
:104AA000F0E080818F7D80830895E0E9F0E08081EF
:104AB000877F80830895E0EAF0E080818F778083AC
:104AC0000895E0EAF0E080818F7D80830895E0EA38
:104AD000F0E08081877F80830895E0E2F1E08081CB
:104AE0008F7780830895E0E2F1E080818F7D80837D
:104AF0000895E0E2F1E08081877F80830895CF937D
:104B0000DF9390E0FC01E851FC4F2491FC01E25D51
:104B1000FB4F8491882371F190E0880F991FFC016D
:104B2000E855FB4FA591B49182579B4FFC01C5916D
:104B3000D49161110BC08FB7F8949C91209592236A
:104B40009C93E8812E2328838FBF14C0623061F4C8
:104B50008FB7F8943C91922F909593239C93E88182
:104B60002E2B28838FBF06C08FB7F894EC912E2B85
:104B70002C938FBFDF91CF9108951F93CF93DF9335
:104B8000C62F282F30E0F901EE55FC4F8491F90132
:104B9000E851FC4F1491F901E25DFB4FD491DD2304
:104BA000C1F081114CDF2D2F30E0F901EE0FFF1F16
:104BB000E257FB4FA591B4918FB7F894C11105C08E
:104BC000EC9110951E231C9303C0EC911E2B1C939B
:104BD0008FBFDF91CF911F910895DB018F939F933A
:104BE00042D0BF91AF91A29F800D911DA39F900DC8
:104BF000B29F900D11240895A1E21A2EAA1BBB1B8F
:104C0000FD010DC0AA1FBB1FEE1FFF1FA217B30798
:104C1000E407F50720F0A21BB30BE40BF50B661FAE
:104C2000771F881F991F1A9469F760957095809572
:104C300090959B01AC01BD01CF010895EE0FFF1FC0
:104C40000590F491E02D1994A29FB001B39FC0018B
:104C5000A39F700D811D1124911DB29F700D811DA8
:104C60001124911D0895F0DFA59F900DB49F900D24
:104C7000A49F800D911D112408950790F691E02DB9
:104C800019940F931F93CF93DF93CDB7DEB72E9771
:104C90000FB6F894DEBF0FBECDBF8C0186E08C83CB
:104CA0001A8309838FEF9FE79E838D83CE01019640
:104CB00010D0EF81F885E00FF11F10822E960FB60D
:104CC000F894DEBF0FBECDBFDF91CF911F910F9142
:104CD00008952F923F924F925F926F927F928F92A0
:104CE0009F92AF92BF92CF92DF92EF92FF920F937B
:104CF0001F93CF93DF93CDB7DEB72C970FB6F89401
:104D0000DEBF0FBECDBF7C016B018A01FC011782A3
:104D10001682838181FFB0C1CE0101964C01F7015B
:104D20009381F60193FD859193FF81916F01882313
:104D300009F49EC1853239F493FD859193FF8191E9
:104D40006F01853221F4B70190E0C7D1E8CF512C33
:104D5000312C20E02032A0F48B3269F030F4803224
:104D600059F0833269F420612CC08D3239F08033E0
:104D700039F4216026C02260246023C0286021C04D
:104D800027FD27C030ED380F3A3078F426FF06C0F3
:104D9000FAE05F9E300D1124532E13C08AE0389E36
:104DA000300D1124332E20620CC08E3221F426FDEA
:104DB0005FC1206406C08C3611F4206802C08836BA
:104DC00041F4F60193FD859193FF81916F0181116B
:104DD000C1CF982F9F7D9554933028F40C5F1F4FBF
:104DE000FFE3F9830DC0833631F0833771F08335EB
:104DF00009F057C021C0F801808189830E5F1F4FE1
:104E000044244394512C540114C03801F2E06F0E35
:104E1000711CF801A080B18026FF03C0652D70E0F1
:104E200002C06FEF7FEFC5012C874CD12C018301AD
:104E30002C852F77222E16C03801F2E06F0E711CE0
:104E4000F801A080B18026FF03C0652D70E002C08C
:104E50006FEF7FEFC5012C872AD12C012C852068AC
:104E6000222E830123FC19C0832D90E04816590699
:104E7000A0F4B70180E290E030D13A94F5CFF5018B
:104E800027FC859127FE81915F01B70190E025D134
:104E900031103A94F1E04F1A51084114510479F756
:104EA000DEC0843611F0893631F5F80127FF07C0DE
:104EB00060817181828193810C5F1F4F08C0608186
:104EC0007181882777FD8095982F0E5F1F4F2F7671
:104ED000B22E97FF09C090958095709561957F4F90
:104EE0008F4F9F4F2068B22E2AE030E0A40127D1D7
:104EF000A82EA81843C0853729F42F7EB22E2AE0A9
:104F000030E025C0F22FF97FBF2E8F36C1F018F4A4
:104F1000883579F0ADC0803719F0883721F0A8C006
:104F20002F2F2061B22EB4FE0DC08B2D8460B82EC1
:104F300009C024FF0AC09F2F9660B92E06C028E042
:104F400030E005C020E130E002C020E132E0F801AD
:104F5000B7FE07C060817181828193810C5F1F4F12
:104F600006C06081718180E090E00E5F1F4FA40158
:104F7000E6D0A82EA818FB2DFF77BF2EB6FE0BC0DB
:104F80002B2D2E7FA51450F4B4FE0AC0B2FC08C02D
:104F90002B2D2E7E05C07A2C2B2D03C07A2C01C020
:104FA000752C24FF0DC0FE01EA0DF11D80818033B8
:104FB00011F4297E09C022FF06C07394739404C0C3
:104FC000822F867809F0739423FD12C020FF06C05B
:104FD0005A2C731418F4530C5718732C731460F470
:104FE000B70180E290E02C8778D073942C85F6CFBF
:104FF000731410F4371801C0312C24FF11C0B7010D
:1050000080E390E02C8769D02C8522FF16C021FF19
:1050100003C088E590E002C088E790E0B7010CC0CB
:10502000822F867851F021FD02C080E201C08BE220
:1050300027FD8DE2B70190E050D0A51430F4B70100
:1050400080E390E04AD05A94F8CFAA94F401EA0D94
:10505000F11D8081B70190E040D0A110F6CF332040
:1050600009F45DCEB70180E290E037D03A94F7CFF3
:10507000F7018681978102C08FEF9FEF2C960FB6C4
:10508000F894DEBF0FBECDBFDF91CF911F910F917E
:10509000FF90EF90DF90CF90BF90AF909F908F9058
:1050A0007F906F905F904F903F902F900895FC01FC
:1050B0000590615070400110D8F7809590958E0F43
:1050C0009F1F0895FC016150704001900110D8F7B6
:1050D000809590958E0F9F1F08950F931F93CF93E8
:1050E000DF93182F092FEB018B8181FD03C08FEF18
:1050F0009FEF20C082FF10C04E815F812C813D81D7
:10510000421753077CF4E881F9819F012F5F3F4FDD
:1051100039832883108306C0E885F985812F199586
:10512000892B29F72E813F812F5F3F4F3F832E83AD
:10513000812F902FDF91CF911F910F910895FA0148
:10514000AA27283051F1203181F1E8946F936E7FC6
:105150006E5F7F4F8F4F9F4FAF4FB1E03ED0B4E0B7
:105160003CD0670F781F891F9A1FA11D680F791FF8
:105170008A1F911DA11D6A0F711D811D911DA11D09
:1051800020D009F468943F912AE0269F1124301919
:10519000305D3193DEF6CF010895462F4770405DB4
:1051A0004193B3E00FD0C9F7F6CF462F4F70405D63
:1051B0004A3318F0495D31FD4052419302D0A9F7BE
:1051C000EACFB4E0A6959795879577956795BA95B8
:1051D000C9F700976105710508959B01AC010A2E7E
:1051E00006945795479537952795BA95C9F7620F55
:0E51F000731F841F951FA01D0895F894FFCF14
:1051FE00000000000000803F000000400000404022
:10520E00000080400000A0400000C0400000E040D0
:10521E00000000410000803F000000000000000080
:10522E00000000000000803F0000000000000000B1
:10523E00000000000000803F0AD7A33C01000100DF
:10524E000100FFFFFFFFFFFF010001000100FFFF54
:10525E0001018001800180FF7FFF7FFF7F616C7005
:10526E00686120006265746120007000414E473A0B
:10527E002025642C2025642C25642C25640A002509
:10528E00643A2025640049523A2025640A00486990
:10529E003A2025642025642025642025640062655B
:1052AE0000656E005461736B09320049444C450031
:1052BE0000000000B01A811A561A5E1A711A801A6E
:1052CE000000000037208723DA1F0B20F21F2C204E
:00000001FF
