S012000043473330303252544F532E737265637B
S11300009AC10000C9C10000C7C10000C5C10000F9
S1130010C3C10000C1C10000BFC10000BDC10000D8
S1130020BBC10000B9C10000B7C10000B5C10000E8
S1130030B3C100000C94CB15AFC10000ADC10000EA
S1130040ABC10000A9C10000A7C10000A5C1000008
S1130050A3C100000C942E149FC100000C9497249B
S11300609BC100000C941F210C949F2195C100009A
S113007093C1000091C100008FC100008DC1000038
S11300808BC1000089C1000087C1000085C1000048
S11300900C945F210C94DE217FC100000C94D319D1
S11300A07BC1000079C1000077C1000075C1000068
S11300B073C1000071C100006FC100006DC1000078
S11300C06BC1000069C1000067C1000065C1000088
S11300D00C941D2261C100005FC100000C945C22DD
S11300E05BC10000036EDB363D9A9999993DABAA3A
S11300F0AA2A3E000000803F084AD73B3BCE016E4F
S113010084BCBFFDC12F3D6C74319ABD56833DDA6A
S11301103D00C77F11BED9E4BB4C3E916BAAAABE79
S1130120000000803F072C7AA5BA6CC590DA3B9397
S113013065FC8BBC53F810FD3C5692834DBD879DE6
S11301403AB63DCBC9BF5BBE73DA0FC93F05A84CB5
S1130150CDB2D44EB93836A9020C50B9918688086C
S11301603CA6AAAA2ABE000000803F07634236B715
S11301709BD8A71A39685618AEBAAB558C1D3CB734
S1130180CC5763BD6DEDFD753EF6177231BF0000AF
S113019000803F08000000BE922449123EABAAAA88
S11301A02ABECDCCCC4C3E00000080BEABAAAAAA8D
S11301B03E00000000BF000000803F00000000007F
S11301C0084178D3BB4387D1133D190E3CC3BD42CC
S11301D082AD2B3E68EC8276BED98FE1A93E4C807D
S11301E0EFFFBE01C4FF7F3F000000000000D725E1
S11301F0DB25CB25D1252026DF25E525EB25F1259B
S1130200F725FD250326092620260F2615261B265D
S11302100000090A02080B0C0D0706030401000084
S113022000000000000000000000000000000000CA
S113023000000000000000000000000011100F008A
S113024000000000000000000000000000000000AA
S113025000000000000001021020200808102040C7
S11302601020408002010201080402010102040876
S11302701020408080402010080402018004020104
S1130280804020100804020108040201010204084D
S11302901020408001020408102040800505050557
S11302A0070508080808020202020A0A08080404EA
S11302B00404010101010101010103030303030318
S11302C00303040707070C0C0C0C0C0C0C0C0202A7
S11302D0020206060606060606060B0B0B0B0B0BA4
S11302E00B0B000020002300260029002C002F0007
S11302F03200000100000301060109010000220090
S1130300250028002B002E003100340002010000DB
S1130310050108010B0100002100240027002A0028
S11303202D003000330001010000040107010A011F
S1130330060ACB1B622311241FBECFEFD1E2DEBF1E
S1130340CDBF00E00CBF12E0A0E0B2E0EAE7F3E5C5
S113035000E00BBF02C007900D92AC3DB107D9F786
S113036022E1ACEDB2E001C01D92A630B207E1F784
S113037013E0C6E3D3E000E006C022970109FE01C2
S11303800BBF0E94EC26C033D10780E00807A9F711
S11303900E949F0B0C94BB2933CE2F923F924F9215
S11303A05F926F927F928F929F92AF92BF92CF9201
S11303B0DF92EF92FF920F931F93CF93DF93CDB70A
S11303C0DEB762970FB6F894DEBF0FBECDBF3C0117
S11303D04B015A0100E010E0F501E00FF11FFE8728
S11303E0ED87E12CF12CC301800F911F9A8B898B2F
S11303F0FE0131962F0129883A88C12CD12CC401E1
S11304008E0D9F1D988B8F87F10161917191819160
S113041091911F01EF85F889EC0DFD1D208131813B
S1130420428153810E948E1EF201619371938193E4
S113043091932F01FCE0CF0ED11C84E2C816D104A5
S113044019F72D813E814F81588569817A818B818D
S11304509C810E94CF1B29853A854B855C850E942F
S1130460CF1BED85FE856193719381939193FE87F4
S1130470ED87F4E0EF0EF11C8CE0E816F10409F0CE
S1130480B7CF045F1F4F0432110509F0A5CF629660
S11304900FB6F894DEBF0FBECDBFDF91CF911F9191
S11304A00F91FF90EF90DF90CF90BF90AF909F900F
S11304B08F907F906F905F904F903F902F90089512
S11304C0AF92BF92CF92DF92EF92FF920F931F935E
S11304D0CF93DF935C01EB0100E010E0C12CD12C41
S11304E07601F50161917191819191915F01299159
S11304F03991499159910E948E1E9B01AC01C7010B
S1130500B6010E94CF1B6B017C010F5F1F4F0330AC
S1130510110539F7DF91CF911F910F91FF90EF9063
S1130520DF90CF90BF90AF900895AF92BF92CF92DB
S1130530DF92EF92FF920F931F93CF93DF935C01AF
S1130540EB018A01FA0120853185428553856C814E
S11305507D818E819F810E948E1E6B017C01F8013A
S11305602481358146815781688579858A859B8573
S11305700E948E1E9B01AC01C701B6010E94CE1BD6
S1130580F5016083718382839383F8012081318133
S113059042815381688579858A859B850E948E1E58
S11305A06B017C01F8012085318542855385688182
S11305B079818A819B810E948E1E9B01AC01C701B7
S11305C0B6010E94CE1BF5016483758386839783ED
S11305D0F8012481358146815781688179818A8136
S11305E09B810E948E1E6B017C01F8012081318168
S11305F0428153816C817D818E819F810E948E1EF8
S11306009B01AC01C701B6010E94CE1BF5016087B6
S1130610718782879387DF91CF911F910F91FF900C
S1130620EF90DF90CF90BF90AF900895AF92BF92BC
S1130630CF92DF92EF92FF920F931F93CF93DF93AA
S113064069017A01EB015C0100E010E069917991A4
S113065089919991A70196010E948E1EF5016193DB
S11306607193819391935F010F5F1F4F03301105C5
S113067069F7DF91CF911F910F91FF90EF90DF9079
S1130680CF90BF90AF900895CF92DF92EF92FF92F8
S11306900F931F93CF93DF938B01EA016C01E12C3D
S11306A0F12CF80161917191819191918F012991BE
S11306B03991499159910E94CF1BF601619371932D
S11306C0819391936F01FFEFEF1AFF0A83E0E8161D
S11306D0F10439F7DF91CF911F910F91FF90EF90C3
S11306E0DF90CF90089583E09FE00C94961B42E046
S11306F063E08AE197E00E94F20C8AE197E00E94AD
S1130700340C40E263E28AE197E00E940B0C4FE074
S113071060E28AE197E00C940B0C8AE197E00E9476
S1130720480C40911A0750911B075093E7074093D8
S1130730E60720911C0730911D073093E9072093A9
S1130740E80780911E0790911F079093EB07809311
S1130750EA076091DA077091DB07461B570BE091BB
S11307604C02F0914D02E49FB001E59F700DF49F9F
S1130770700D11247093D9076093D8074091DC075A
S11307805091DD07241B350B60914E0270914F028E
S1130790629FA001639F500D729F500D11245093CE
S11307A0D7074093D6072091DE073091DF07821BDD
S11307B0930B4091500250915102489F9001499FE0
S11307C0300D589F300D11243093D5072093D40752
S11307D0089542E064E084EF96E00E94231384EFDE
S11307E096E00E94941180910D07823029F08330A5
S11307F029F448E161E204C048E201C040E363E255
S113080084EF96E00C948C1184EF96E00E94CE1154
S11308104091F4065091F50684E0559547958A95E4
S1130820E1F75093ED074093EC072091F6063091E1
S1130830F70694E0359527959A95E1F73093EF07FD
S11308402093EE078091F8069091F90664E095955F
S113085087956A95E1F79093F1078093F00760918B
S1130860E0077091E107461B570BE0915202F091AB
S11308705302E49FB001E59F700DF49F700D1124A5
S11308807093D3076093D2074091E2075091E30736
S1130890241B350B6091540270915502629FA00194
S11308A0639F500D729F500D11245093D1074093B4
S11308B0D0072091E4073091E507821B930B409108
S11308C0560250915702489F9001499F300D589FFE
S11308D0300D11243093CF072093CE07089584EF71
S11308E096E00E9440124091580250915902209182
S11308F0FA063091FB06429FC001439F900D529F20
S1130900900D11249093CD078093CC0740915A0207
S113091050915B022091FC063091FD06429FC0017C
S1130920439F900D529F900D11249093CB07809379
S1130930CA0740915C0250915D022091FE063091FD
S1130940FF06429FC001439F900D529F900D1124BA
S11309509093C9078093C8070895CF92DF92EF92CE
S1130960FF92CF93DF93CDB7DEB7A4970FB6F89479
S1130970DEBF0FBECDBF60E372E084E292E0A0DD93
S1130980905820E030E040E05FE30E948E1E6B014F
S11309907C019B01AC0160E372E0CE01019646DE6E
S11309A0A701960164E272E0CE010D963FDE44E2B7
S11309B052E0BE016F5F7F4FCB0166DE40E352E041
S11309C0BE01635F7F4FCB015FDEAE01435F5F4FCC
S11309D0BE016F5F7F4FCE014996A7DDBE016F5FF9
S11309E07F4FCB016DDD9B01AC0160E070E080E4E2
S11309F090E40E94CE1B20E030E040E05FE30E94E0
S1130A008E1E9B01AC01BE016F5F7F4F84E292E0BA
S1130A100DDEBE01635F7F4FCB0152DD9B01AC0154
S1130A2060E070E080E490E40E94CE1B20E030E0BF
S1130A3040E05FE30E948E1E9B01AC01BE01635F38
S1130A407F4F80E392E0F2DDBE01675E7F4FCB0112
S1130A5037DD9B01AC0160E070E080E490E40E942B
S1130A60CE1B20E030E040E05FE30E948E1E9B013D
S1130A70AC01BE01675E7F4F8CE392E0D7DDA496A4
S1130A800FB6F894DEBF0FBECDBFDF91CF91FF90BC
S1130A90EF90DF90CF9008954F925F926F927F9284
S1130AA08F929F92AF92BF92CF92DF92EF92FF927A
S1130AB06091AC077091AD078091AE079091AF073C
S1130AC08090B0079090B107A090B207B090B307A0
S1130AD0C090B407D090B507E090B607F090B70780
S1130AE09B01AC010E948E1E2B013C01A5019401C7
S1130AF0C501B4010E948E1E9B01AC01C301B20169
S1130B000E94CF1B4B015C01A7019601C701B601EE
S1130B100E948E1E9B01AC01C501B4010E94CF1B33
S1130B200E94471F20E030E040E85BE30E948E1EF5
S1130B309B01AC0160E070E080E89FE30E94CE1B63
S1130B406B017C0120E030E0A9010E94831EA70113
S1130B5096011816A4F4C701B6010E94CF1B9B018D
S1130B60AC0160E070E080E89FE30E94CE1B20E0CF
S1130B7030E0A9010E94AC1C87FF1FC045C0C7011B
S1130B80B6010E94CF1B20E030E040E85FE30E9402
S1130B90CF1B6B017C0120E030E0A9010E94AC1C5A
S1130BA087FD32C020E030E040E85FE3C701B601D2
S1130BB00E94831E181664F131C0A7019601C70173
S1130BC0B6010E94CF1B9B01AC0160E070E080E89D
S1130BD09FE30E94CE1B20E030E040E85FE30E94E8
S1130BE0831E1816ACF0A7019601C701B6010E9436
S1130BF0CF1B9B01AC0160E070E080E89FE30E94A2
S1130C00CE1B6B017C010AC0C12CD12C760106C01D
S1130C10C12CD12C70E8E72E7FE3F72E4CE352E091
S1130C206CEA77E088E597E080DC2AE037ED43EA78
S1130C305CE3C701B6010E948E1E9B01AC0168E50E
S1130C4077E088E897E0F2DC2CEA35EC47EA57E3F2
S1130C50C701B6010E948E1E9B01AC0168E577E0D6
S1130C6088EE92E0E3DC48EE52E06CE777E0CB01FB
S1130C700BDDC090B807D090B907E090BA07F090A8
S1130C80BB07C701B6010E94B01C4B015C01C70140
S1130C90B6010E943D1F209124023091250240910B
S1130CA02602509127020E948E1E6B017C01209126
S1130CB03002309131024091320250913302C50129
S1130CC0B4010E948E1E9B01AC01C701B6010E94B3
S1130CD0CE1B9B01AC016CE372E08CE497E0A6DCD4
S1130CE02AE939E949E95FE36CE477E08CED92E0C5
S1130CF09DDC4CED52E068E877E0CB01C5DC2CEAE2
S1130D0035EC47EA57E36CE477E088EE92E08EDC5A
S1130D1048EE52E06CE777E0CB01FF90EF90DF9074
S1130D20CF90BF90AF909F908F907F906F905F9087
S1130D304F90AACC4F925F926F927F928F929F9224
S1130D40AF92BF92CF92DF92EF92FF920F931F93D5
S1130D50CF93DF9300D01F92CDB7DEB76091D80751
S1130D607091D907882777FD8095982F0E94491D97
S1130D7029E732E240EA5AE30E948E1E6093A007FC
S1130D807093A1078093A2079093A3076091D6075D
S1130D907091D707882777FD8095982F0E94491D69
S1130DA029E732E240EA5AE30E948E1E6093A407C8
S1130DB07093A5078093A6079093A7076091D40723
S1130DC07091D507882777FD8095982F0E94491D3B
S1130DD029E732E240EA5AE30E948E1E6093A80794
S1130DE07093A9078093AA079093AB076091D207E9
S1130DF07091D307882777FD8095982F0E94491D0D
S1130E006093AC077093AD078093AE079093AF07E0
S1130E106091D0077091D107882777FD8095982F2E
S1130E200E94491D6093B0077093B1078093B20785
S1130E309093B3076091CE077091CF07882777FD11
S1130E408095982F0E94491D6093B4077093B5074D
S1130E508093B6079093B7074CE757E060EA77E0D2
S1130E6080E797E011DC48E857E060E777E084E941
S1130E7097E00ADC10920002109201021092020222
S1130E8010920302C0904802D0904902E0904A02B6
S1130E90F0904B0246015701B7FAB094B7F8B094FA
S1130EA040909C0750909D0760909E0770909F070C
S1130EB0A3019201C501B4010E948E1E6093040235
S1130EC0709305028093060290930702809198071D
S1130ED090919907A0919A07B0919B0789839A836F
S1130EE0AB83BC839C01AD01C701B6010E948E1E79
S1130EF0609308027093090280930A0290930B0294
S1130F00A3019201C701B6010E948E1E60930C02D8
S1130F1070930D0280930E0290930F0210921002B0
S1130F201092110210921202109213024090940730
S1130F30509095076090960770909707A3019201CF
S1130F40C501B4010E948E1E6093140270931502B1
S1130F50809316029093170229813A814B815C8118
S1130F60C501B4010E948E1E609318027093190289
S1130F7080931A0290931B02A3019201C701B60148
S1130F800E948E1E60931C0270931D0280931E02A9
S1130F9090931F02109220021092210210922202BA
S1130FA01092230246E257E060E072E084E292E0AD
S1130FB0F4D9E4E2AE2EE2E0BE2E06E217E0E12C24
S1130FC0F12C6501CE0CDF1CF801EE0DFF1D208114
S1130FD0318142815381D6016D917D918D919C9196
S1130FE00E94CF1BF6016083718382839383F4E0B4
S1130FF0EF0EF11C8CE0E816F10419F79CE0A90E41
S1131000B11C045F1F4FA8E4AA16A2E0BA06B9F601
S11310100F900F900F900F90DF91CF911F910F9130
S1131020FF90EF90DF90CF90BF90AF909F908F9004
S11310307F906F905F904F90089560913C02709103
S11310403D0280913E0290913F020E94331CDC01DC
S1131050CB01B0588093680790936907A0936A07FF
S1131060B0936B07209144023091450240914602AF
S11310705091470260914002709141028091420276
S1131080909143020E94591C60936C0770936D0702
S113109080936E0790936F0720912402309125026C
S11310A040912602509127026091300270913102E2
S11310B080913202909133020E94591C609364071C
S11310C070936507809366079093670708954F921E
S11310D05F926F927F928F929F92AF92BF92CF92C4
S11310E0DF92EF92FF920F931F93CF93DF93CDB7CD
S11310F0DEB760970FB6F894DEBF0FBECDBFC090C9
S11311006C07D0906D07E0906E07F0906F07C701F1
S1131110B6010E94B01C69837A838B839C83C701C8
S1131120B6010E943D1F6D837E838F839887C09094
S11311306807D0906907E0906A07F0906B07C701D1
S1131140B6010E94B01C6D877E878F87988BC7017C
S1131150B6010E943D1F69877A878B879C87A09080
S11311605802B090590280E099E0A89EB001A99E6F
S1131170700DB89E700D11248091CC079091CD070D
S1131180680F791F882777FD8095982F0E94491D45
S113119020E038E94EE955E40E94B31C6B017C0160
S11311A0B501882777FD8095982F0E94491D20E07E
S11311B030E040E05FE30E948E1E9B01AC01C7015A
S11311C0B6010E94CE1B2B013C016093C4077093AF
S11311D0C5078093C6079093C707A0905A02B090A2
S11311E05B0282E998E0A89EB001A99E700DB89EAA
S11311F0700D11248091CA079091CB07680F791F55
S1131200882777FD8095982F0E94491D20E030EFB4
S11312104DE955E40E94B31C6B017C01B50188279C
S113122077FD8095982F0E94491D20E030E040E032
S11312305FE30E948E1E9B01AC01C701B6010E94B0
S1131240CE1B4B015C016093C0077093C107809370
S1131250C2079093C30700915C0210915D028CE673
S113126098E0089FB001099F700D189F700D11241C
S11312708091C8079091C907680F791F882777FD67
S11312808095982F0E94491D20E038E649E955E4ED
S11312900E94B31C6B017C01B801882777FD8095FF
S11312A0982F0E94491D20E030E040E05FE30E9457
S11312B08E1E9B01AC01C701B6010E94CE1B6B01BF
S11312C07C016093BC077093BD078093BE07909325
S11312D0BF072D853E854F855889C301B2010E9401
S11312E08E1E2B013C012D813E814F815885C50105
S11312F0B4010E948E1E29853A854B855C850E9427
S11313008E1E9B01AC01C301B2010E94CF1B2B01B5
S11313103C0129813A814B815C81C701B6010E945D
S11313208E1E29853A854B855C850E948E1E9B0105
S1131330AC01C301B2010E94CF1B2B013C012981E6
S11313403A814B815C81C501B4010E948E1E4B0120
S11313505C012D813E814F815885C701B6010E94F1
S11313608E1E9B01AC01C501B4010E94CE1B905896
S1131370A30192010E94591C6093B8077093B907A6
S11313808093BA079093BB0760960FB6F894DEBFBC
S11313900FBECDBFDF91CF911F910F91FF90EF90C2
S11313A0DF90CF90BF90AF909F908F907F906F9081
S11313B05F904F90089586E30E949D25BC01882785
S11313C077FD8095982F0E94491D20E030E040EA87
S11313D05BE30E948E1E6093FC077093FD0780936D
S11313E0FE079093FF0728E431EE4AE95FEB0E9481
S11313F0F11E21E73DE348E552E40E948E1E0E945F
S11314001B1D7093FB076093FA0708952CE231E0EB
S113141047E166E180E098E00E94D7132CE231E0D6
S113142049E168E182E198E00E94D7132CE231E0BF
S11314304BE16AE184E298E00E94D7132CE231E0A8
S11314404DE16CE186E398E00E94D7132CE231E091
S11314504FE16EE188E498E00E94D7138AE197E0B7
S1131460D3D184EF96E0BCC3BC018BEB9FE00E9418
S113147087248BEB9FE00C94CE20CF93DF93CDB7E2
S1131480DEB7FE01369661917191AF0184EF92E06F
S11314900E94FF2684EF92E0E7DFDF91CF91089569
S11314A08AE792E09F938F93E8DF84EF96E0AFD6CC
S11314B09F938F937F936F9321EE3EE245E652E430
S11314C06091640770916507809166079091670742
S11314D00E948E1E9F938F937F936F9321EE3EE223
S11314E045E652E4609168077091690780916A0744
S11314F090916B070E948E1E9F938F937F936F939F
S113150021EE3EE245E652E460916C0770916D076E
S113151080916E0790916F070E948E1E9F938F9308
S11315207F936F938CE792E09F938F93A6DF8DB7A1
S11315309EB744960FB6F8949EBF0FBE8DBF089514
S11315408EE992E09F938F9398DF0F900F9084E63B
S113155090E00E9463182FDF0E94E1240091F607B7
S11315601091F7072091F8073091F907601B710B70
S1131570820B930B623371058105910540F38091D1
S11315804A0790914B07019690934B0780934A0723
S11315900093F2071093F3072093F4073093F507B1
S11315A00E94E1246093F6077093F7078093F8078D
S11315B09093F9070091F2071091F3072091F40733
S11315C03091F5070617170728073907ACF4601B95
S11315D0710B820B930B0E94491D20E030E04AE717
S11315E054E40E94B31C60934802709349028093B0
S11315F04A0290934B0208C010924802109249028A
S113160010924A0210924B0288D8FED880914A0761
S113161090914B07069730F010924B0710924A07AF
S11316205ED955DD87DB99D937DA07DD39DF8FCF0E
S11316300F931F93CF93DF9340E052EC61E070E08F
S11316408BEB9FE00E94DF2261E08DE00E94212667
S11316504AD889EA92E09F938F930FDFBAD847D88C
S113166064E170E080E090E00E9413250F900F90F9
S1131670C0E2D0E052D8C8D8E6EEF7E0AAEDB7E071
S1131680219131918D919C911197820F931F8D938C
S11316909D9387E0E23FF80799F764E170E080E00A
S11316A090E00E9413252197209721F7EAEDF7E0B7
S11316B08081918197FD4F96D5E095958795DA9530
S11316C0E1F78193919387E0E63EF80789F78091EB
S11316D05602182F00E08091E4079091E507801BE3
S11316E0910B9093E5078093E40760ED77E080E049
S11316F090E00E94132561E08DE00E945F260E9425
S1131700E1246093F6077093F7078093F8079093AA
S1131710F90764E170E080E090E00E9413251092E4
S11317204B0710924A078CEA92E09F938F93A5DEB1
S11317300F900F90DF91CF911F910F910895AF9269
S1131740BF92CF92DF92EF92FF920F93CF93DF93EA
S11317501F921F92CDB7DEB70E943B2569DFA12CF3
S1131760B12CC12CD12CCE0101967C0105E020E0E6
S113177030E040E850E06FEA72E080EA9AE00E94CC
S11317801C160E94101780E090E00F900F90DF91DC
S1131790CF910F91FF90EF90DF90CF90BF90AF90DB
S11317A00895CF93DF93EC010E94401780915A086B
S11317B090915B08892B31F48FE598E090935B0856
S11317C080935A0820915C0830915D08CE01820F05
S11317D0931F8B3D45E0940770F42817390758F49C
S11317E0C0915A08D0915B08C20FD31F90935D0833
S11317F080935C0802C0C0E0D0E00E94F517CE01DF
S1131800DF91CF9108950895FC0183E087831286C8
S1131810118613860895EF92FF921F93CF93DF935F
S11318201F92CDB7DEB77C01162FFC01608583E0E3
S11318309FE049830E94AD1B612F83E09FE00E94DB
S1131840581B4981642F83E09FE00E94581B83E06A
S11318509FE00E94C91BF70186830F90DF91CF910F
S11318601F91FF90EF900895CF93DF93EC018F8148
S1131870823021F440E069E3CE01CDDF40E063E251
S1131880CE01C9DF4FE660E2CE01DF91CF91C3CF35
S11318909F92AF92BF92CF92DF92EF92FF920F93FB
S11318A01F93CF93DF93EC01688583E09FE00E9450
S11318B0AD1BE091030FF091040F0190F081E02D36
S11318C068EA83E09FE0199583E09FE00E94C91BCA
S11318D046E0688583E09FE00E94AB1B0E94E12400
S11318E07B0183E09FE00E94011B069784F48985B5
S11318F09A85892BB1F30E94E1246E197F098985A9
S11319009A858617970768F781E08B872CC083E058
S11319109FE00E94091BA82E83E09FE00E94091B00
S1131920982E83E09FE00E94091BE82E83E09FE04D
S11319300E94091BB82E83E09FE00E94091BF82E29
S113194083E09FE00E94091BD92CC12CCA28D982AC
S1131950C8821B2D00E00E291B830A83982F882739
S11319608F299D838C83DF91CF911F910F91FF90DD
S1131970EF90DF90CF90BF90AF909F9008951F930A
S1131980CF93DF931F92CDB7DEB7162F83E09FE08E
S113199049830E94AD1B4981642F83E09FE00E942C
S11319A0581B83E09FE00E94C91B811114C041E0D1
S11319B0612F83E09FE00E94AB1B83E09FE00E94C5
S11319C0011B892B41F083E09FE00F90DF91CF91C1
S11319D01F910C94091B8FEF9FEF0F90DF91CF9114
S11319E01F9108950F931F93CF93DF93EC01162F4C
S11319F0042F633019F0423009F03EC08FEF810F9D
S1131A008330E0F4002361F04FE06BE6CE01B7DFF2
S1131A108F3F2FEF920711F001E00EC0013041F02B
S1131A204FE06AE6CE01ABDF8F3F2FEF920719F448
S1131A30133031F019C000E01330D1F0111114C08B
S1131A40002349F04FE069E6CE0199DF833D91051B
S1131A5041F1013039F04FE068E6CE0190DF833D7B
S1131A60910509F1133011F0023031F480E01EC009
S1131A70873D9105A1F412E01F83112341F0133037
S1131A8060F4013011F48BE607C08AE605C001302A
S1131A9011F489E601C088E6888781E007C011E077
S1131AA0EBCF01E001C000E010E0E6CFDF91CF9181
S1131AB01F910F910895FC010396928381832FEF68
S1131AC03FEF3483238396838583908787831082B3
S1131AD00895FC01118610860895CF93DF939C012D
S1131AE0FB01DC011196CD91DC911297D383C28363
S1131AF08C819D81958384838C819D81DC011396E7
S1131B007C936E9312977D836C8331872087F901D0
S1131B1080818F5F8083DF91CF9108950F931F930E
S1131B20CF93DF938C01FB01208131812F3F8FEF15
S1131B30380721F4E801AF81B8850EC0D8011396A7
S1131B4012968D919C911397EC0148815981241729
S1131B50350710F0DC01F4CF12968D919C91139708
S1131B6093838283EC01FD83EC83B583A483139672
S1131B70FC93EE93129711870087F80180818F5FA1
S1131B808083DF91CF911F910F910895CF93DF93BD
S1131B90FC01A085B1858281938124813581EC018A
S1131BA03D832C83C481D5819B838A8311968D9137
S1131BB09C9112978E179F0721F41296DC93CE9373
S1131BC01197118610868C9181508C93DF91CF915F
S1131BD00895DC01ED91FC910190F081E02D1994C0
S1131BE0CF93DF93EC0186E0E1E6F2E0DE0152966A
S1131BF001900D928A95E1F786E0E7E6F2E0DE01D6
S1131C001C9601900D928A95E1F784E0898F1CA2BD
S1131C101BA21DA2DF91CF9108954F925F926F9204
S1131C207F928F929F92AF92BF92CF92DF92EF9268
S1131C30FF920F931F93CF93DF9300D01F92CDB7E2
S1131C40DEB78C01DC014D905D906D907C90139714
S1131C5014968D909D90AD90BC90179718968D9189
S1131C609D910D90BC91A02D89839A83AB83BC83F5
S1131C70A3019201C301B2010E948E1E6B017C017B
S1131C80A5019401C501B4010E948E1E9B01AC0103
S1131C90C701B6010E94CF1B6B017C0129813A81E7
S1131CA04B815C81CA01B9010E948E1E9B01AC016B
S1131CB0C701B6010E94CF1B0E94471F6B017C0124
S1131CC09B01AC01C301B2010E94B31CF801608303
S1131CD0718382839383A7019601C501B4010E9495
S1131CE0B31CD80114966D937D938D939C93179791
S1131CF0A701960169817A818B819C810E94B31C22
S1131D00F80160877187828793870F900F900F90F7
S1131D100F90DF91CF911F910F91FF90EF90DF9083
S1131D20CF90BF90AF909F908F907F906F905F9077
S1131D304F9008954F925F926F927F928F929F92ED
S1131D40AF92BF92CF92DF92EF92FF920F931F93C5
S1131D50CF93DF93CDB7DEB7AA970FB6F894DEBF63
S1131D600FBECDBF8C01298F3A8F4B8F5C8F6D8F47
S1131D707E8FDC0116968D919C9117979C014427C8
S1131D8037FD4095542F2F8F38A349A35AA3529659
S1131D906D917C915397882777FD8095982F1C9699
S1131DA0CD90DC901D97EE24D7FCE094FE2C6C0DB6
S1131DB07D1D8E1D9F1D22E0822E912CA12CB12C05
S1131DC0A50194010E94C0268F8D98A1A9A1BAA152
S1131DD0821B930BA40BB50B8F8F98A3A9A3BAA353
S1131DE0D80118968D919C9119979C01442737FD31
S1131DF04095542F2BA33CA34DA35EA354966D9101
S1131E007C915597882777FD8095982F1E96CD90C5
S1131E10DC901F97EE24D7FCE094FE2C6C0D7D1D06
S1131E208E1D9F1DA50194010E94C0268BA19CA11B
S1131E30ADA1BEA1821B930BA40BB50B8BA39CA3DA
S1131E40ADA3BEA3D8011A96CD90DC901B97EE24C7
S1131E50D7FCE094FE2C56966D917C915797882779
S1131E6077FD8095982F50964D905C9051976624FD
S1131E7057FC6094762C640D751D861D971DA50175
S1131E8094010E94C026C21AD30AE40AF50AF80192
S1131E9044805580662457FC6094762C828193811B
S1131EA09C01442737FD4095542F2FA338A749A7F9
S1131EB05AA72BA13CA14DA15EA1C301B2010E946E
S1131EC08F264B015C01A70196016FA178A589A516
S1131ED09AA50E948F26861A970AA80AB90AC501EC
S1131EE0B4010E94491D6D877E878F87988BD80126
S1131EF08D909C90AA2497FCA094BA2CA7019601DB
S1131F00C501B4010E948F266B017C012F8D38A17D
S1131F1049A15AA1C301B2010E948F26C61AD70A49
S1131F20E80AF90AC701B6010E94491D698B7A8B38
S1131F308B8B9C8B2F8D38A149A15AA16FA178A5B9
S1131F4089A59AA50E948F266B017C012BA13CA137
S1131F504DA15EA1C501B4010E948F26C61AD70AFD
S1131F60E80AF90AC701B6010E94491D6D8B7E8BF0
S1131F708F8B988FCE010D9650DEF80162817381AC
S1131F80882777FD8095982F0E94491D6B017C015D
S1131F902D893E894F89588D2F8F38A349A35AA381
S1131FA0D80114966D917C911597882777FD8095BB
S1131FB0982F0E94491D2B013C0129893A894B899C
S1131FC05C892BA33CA34DA35EA32F8D38A149A10B
S1131FD05AA1C701B6010E948E1E4B015C012BA1C0
S1131FE03CA14DA15EA1C301B2010E948E1E9B01C2
S1131FF0AC01C501B4010E94CE1B69837A838B8333
S11320009C838D859E85AF85B8898FA398A7A9A742
S1132010BAA7D8016D917C91882777FD8095982F78
S11320200E94491D4B015C012FA138A549A55AA561
S1132030C301B2010E948E1E2B013C012F8D38A1D9
S113204049A15AA1C501B4010E948E1E9B01AC0195
S1132050C301B2010E94CE1B6D837E838F83988758
S11320602BA13CA14DA15EA1C501B4010E948E1E0D
S11320704B015C012FA138A549A55AA5C701B6019A
S11320800E948E1E9B01AC01C501B4010E94CE1BAF
S113209069877A878B879C87CE010196BEDD698D1F
S11320A07A8D882777FD8095982F0E94491D2B01F2
S11320B03C016B8D7C8D882777FD8095982F0E943D
S11320C0491D4B015C016D8D7E8D882777FD8095C0
S11320D0982F0E94491D6B017C0129813A814B8113
S11320E05C81C301B2010E948E1E6F8F78A389A305
S11320F09AA32D813E814F815885C501B4010E9468
S11321008E1E9B01AC016F8D78A189A19AA10E94BA
S1132110CF1B6F8F78A389A39AA329853A854B8512
S11321205C85C701B6010E948E1E9B01AC016F8DB8
S113213078A189A19AA10E94CF1B6F8F78A389A34C
S11321409AA32D853E854F855889C301B2010E940B
S11321508E1E2B013C0129893A894B895C89C50172
S1132160B4010E948E1E9B01AC01C301B2010E9406
S1132170CF1B4B015C012D893E894F89588DC701C6
S1132180B6010E948E1E9B01AC01C501B4010E94E0
S1132190CF1B2F8D38A149A15AA10E94591C20E0C0
S11321A030E044E353E40E948E1E2BED3FE049E40B
S11321B050E40E94B31C6B017C0120E030E0A901D3
S11321C00E94AC1C87FF0AC020E030E044EB53E4DB
S11321D0C701B6010E94CF1B6B017C01C701B60188
S11321E0AA960FB6F894DEBF0FBECDBFDF91CF9194
S11321F01F910F91FF90EF90DF90CF90BF90AF9021
S11322009F908F907F906F905F904F900895CF93A1
S1132210DF93CDB7DEB72C970FB6F894DEBF0FBEB1
S1132220CDBFFC01218D233071F431E0232F3F8396
S113223018861A8619861C861B8630E040E05A856B
S113224060E07C850DC01A8219822FEF422F2B8308
S11322502C831E821D8220E03A815FEF60E07E8144
S113226069DD2C960FB6F894DEBF0FBECDBFDF91AB
S1132270CF910895EF92FF921F93CF93DF931F9214
S1132280CDB7DEB77C01162FFC01628D83E09FE0A1
S113229049830E94AD1B612F83E09FE00E94581B7D
S11322A04981642F83E09FE00E94581B83E09FE0F4
S11322B00E94C91BF701808F0F90DF91CF911F916E
S11322C0FF90EF900895EF92FF921F93CF93DF93C7
S11322D01F92CDB7DEB77C01162FFC01638D83E01E
S11322E09FE049830E94AD1B612F83E09FE00E9421
S11322F0581B4981642F83E09FE00E94581B83E0B0
S11323009FE00E94C91BF701808F0F90DF91CF914E
S11323101F91FF90EF900895FC01218D233011F05F
S1132320603208F4D0CFA6CFCF93DF93EC01898D30
S11323308330B1F440E061E2CE01EEDF47E560E2D4
S1132340CE01EADF44E664E2CE01E6DF40E265E284
S1132350CE01E2DF40E066E2CE01DF91CF91DCCF37
S1132360823031F448E063E2CE0184DF47E405C003
S113237040E063E2CE017EDF47E260E2CE017ADF35
S11323804CE060E0CE019FDF40E261E0CE019BDFE4
S113239040E062E0CE01DF91CF9195CF9F92AF9262
S11323A0BF92CF92DF92EF92FF920F931F93CF933E
S11323B0DF93EC016A8D83E09FE00E94AD1B68EA25
S11323C070E083E09FE005DC83E09FE00E94C91B8E
S11323D0888F46E06A8D83E09FE00E94AB1B0E94D9
S11323E0E1246B0183E09FE00E94011B069784F4C3
S11323F08BA19CA1892BB1F30E94E1246C197D0966
S11324008BA19CA18617970768F781E08DA32CC048
S113241083E09FE00E94091BA82E83E09FE00E94B6
S1132420091B982E83E09FE00E94091BC82E83E0BD
S11324309FE00E94091BB82E83E09FE00E94091BC5
S1132440D82E83E09FE00E94091BF92CE12CEA2896
S1132450F982E8821B2D00E00C291B830A83982F44
S113246088278D299D838C83DF91CF911F910F91B4
S1132470FF90EF90DF90CF90BF90AF909F90089522
S1132480CF92DF92EF92FF920F931F93CF93DF933C
S1132490EC016B8D83E09FE00E94AD1B898D83303E
S11324A031F46E8D772767FD7095606804C06D8D7B
S11324B0772767FD709583E09FE08BDB83E09FE0E7
S11324C00E94C91B888F46E06B8D83E09FE00E94C9
S11324D0AB1B0E94E1248B0183E09FE00E94011B5F
S11324E0069784F48BA19CA1892BB1F30E94E1246B
S11324F0601B710B8BA19CA18617970768F781E07D
S11325008DA367C0898D8330F9F483E09FE00E9436
S1132510091BC82E83E09FE00E94091BD82E83E08C
S11325209FE00E94091BE82E83E09FE00E94091BA4
S1132530182F83E09FE00E94091BF82E83E09FE0A0
S11325400E94091B082F36C083E09FE00E94091BEC
S1132550D82E83E09FE00E94091BC82E898D81112B
S113256015C083E09FE00E94091B182F83E09FE0C1
S11325700E94091BE82E83E09FE00E94091B082F9C
S113258083E09FE00E94091BF82E14C083E09FE0C3
S11325900E94091B082F83E09FE00E94091BF82E6C
S11325A083E09FE00E94091B182F83E09FE00E94B4
S11325B0091BE82E6C2D70E07D297F836E834E2DE0
S11325C050E0512B598748872F2D30E0302B3B8723
S11325D02A87DF91CF911F910F91FF90EF90DF90A9
S11325E0CF9008951F93CF93DF931F92CDB7DEB79B
S11325F0162F83E09FE049830E94AD1B4981642F1D
S113260083E09FE00E94581B83E09FE00E94C91B67
S1132610811112C041E0612F83E09FE00E94AB1B57
S113262083E09FE0EED7892B39F083E09FE00F90A1
S1132630DF91CF911F91EDC78FEF9FEF0F90DF9147
S1132640CF911F9108950F931F93CF93DF93EC01C4
S1132650162F042F643019F0423009F03BC08DEF7F
S1132660810F823008F081C0002351F04FE06DE10A
S1132670CE01B8DF8934910509F472C0013041F00C
S11326804FE06EE1CE01AEDF8934910509F46AC0F2
S1132690143009F083C0002349F040E269E1CE011F
S11326A0A1DF019659F4013009F475C040E268E1F4
S11326B0CE0198DF019609F062C06DC0143009F0B4
S11326C05CC04FE06EE1CE018DDF01E0CC9709F0F4
S11326D067C012E0198F1130C9F060F11230C1F0F7
S11326E01330E1F5013011F48DE101C08EE18B8FDF
S11326F08A8F88E08E8F89E08D8F8AE088A38BE0B3
S11327008F8F8CE08AA38DE089A328C0013011F457
S113271089E101C088E18A8F8EE18B8F83E08D8F00
S113272084E08E8F87E08F8F88E088A385E089A37B
S113273086E013C0013011F489E101C088E18A8F79
S11327408EE18B8F83E08D8F84E08E8F85E08F8F79
S113275086E088A387E089A388E08AA381E022C079
S113276001E001C000E013E0B5CF133008F493CFCB
S1132770023009F0AFCF80E015C001E0ABCF1430D8
S113278041F44FE06EE1CE012DDF11E0CC9709F06A
S113279010E000E09FCF143071F3EACF13E0E8CFEC
S11327A010E098CFDF91CF911F910F910895CF93AF
S11327B0DF93DC0170E0FB01EA5AFD4FE4911496CB
S11327C0EC931497842F90E0FC01EA5AFD4FE491B6
S11327D01596EC93159764567D4FFB01C491D0E098
S11327E0CC0FDD1FC450DD4FFE0145915491179667
S11327F05C934E931697FC01E456FD4F849190E050
S1132800880F991F8E519D4FFC0145915491199643
S11328105C934E931897FB016491E62FF0E0EE0F62
S1132820FF1FEA5EFC4F859194911B969C938E93B7
S11328301A972F5F3F4F49E3429FC001439F900D7A
S113284011248E38FFE69F0710F08DE89FE61D9651
S11328509C938E931C97DF91CF9108951F920F92B2
S11328600FB60F9211240BB60F922F933F934F93F1
S11328705F936F937F938F939F93AF93BF93EF93E4
S1132880FF93E0913A0EF0913B0E1995FF91EF9171
S1132890BF91AF919F918F917F916F915F914F9174
S11328A03F912F910F900BBE0F900FBE0F901F9072
S11328B0189531E1FC013083319722E2208331976E
S11328C0A3E3A0833197608331977083319710829B
S11328D031971082319760E8608331971082319785
S11328E0108231971082319762E06083319763E000
S11328F06083319764E06083319765E0608331974A
S113290066E06083319767E06083319768E06083B5
S1132910319769E06083319760E160833197308358
S1132920319732E13083319733E13083319734E1A9
S11329303083319735E13083319736E130833197F5
S113294037E13083319738E13083319739E130838F
S1132950319730E23083319731E2308331972083ED
S1132960319723E220833197408331975083319705
S113297026E22083319727E22083319728E22083BF
S1132980319729E22083319720E32083319721E393
S113299020838997089582E08093B0001092B2005A
S11329A096EE9093B3008093700083E08093B1001F
S11329B0A091930EB091940ECD91CDBFDD91DEBF69
S11329C0FF91EF91DF91CF91BF91AF919F918F9143
S11329D07F916F915F914F913F912F911F910F9133
S11329E0FF90EF90DF90CF90BF90AF909F908F902B
S11329F07F906F905F904F903F902F901F900F901B
S1132A000CBE0F900BBE0F900FBE0F90089581E087
S1132A1008950F920FB6F8940F920BB60F920CB65E
S1132A200F921F9211242F923F924F925F926F92B6
S1132A307F928F929F92AF92BF92CF92DF92EF924A
S1132A40FF920F931F932F933F934F935F936F9333
S1132A507F938F939F93AF93BF93CF93DF93EF9322
S1132A60FF93A091930EB091940E0DB60D920EB6F5
S1132A700D927BD3A091930EB091940ECD91CDBFC6
S1132A80DD91DEBFFF91EF91DF91CF91BF91AF91C7
S1132A909F918F917F916F915F914F913F912F9172
S1132AA01F910F91FF90EF90DF90CF90BF90AF9068
S1132AB09F908F907F906F905F904F903F902F905A
S1132AC01F900F900CBE0F900BBE0F900FBE0F9077
S1132AD008950F920FB6F8940F920BB60F920CB69E
S1132AE00F921F9211242F923F924F925F926F92F6
S1132AF07F928F929F92AF92BF92CF92DF92EF928A
S1132B00FF920F931F932F933F934F935F936F9372
S1132B107F938F939F93AF93BF93CF93DF93EF9361
S1132B20FF93A091930EB091940E0DB60D920EB634
S1132B300D92ACD1811119D3A091930EB091940E42
S1132B40CD91CDBFDD91DEBFFF91EF91DF91CF91AC
S1132B50BF91AF919F918F917F916F915F914F91B1
S1132B603F912F911F910F91FF90EF90DF90CF90A5
S1132B70BF90AF909F908F907F906F905F904F9099
S1132B803F902F901F900F900CBE0F900BBE0F9094
S1132B900FBE0F9008959DDF1895E0915B0EF091A4
S1132BA05C0E8081811103C08FEF9FEF0CC0E09118
S1132BB05B0EF0915C0E0580F681E02D0680F781B6
S1132BC0E02D8281938190935F0280935E02089549
S1132BD0CF93DF93EC01E091930EF091940E9383E5
S1132BE082838091430E9091440E6091930E709174
S1132BF0940EC817D90750F48091590E90915A0E2B
S1132C006E5F7F4FDF91CF910C948E0D80915B0EA0
S1132C1090915C0E6E5F7F4F0E948E0D80915E02DC
S1132C2090915F02C817D90720F4D0935F02C09334
S1132C305E02DF91CF9108955F926F927F928F929F
S1132C409F92AF92BF92CF92DF92EF92FF920F9337
S1132C501F93CF93DF934C01162F572E5A0139013E
S1132C6081E290E00E94D10BEC01009709F4C7C007
S1132C70C114D10421F4C5010E94D10B01C0C601C5
S1132C80988F8F8B009721F4CE010E94030CB7C05C
S1132C9021E0A21AB108A80EB91EE12FF52D80E09B
S1132CA090E0BF0141919E01280F391FD901599627
S1132CB04C93DB012C91222321F00196883091055D
S1132CC081F718A2102F043008F013E01E8B6E0158
S1132CD0B2E0CB0ED11CC6010E94690DCE010C9648
S1132CE00E94690DD987C88784E090E0811B91090F
S1132CF09D878C87DB8BCA8BA301B401C501D9DD09
S1132D0099838883E114F10419F0F701D183C08316
S1132D100FB6F8940F928091450E8F5F8093450E05
S1132D208091930E9091940E892BA9F5D093940ED3
S1132D30C093930E8091450E8130E1F58FE69EE0BD
S1132D400E945B0D88E79EE00E945B0D81E89EE097
S1132D500E945B0D8AE89EE00E945B0D86E69EE081
S1132D600E945B0D8DE59EE00E945B0D80E59EE078
S1132D700E945B0D87E49EE00E945B0D86E69EE068
S1132D8090935C0E80935B0E8DE59EE090935A0EBB
S1132D908093590E0FC08091410E81110BC0E091B8
S1132DA0930EF091940E8689081720F0D093940E18
S1132DB0C093930E80913D0E8F5F80933D0E8E895C
S1132DC09091420E981710F48093420EF9E08F9F71
S1132DD0C0011124B6018159914F0E946D0D0F90CD
S1132DE00FBE8091410E882341F0E091930EF09143
S1132DF0940E8689801708F40CDE81E001C08FEF01
S1132E00DF91CF911F910F91FF90EF90DF90CF90C2
S1132E10BF90AF909F908F907F906F905F90089538
S1132E20AF92BF92CF92DF92EF92FF920F93A12CB9
S1132E30B12CC12CD12CE12CF12C00E020E030E0AD
S1132E4045E550E066EB72E084E898E1F5DE813018
S1132E5079F4F8948093410E1092440E1092430E2C
S1132E600F91FF90EF90DF90CF90BF90AF9093CDF4
S1132E700F91FF90EF90DF90CF90BF90AF900895A7
S1132E8080913C0E8F5F80933C0E0895CF92DF9229
S1132E90EF92FF920F931F93CF93DF9380913C0E99
S1132EA081118DC08091430E9091440E01969093B0
S1132EB0440E8093430E0091430E1091440E01156D
S1132EC01105B1F480915B0E90915C0E2091590E26
S1132ED030915A0E30935C0E20935B0E90935A0EF1
S1132EE08093590E80913E0E8F5F80933E0E55DE87
S1132EF080915E0290915F02D12C0817190708F4A3
S1132F004DC089E0C82EE0915B0EF0915C0E80818B
S1132F10811107C08FEF9FEF90935F0280935E0251
S1132F203DC0E0915B0EF0915C0E0580F681E02DD2
S1132F30C681D7812A813B810217130728F4309375
S1132F405F0220935E022AC07E0182E0E80EF11C3B
S1132F50C7010E94C60D2C893D89232B21F0CE0187
S1132F600C960E94C60D2E898091420E821710F491
S1132F702093420EC29EC0011124B7018159914F82
S1132F800E946D0DE091930EF091940E9E898689B6
S1132F90981708F4B8CFDD24D394B5CFE091930EFD
S1132FA0F091940EE68989E0E89FF0011124E1593B
S1132FB0F14F8081823048F0DD24D39406C08091A3
S1132FC0400E8F5F8093400ED12C80913F0E88235A
S1132FD011F0DD24D3948D2DDF91CF911F910F91AA
S1132FE0FF90EF90DF90CF900895EF92FF920F93B0
S1132FF01F93CF93DF930FB6F8940F9280913C0EFA
S1133000815080933C0E80913C0E882311F080E027
S113301051C08091450E8823D1F399E0F92EEE2416
S1133020E3948091500E882351F1E091550EF09174
S1133030560EC681D781CE010C960E94C60D8E0114
S11330400E5F1F4FC8010E94C60D8E899091420EDB
S1133050981710F48093420EF89EC0011124B80111
S11330608159914F0E946D0DE091930EF091940E51
S11330709E8986899817A8F2E0923F0ED2CF80915C
S1133080400E811108C080913F0E813009F0BFCFFE
S1133090C0DC81E00FC0C1E08091400E882399F329
S11330A0F5DE8111C0933F0E8091400E81508093D4
S11330B0400EF2CF0F900FBEDF91CF911F910F9171
S11330C0FF90EF9008950F931F93CF93DF938C019C
S11330D0009711F49EDC13C0D3DEC091430ED0914F
S11330E0440EC00FD11F8091930E9091940E0296BE
S11330F00E94C60DCE016CDD78DF882359F3DF9181
S1133100CF911F910F9108958091460E882339F134
S1133110B7DEC091470E69DFCC23B1F30FB6F89444
S11331200F92E0914C0EF0914D0EC681D781CE01E5
S113313002960E94C60D8091450E81508093450EE3
S11331408091460E81508093460E0F900FBE8F895A
S1133150988D0E94030CCE010E94030CD5CF809160
S11331606F0E823088F255DCCFCF80913C0E8823DD
S113317021F081E080933F0E089510923F0E99E074
S1133180E091420E9E9FF0011124E159F14F80819C
S1133190811106C08091420E81508093420EF0CF7F
S11331A0E091420E89E0E89FF0011124E159F14FCA
S11331B0A181B28112960D90BC91A02DB283A183FE
S11331C0CF010396A817B90731F412968D919C91FB
S11331D01397928381830180F281E02D8681978108
S11331E09093940E8093930E08951092020F81E0B1
S11331F08093000F1092FF0E61E084E10E945F262D
S113320061E085E10E945F26E9EBF0E080818E7F3A
S1133210808380818D7F808388E48093B80085E4F7
S11332208093BC000895413208F03FC09091020F92
S11332309111FCCF91E09093020F2093000F2FEF98
S11332402093950E1092DA0E240F2093D90E9093AA
S1133250010F9091010F880F892B8093010F8091AA
S1133260FF0E813041F41092FF0E8091010F809384
S1133270BB0085EC01C085EE8093BC008091020FF9
S11332808130E1F38091DA0E841710F44091DA0E64
S11332902BED3EE0FB01D9018A2F821B841718F421
S11332A08D918193F9CF842F089580E008950F9331
S11332B0413208F046C09091020F9111FCCF92E088
S11332C09093020F0093000F9FEF9093950E10922E
S11332D0DA0E4093D90EFB016BED7EE0DB019A2FF1
S11332E0961B941718F491919D93F9CF1092010FA6
S11332F09091010F880F892B8093010F8091FF0E0D
S1133300813041F41092FF0E8091010F8093BB0035
S113331085EC01C085EE8093BC00222321F08091CE
S1133320020F8230E1F38091950E8F3F61F080911E
S1133330950E803251F08091950E803341F483E0F4
S113334007C081E005C080E003C082E001C084E0E2
S11333500F910895613298F42091020F243089F47A
S11333606093B70EFC0189EB9EE0DC012A2F281B39
S1133370261718F421912D93F9CF80E0089581E068
S1133380089582E0089585ED8093BC008091BC008F
S113339084FDFCCF1092020F089585EC8093BC004D
S11333A01092020F08951F920F920FB60F921124DC
S11333B00BB60F922F933F934F935F936F937F932B
S11333C08F939F93AF93BF93EF93FF938091B90033
S11333D0887F803609F49CC068F5883209F45BC0A4
S11333E090F4803109F454C038F4882309F4F3C00C
S11333F0883009F44DC0F2C0883109F44CC08032E1
S113340009F45DC0EBC0803409F468C048F480332B
S113341009F455C0883309F0E1C08093950EA7C024
S1133420803509F44FC0883509F45DC0883409F04B
S1133430D5C0D3C0883909F4C4C0A8F4883709F4C6
S113344067C038F4883609F463C0803709F460C073
S1133450C5C0883809F4B5C0803909F45FC0803824
S113346009F0BCC05BC0803B09F483C038F4803AE7
S113347009F466C0883A09F47CC0B0C0803C09F401
S1133480A4C0883C09F4A1C0883B09F487C0A6C045
S11334908091010F10C09091DA0E8091D90E981787
S11334A070F5E091DA0E81E08E0F8093DA0EF0E091
S11334B0E552F14F80818093BB0085EC83C08093FB
S11334C0950E8BC0E091DA0E81E08E0F8093DA0EB8
S11334D08091BB00F0E0E552F14F80839091DA0EC9
S11334E08091D90E6BC0E091DA0E81E08E0F80934B
S11334F0DA0E8091BB00F0E0E552F14F80838091B9
S1133500000F81116AC081E08093FF0E84EA5EC0DF
S113351083E08093020F1092960ECFCF8091960E87
S1133520803208F04EC0E091960E81E08E0F8093B9
S1133530960E8091BB00F0E0E956F14F8083BDCF39
S11335408091960E803230F4E091960EF0E0E956C8
S1133550F14F108218DF6091960E70E0E091FB0E3F
S1133560F091FC0E87E99EE019951092960E15DFF6
S113357035C084E08093020F1092B80E1092B70EFB
S1133580E091FD0EF091FE0E19958091B70E811118
S113359005C081E08093B70E1092B90EE091B80E89
S11335A081E08E0F8093B80EF0E0E754F14F8081F4
S11335B08093BB009091B80E8091B70E981708F4D1
S11335C07CCF85E88093BC0009C085EC8093BC0067
S11335D01092020F03C01092950ED5DEFF91EF9169
S11335E0BF91AF919F918F917F916F915F914F9117
S11335F03F912F910F900BBE0F900FBE0F901F9015
S113360018958091330F90E02091340F821B91091B
S113361008952091340F8091330F281750F4E22F2E
S1133620F0E0EB5CF04F808190E02F5F2093340F4B
S113363008958FEF9FEF0895E091340F8091330F39
S1133640E81730F4F0E0EB5CF04F808190E00895EF
S11336508FEF9FEF08950895CF92DF92EF92FF923C
S11336600F931F93CF93DF937C01CB018A012091A9
S11336700F0F222389F0EB016B01C40ED51ECC156C
S1133680DD0561F06991D701ED91FC910190F08124
S1133690E02DC7011995F3CF642F5CDEC801DF91DB
S11336A0CF911F910F91FF90EF90DF90CF900895ED
S11336B0CF93DF931F92CDB7DEB7698320910F0FAD
S11336C02223D1F02091100F203240F021E030E08D
S11336D0FC013383228380E090E014C08091110FB9
S11336E0E82FF0E0EE5EF04F998190838F5F809336
S11336F0110F8093100F04C061E0CE0101962ADE01
S113370081E090E00F90DF91CF910895FC01138246
S1133710128248EE53E060E070E044835583668390
S113372077838FEB92E09183808308951092340F16
S11337301092330F1092110F1092100F56CD862F46
S1133740413208F040E265E37FE06DDD1092340F12
S11337508093330F089521E0F2CF81E080930F0F1F
S11337606093320F1092110F1092100F08950F935F
S1133770062F21E04091100F62E17FE08091320F2B
S113378096DD1092110F1092100F10920F0F0F91DF
S1133790089561E0ECCF83E09FE0B8CF5058BB2799
S11337A0AA270ED065C22ED230F033D220F031F4E5
S11337B09F3F11F41EF4EDC10EF4E095E7FBE3C165
S11337C0E92F78D280F3BA17620773078407950745
S11337D018F071F49EF590C20EF4E0950B2EBA2FFA
S11337E0A02D0B01B90190010C01CA01A001112403
S11337F0FF27591B99F0593F50F4503E68F11A16AF
S1133800F040A22F232F342F4427585FF3CF46953F
S113381037952795A795F0405395C9F77EF41F1661
S1133820BA0B620B730B840BBAF09150A1F0FF0F2B
S1133830BB1F661F771F881FC2F70EC0BA0F621F17
S1133840731F841F48F4879577956795B795F79507
S11338509E3F08F0B3CF9395880F08F09927EE0F99
S11338609795879508959F939F77EEE389379E07F1
S113387020F4E4EEF0E0B5D109C046D19058A2EAB4
S11338802AED3FE049EC5FE39BDFF2D10F9007FCA8
S113389090580895B7D158F080E891E009F49EEF6C
S11338A0B8D128F040E851E059F45EEF09C071C185
S11338B023C2E92FE078FED168F3092E052AC1F36B
S11338C0261737074807590738F00E2E07F8E02562
S11338D069F0E025E0640AC0EF6307F8009407FA92
S11338E0DB01B9019D01DC01CA01AD01EF934AD0AE
S11338F0BFD10AD05F91552331F02BED3FE049E46D
S113390050FD49EC4CCF0895DF93DD27B92FBF77E5
S113391040E85FE31616170648075B0710F4D92F33
S1133920F6D19F938F937F936F93EFD2E8EFF0E0FC
S113393033D19ED12F913F914F915F91FBD1DD23E4
S113394049F09058A2EA2AED3FE049EC5FE3D078D1
S11339505D2736DFDF918CC1F2D008F481E0089551
S113396060D1E39596C10CD083C153D140F04AD1C4
S113397030F021F45F3F19F006C15111BEC109C1F5
S113398099D198F39923C9F35523B1F3951B550B9A
S1133990BB27AA2762177307840738F09F5F5F4F1E
S11339A0220F331F441FAA1FA9F333D00E2E3AF05F
S11339B0E0E830D091505040E695001CCAF729D079
S11339C0FE2F27D0660F771F881FBB1F26173707C8
S11339D04807AB07B0E809F0BB0B802DBF01FF27F8
S11339E093585F4F2AF09E3F510568F0CCC085C1C3
S11339F05F3FECF3983EDCF3869577956795B79532
S1133A00F7959F5FC9F7880F911D9695879597F94C
S1133A100895E1E0660F771F881FBB1F62177307C5
S1133A208407BA0720F0621B730B840BBA0BEE1FDA
S1133A3088F7E095089546D188F09F5790F0B92F04
S1133A409927B751A0F0D1F0660F771F881F991FEF
S1133A501AF0BA95C9F712C0B13081F04DD1B1E076
S1133A6008954AC1672F782F8827B85F39F0B93F86
S1133A70CCF3869577956795B395D9F73EF49095F1
S1133A808095709561957F4F8F4F9F4F0895E8946F
S1133A9009C097FB3EF490958095709561957F4F92
S1133AA08F4F9F4F9923A9F0F92F96E9BB27939540
S1133AB0F695879577956795B795F111F8CFFAF450
S1133AC0BB0F11F460FF1BC06F5F7F4F8F4F9F4F81
S1133AD016C0882311F096E911C0772321F09EE8DF
S1133AE0872F762F05C0662371F096E8862F70E045
S1133AF060E02AF09A95660F771F881FDAF7880F1F
S1133B009695879597F90895DF93CF931F930F9315
S1133B108B01EC01E5E2F1E03FD0AAD09801AE01BF
S1133B208B01EC0160E070E080E89FE337DEAFD109
S1133B309801AE010F911F91CF91DF91FBC0990FB6
S1133B400008550FAA0BE0E8FEEF16161706E80763
S1133B50F907C0F012161306E407F50798F0621B84
S1133B60730B840B950B39F40A2661F0232B242B59
S1133B70252B21F408950A2609F4A140A6958FEF78
S1133B80811D811D089597F99F6780E870E060E0CA
S1133B9008959FEF80EC0895DF93CF931F930F93C5
S1133BA0FF92EF92DF927B018C01689405C0DA2EBC
S1133BB0EF01C0D0FE01E894A5912591359145917E
S1133BC05591AEF3EF01FCDDFE019701A801DA94F3
S1133BD079F7DF90EF90FF900F911F91CF91DF91D4
S1133BE008959F938F937F936F93FF93EF939B011C
S1133BF0AC0194D0EF91FF91CFDF2F913F914F9182
S1133C005F918CC000240A9416161706180609063C
S1133C10089500240A94121613061406050608953E
S1133C20B8CF50D0E8F3E894E0E0BB279F57F0F01A
S1133C302AED3FE049EC06C0EE0FBB0F661F771F6D
S1133C40881F28F0B23A62077307840728F0B25A33
S1133C50620B730B840BE3959A9572F7803830F4FA
S1133C609A95BB0F661F771F881FD2F7904883C1B0
S1133C70092E0394000C11F4882352F0BB0F40F476
S1133C80BF2B11F460FF04C06F5F7F4F8F4F9F4FB6
S1133C900895EF93E0FF06C0A2EA2AED3FE049EC65
S1133CA05FEB8EDDE5DF0F90039401FC9058EDE4AB
S1133CB0F1E097CF57FD9058440F551F59F05F3FDF
S1133CC071F04795880F97FB991F61F09F3F79F03A
S1133CD087950895121613061406551FF2CF4695BC
S1133CE0F1DF08C0161617061806991FF1CF86953E
S1133CF07105610508940895E894BB276627772722
S1133D00CB0197F908951BDF08F48FEF08959B0109
S1133D10AC0160E070E080E89FE325CE0BD0A8CF33
S1133D2071DF28F076DF18F0952309F02CCF31CF1E
S1133D301124E3CFBFDFA0F3959FD1F3950F50E09B
S1133D40551F629FF001729FBB27F00DB11D639F49
S1133D50AA27F00DB11DAA1F649F6627B00DA11DEF
S1133D60661F829F2227B00DA11D621F739FB00D95
S1133D70A11D621F839FA00D611D221F749F332705
S1133D80A00D611D231F849F600D211D822F762F9E
S1133D906A2F11249F5750408AF0E1F088234AF09B
S1133DA0EE0FFF1FBB1F661F771F881F91505040E7
S1133DB0A9F79E3F510570F0E6CE9FCF5F3FECF32D
S1133DC0983EDCF3869577956795B795F795E795D3
S1133DD09F5FC1F7FE2B880F911D9695879597F9E4
S1133DE00895FA01EE0FFF1F30962105310599F170
S1133DF06115710561F48038BFE39B0749F168944C
S1133E009038810561F08038BFEF9B0741F099231A
S1133E1042F5FF3FE1053105210511F1E8940894CD
S1133E20E795D901AA2329F4AB2FBE2FF85FD0F36D
S1133E3010C0FF5F70F4A695E0F7F73950F019F061
S1133E40FF3A38F49F779F930CD00F9007FC90585B
S1133E5008953EF09ECE60E070E080E89FE3089510
S1133E604FE79F775F934F933F932F93D2D02F9138
S1133E703F914F915F9152DF50C09F93D2DE0F90DC
S1133E8007FCEE5F06CF11F40EF483CE72C01ADF86
S1133E90D0F39923D9F3CEF39F57550B87FF77D0EF
S1133EA00024A0E640EA900180585695979528F49E
S1133EB0805C660F771F881F20F026173707480796
S1133EC030F4621B730B840B202931294A2BA695ED
S1133ED017940794202531254A2758F7660F771F32
S1133EE0881F20F026173707480730F4620B730B3E
S1133EF0840B200D311D411DA09581F7B901842F3C
S1133F009158880F9695879508959B01AC0106CF2B
S1133F1019F40EF038CEF0CE3CCED4DEC8F3963889
S1133F20C0F707F80F92E8942BE33AEA48EB5FE70F
S1133F3003DF0F920F920F924DB75EB70F92A9D085
S1133F40EBE6F1E029DE4F915F91EF91FF91E5956A
S1133F50EE1FFF1F49F0FE57E0684427EE0F441F91
S1133F60FA95E1F74195550B1BD00F9007FECFCE84
S1133F7008959F3F31F0915020F487957795679588
S1133F80B795880F911D9695879597F90895915047
S1133F905040660F771F881FD2F70895F4CDE9CFFC
S1133FA091DEE8F39923D9F3940F511DBBF391509B
S1133FB0504094F059F0882332F0660F771F881F21
S1133FC091505040C1F79E3F510544F7880F911D11
S1133FD09695879597F908955F3FACF0983E9CF0CD
S1133FE0BB27869577956795B79508F4B160939547
S1133FF0C1F7BB0F58F711F460FFE8CF6F5F7F4F35
S11340008F4F9F4FE3CF79CE0EF0B3CFC2CD6894DC
S1134010BACD58DEC8F39923D1F3C6F3DF93CF9317
S11340201F930F93FF92C92FDD2788232AF021972E
S1134030660F771F881FDAF720E030E040E85FEB77
S11340409FE3883920F0803E30F021968F77A7DBFC
S1134050E3E9F1E003C0A3DBE0ECF1E09DDD8B01DB
S1134060BE01EC01FB2E6F5771097595771F880B04
S1134070990B0FDD28E132E741E35FE35BDEAF2D0F
S11340809801AE01FF900F911F91CF91DF9198DBC2
S1134090EFCDFA01DC01AA0FBB1F9B01AC01BF5796
S11340A028F422273327442750781FC0B75188F4B7
S11340B0AB2F0024469537952795011CA395D2F381
S11340C0002069F0220F331F441FB395DAF30DD09B
S11340D065CB61307105A0E88A07B94630F49B01CD
S11340E0AC016627772788279078309621F02083C3
S11340F03183428353830895FC0124853585F90176
S1134100E05CFF4F80819181329620813181805C17
S11341109F4F821B930B8F739078992324F40197FC
S1134120806C9F6F01960895FC0184859585FC0140
S1134130E05CFF4F408151813296208131814217EA
S1134140530741F020813181FC01E20FF31F80818C
S113415090E008958FEF9FEF0895FC018485958585
S1134160FC01E05CFF4F4081518132962081318116
S11341704217530781F020813181DC01A20FB31F64
S11341808C91208131812F5F3F4F2F7333273183EF
S1134190208390E008958FEF9FEF0895FC0181A1A3
S11341A0882329F0A489B5898C9186FFFBCF11A2BD
S11341B008951F93CF93DF93EC018E859F85FC01B7
S11341C0E05CFF4F0190F081E02D3196EF73FF2703
S11341D01E2F7F2FDC01AE5BBF4F212F372F4D9158
S11341E05C911197E417F507C1F3FC01E05CFF4F04
S11341F040815181FC01E40FF51F6083EE85FF854A
S1134200E05CFF4F31832083EE89FF89408121E008
S113421030E0C9010F8C02C0880F991F0A94E2F79D
S1134220842B808381E089A3EC89FD89808180646B
S1134230808381E090E0DF91CF911F9108951F92D8
S11342400F920FB60F9211240BB60F922F933F9338
S11342504F938F939F93AF93BF93EF93FF9380916B
S1134260C00082FD1AC04091C6008091F91190915E
S1134270FA1101968F7399272091FB113091FC114B
S11342808217930761F0E9EFF1E1A081B181A754AE
S1134290BE4E4C939183808302C08091C600FF91EF
S11342A0EF91BF91AF919F918F914F913F912F913A
S11342B00F900BBE0F900FBE0F901F9018951F927A
S11342C00F920FB60F9211240BB60F922F933F93B8
S11342D04F938F939F93AF93BF93EF93FF938091EB
S11342E0C80082FD1AC04091CE0080917111909156
S11342F0721101968F739927209173113091741163
S11343008217930761F0E1E7F1E1A081B181AF5C2D
S1134310BE4E4C939183808302C08091CE00FF9166
S1134320EF91BF91AF919F918F914F913F912F91B9
S11343300F900BBE0F900FBE0F901F9018951F92F9
S11343400F920FB60F9211240BB60F922F933F9337
S11343508F939F93AF93BF93EF93FF932091B511E6
S11343603091B6118091B7119091B811281739077F
S113437031F4E1ECF0E080818F7D808310C0E7EBC5
S1134380F1E1A081B181AB58BE4E2C918081918125
S113439001968F739927918380832093C600FF91A0
S11343A0EF91BF91AF919F918F913F912F910F907A
S11343B00BBE0F900FBE0F901F9018951F920F9277
S11343C00FB60F9211240BB60F922F933F938F9336
S11343D09F93AF93BF93EF93FF9320912D1130914F
S11343E02E1180912F11909130112817390731F433
S11343F0E9ECF0E080818F7D808310C0EFE2F1E191
S1134400A081B181A351BF4E2C91808191810196ED
S11344108F739927918380832093CE00FF91EF912E
S1134420BF91AF919F918F913F912F910F900BBEB0
S11344300F900FBE0F901F9018951F920F920FB6FA
S11344400F9211240BB60F922F933F938F939F9348
S1134450AF93BF93EF93FF932091A5103091A610D3
S11344608091A7109091A8102817390731F4E1ED35
S1134470F0E080818F7D808310C0E7EAF0E1A081C5
S1134480B181AB59BF4E2C918081918101968F737C
S11344909927918380832093D600FF91EF91BF9158
S11344A0AF919F918F913F912F910F900BBE0F90E1
S11344B00FBE0F901F9018951F920F920FB60F9278
S11344C011240BB60F922F933F938F939F93AF9327
S11344D0BF93EF93FF9320911D1030911E10809194
S11344E01F10909120102817390731F4E1E3F1E00F
S11344F080818F7D808310C0EFE1F0E1A081B181E4
S1134500A352B04F2C918081918101968F7399278A
S11345109183808320933601FF91EF91BF91AF91F6
S11345209F918F913F912F910F900BBE0F900FBED3
S11345300F901F9018958F929F92AF92BF92CF9237
S1134540DF92EF92FF920F931F93CF93DF93CDB738
S1134550DEB7FC011382128288EE93E0A0E0B0E0A3
S113456084839583A683B7838FEC92E091838083C1
S11345707587648757874687318B208B138B028B13
S1134580F58AE48AD78AC68AB18EA08E938E828EEB
S11345908889848F8989858F8A89868F8B89878F7B
S11345A08C8980A3DF91CF911F910F91FF90EF90A1
S11345B0DF90CF90BF90AF909F908F900895CF924F
S11345C0DF92EF92FF92CF93DF93EC016A017B01BC
S11345D0411581EE58076105710501F1EC89FD89EA
S11345E081E090E008A002C0880F991F0A94E2F7C6
S11345F0808360E079E08DE390E0A70196019ED38B
S1134600BA01A9014150510961097109769567956B
S113461057954795411580E15807A0F0EC89FD892D
S1134620108260E874E88EE190E0A701960186D3D9
S1134630BA01A9014150510961097109769567953B
S113464057954795E889F9895083EA89FB8940831E
S113465019A2EE89FF89408181E090E09C010C8CD5
S113466002C0220F331F0A94E2F7242B2083EE8921
S1134670FF8940819C010D8C02C0220F331F0A94D4
S1134680E2F7242B2083EE89FF8940819C010E8C64
S113469002C0220F331F0A94E2F7242B2083EE89F1
S11346A0FF8920810F8C02C0880F991F0A94E2F7BA
S11346B0809582238083DF91CF91FF90EF90DF90EC
S11346C0CF9008955F926F927F928F929F92AF9254
S11346D0BF92CF92DF92EF92FF920F931F93CF93EB
S11346E0DF93552453945F920F2EF5E06F2EF02D37
S11346F06F920F2EF7E07F2EF02D7F92D3E0DF93A1
S1134700C4E0CF930F2EF6EC8F2E912CF02D0F2EAC
S1134710F2ECAF2EB12CF02D0F2EF1ECCF2ED12CCC
S1134720F02D0F2EF0ECEF2EF12CF02D04EC10E018
S113473025EC30E045E751E169EB71E18BEB9FE05B
S1134740FADE5F926F927F92DF93CF930F2EFEEC8F
S11347508F2E912CF02D0F2EFAECAF2EB12CF02DC4
S11347600F2EF9ECCF2ED12CF02D0F2EF8ECEF2ECE
S1134770F12CF02D0CEC10E02DEC30E04DEE50E17E
S113478061E371E189E99FE0D6DE5F926F927F92E7
S1134790DF93CF930F2EF6ED8F2E912CF02D0F2E4D
S11347A0F2EDAF2EB12CF02D0F2EF1EDCF2ED12C3A
S11347B0F02D0F2EF0EDEF2EF12CF02D04ED10E086
S11347C025ED30E045E650E169EA70E187E79FE0D6
S11347D0B2DE5F926F927F92DF93CF930F2EF6E358
S11347E08F2E99249394F02D0F2EF2E3AF2EBB2439
S11347F0B394F02D0F2EF1E3CF2EDD24D394F02DBE
S11348000F2EF0E3EF2EFF24F394F02D04E311E0D8
S113481025E331E04DED5FE061E270E185E59FE085
S11348208ADE8DB79EB744960FB6F8949EBF0FBE2E
S11348308DBFDF91CF911F910F91FF90EF90DF908B
S1134840CF90BF90AF909F908F907F906F905F902C
S11348500895CF92DF92EF92FF920F931F93CF931D
S1134860DF936C0141155105B1F0062F172FEA01B2
S1134870E12CF12CD8016D918D01D601ED91FC91C3
S11348800190F081E02DC6011995E80EF91E2197DB
S1134890209781F702C0E12CF12CC701DF91CF9161
S11348A01F910F91FF90EF90DF90CF9008956115C5
S11348B0710581F0FB0101900020E9F73197AF0108
S11348C0461B570BDC01ED91FC910280F381E02D36
S11348D01995089580E090E00895DC01ED91FC9134
S11348E00190F081E02D199508950F931F93CF93B4
S11348F0DF93EC016DE0F1DF8C016AE0CE01EDDFC6
S1134900800F911FDF91CF911F910F9108950F9305
S11349101F93CF93DF93EC01CADF8C01CE01E5DF57
S1134920800F911FDF91CF911F910F9108951F92D6
S11349300F920FB60F9211242F933F938F939F934F
S1134940AF93BF938091FE119091FF11A09100123B
S1134950B09101123091FD1123E0230F2D3720F483
S11349600196A11DB11D05C026E8230F0296A11DC5
S1134970B11D2093FD118093FE119093FF11A0931C
S11349800012B09301128091021290910312A0912F
S11349900412B09105120196A11DB11D809302125B
S11349A090930312A0930412B0930512BF91AF9198
S11349B09F918F913F912F910F900FBE0F901F9059
S11349C018952FB7F8946091FE117091FF118091A2
S11349D00012909101122FBF08953FB7F89480916F
S11349E0021290910312A0910412B091051226B5FF
S11349F0A89B05C02F3F19F00196A11DB11D3FBF13
S1134A00BA2FA92F982F8827820F911DA11DB11DA0
S1134A10BC01CD01660F771F881F991F660F771F92
S1134A20881F991F0895CF92DF92EF92FF92CF9340
S1134A30DF936B017C01D1DFEB01C114D104E104EC
S1134A40F10491F0CADF6C1B7D0B683E734038F0B3
S1134A5081E0C81AD108E108F108C851DC4FC1143B
S1134A60D104E104F10471F7DF91CF91FF90EF904D
S1134A70DF90CF900895789484B5826084BD84B526
S1134A80816084BD85B5826085BD85B5816085BD45
S1134A90EEE6F0E0808181608083E1E8F0E010825E
S1134AA0808182608083808181608083E0E8F0E09F
S1134AB0808181608083E1EBF0E080818460808389
S1134AC0E0EBF0E0808181608083E1E9F0E08081C7
S1134AD082608083808181608083E0E9F0E080816E
S1134AE081608083E1EAF0E080818260808380815C
S1134AF081608083E0EAF0E0808181608083E1E28C
S1134B00F1E0808182608083808181608083E0E243
S1134B10F1E0808181608083EAE7F0E08081846055
S1134B2080838081826080838081816080838081B2
S1134B30806880831092C1000895863308F08653FC
S1134B40EBE7F0E09081282F2870977F922B9083D9
S1134B5087702091600290E4299F90011124282BF2
S1134B6020937C00EAE7F0E0808180648083808188
S1134B7086FDFDCF809178002091790090E0922B02
S1134B80089590E0FC013197E131F10508F058C037
S1134B90E950FF4F11C1E0E8F0E080818F77808316
S1134BA00895E0E8F0E080818F7D8083089584B5E6
S1134BB08F7784BD089584B58F7D84BD0895E0EB1F
S1134BC0F0E080818F7780830895E0EBF0E08081CE
S1134BD08F7D80830895E0E9F0E080818F77808382
S1134BE00895E0E9F0E080818F7D80830895E0E915
S1134BF0F0E08081877F80830895E0EAF0E080819F
S1134C008F7780830895E0EAF0E080818F7D808350
S1134C100895E0EAF0E08081877F80830895E0E2F0
S1134C20F1E080818F7780830895E0E2F1E0808174
S1134C308F7D80830895E0E2F1E08081877F808327
S1134C400895CF93DF9390E0FC01EA5AFD4F24913D
S1134C50FC01E456FD4F8491882371F190E0880FA4
S1134C60991FFC01EA5EFC4FA591B49184509D4FBD
S1134C70FC01C591D49161110BC08FB7F8949C913C
S1134C80209592239C93E8812E2328838FBF14C000
S1134C90623061F48FB7F8943C91922F90959323EE
S1134CA09C93E8812E2B28838FBF06C08FB7F8947E
S1134CB0EC912E2B2C938FBFDF91CF9108951F93EE
S1134CC0CF93DF93C62F282F30E0F901E05FFD4F2B
S1134CD08491F901EA5AFD4F1491F901E456FD4F0C
S1134CE0D491DD23C1F081114CDF2D2F30E0F90187
S1134CF0EE0FFF1FE450FD4FA591B4918FB7F894C8
S1134D00C11105C0EC9110951E231C9303C0EC91B6
S1134D101E2B1C938FBFDF91CF911F910895DB0150
S1134D208F939F934FD0BF91AF91A29F800D911D00
S1134D30A39F900DB29F900D11240895A1E21A2E05
S1134D40AA1BBB1BFD010DC0AA1FBB1FEE1FFF1F2B
S1134D50A217B307E407F50720F0A21BB30BE40B7B
S1134D60F50B661F771F881F991F1A9469F76095C2
S1134D707095809590959B01AC01BD01CF0108957C
S1134D80052E97FB16F400940FD057FD05D0D6DFFF
S1134D9007FC02D046F408C0509540953095219503
S1134DA03F4F4F4F5F4F0895909580957095619553
S1134DB07F4F8F4F9F4F0895EE0FFF1F0590F49183
S1134DC0E02D19940DD0A59F900DB49F900DA49F34
S1134DD0800D911D112408950790F691E02D1994EA
S1134DE0A29FB001B39FC001A39F700D811D112428
S1134DF0911DB29F700D811D1124911D08950F9373
S1134E001F93CF93DF93CDB7DEB72E970FB6F894E9
S1134E10DEBF0FBECDBF8C0186E08C831A8309836D
S1134E208FEF9FE79E838D83CE01019610D0EF8193
S1134E30F885E00FF11F10822E960FB6F894DEBFAE
S1134E400FBECDBFDF91CF911F910F9108952F9287
S1134E503F924F925F926F927F928F929F92AF9206
S1134E60BF92CF92DF92EF92FF920F931F93CF9353
S1134E70DF93CDB7DEB72C970FB6F894DEBF0FBE25
S1134E80CDBF7C016B018A01FC01178216828381EC
S1134E9081FFB0C1CE0101964C01F7019381F60167
S1134EA093FD859193FF81916F01882309F49EC13D
S1134EB0853239F493FD859193FF81916F01853299
S1134EC021F4B70190E0C7D1E8CF512C312C20E078
S1134ED02032A0F48B3269F030F4803259F08332FE
S1134EE069F420612CC08D3239F0803339F42160AB
S1134EF026C02260246023C0286021C027FD27C06B
S1134F0030ED380F3A3078F426FF06C0FAE05F9EA1
S1134F10300D1124532E13C08AE0389E300D112415
S1134F20332E20620CC08E3221F426FD5FC1206432
S1134F3006C08C3611F4206802C0883641F4F601AC
S1134F4093FD859193FF81916F018111C1CF982FBA
S1134F509F7D9554933028F40C5F1F4FFFE3F98332
S1134F600DC0833631F0833771F0833509F057C0B3
S1134F7021C0F801808189830E5F1F4F442443942C
S1134F80512C540114C03801F2E06F0E711CF80169
S1134F90A080B18026FF03C0652D70E002C06FEFD2
S1134FA07FEFC5012C874CD12C0183012C852F77F1
S1134FB0222E16C03801F2E06F0E711CF801A08099
S1134FC0B18026FF03C0652D70E002C06FEF7FEF54
S1134FD0C5012C872AD12C012C852068222E83011F
S1134FE023FC19C0832D90E048165906A0F4B7019C
S1134FF080E290E030D13A94F5CFF50127FC859119
S113500027FE81915F01B70190E025D131103A94D8
S1135010F1E04F1A51084114510479F7DEC0843687
S113502011F0893631F5F80127FF07C060817181DD
S1135030828193810C5F1F4F08C060817181882732
S113504077FD8095982F0E5F1F4F2F76B22E97FF16
S113505009C090958095709561957F4F8F4F9F4FB4
S11350602068B22E2AE030E0A40127D1A82EA81887
S113507043C0853729F42F7EB22E2AE030E025C0C4
S1135080F22FF97FBF2E8F36C1F018F4883579F0EE
S1135090ADC0803719F0883721F0A8C02F2F2061C8
S11350A0B22EB4FE0DC08B2D8460B82E09C024FF2F
S11350B00AC09F2F9660B92E06C028E030E005C0D4
S11350C020E130E002C020E132E0F801B7FE07C081
S11350D060817181828193810C5F1F4F06C0608162
S11350E0718180E090E00E5F1F4FA401E6D0A82EEE
S11350F0A818FB2DFF77BF2EB6FE0BC02B2D2E7FDD
S1135100A51450F4B4FE0AC0B2FC08C02B2D2E7EA8
S113511005C07A2C2B2D03C07A2C01C0752C24FFDA
S11351200DC0FE01EA0DF11D8081803311F4297E4A
S113513009C022FF06C07394739404C0822F86783A
S113514009F0739423FD12C020FF06C05A2C731477
S113515018F4530C5718732C731460F4B70180E2DD
S113516090E02C8778D073942C85F6CF731410F4C8
S1135170371801C0312C24FF11C0B70180E390E03F
S11351802C8769D02C8522FF16C021FF03C088E537
S113519090E002C088E790E0B7010CC0822F8678C7
S11351A051F021FD02C080E201C08BE227FD8DE2B7
S11351B0B70190E050D0A51430F4B70180E390E03B
S11351C04AD05A94F8CFAA94F401EA0DF11D8081D3
S11351D0B70190E040D0A110F6CF332009F45DCEA2
S11351E0B70180E290E037D03A94F7CFF701868197
S11351F0978102C08FEF9FEF2C960FB6F894DEBF15
S11352000FBECDBFDF91CF911F910F91FF90EF9013
S1135210DF90CF90BF90AF909F908F907F906F90D2
S11352205F904F903F902F900895FC01059061503E
S113523070400110D8F7809590958E0F9F1F0895A8
S1135240FC016150704001900110D8F78095909551
S11352508E0F9F1F08950F931F93CF93DF93182FE3
S1135260092FEB018B8181FD03C08FEF9FEF20C0DD
S113527082FF10C04E815F812C813D81421753070C
S11352807CF4E881F9819F012F5F3F4F39832883A4
S1135290108306C0E885F985812F1995892B29F794
S11352A02E813F812F5F3F4F3F832E83812F902F8D
S11352B0DF91CF911F910F910895FA01AA27283009
S11352C051F1203181F1E8946F936E7F6E5F7F4FCF
S11352D08F4F9F4FAF4FB1E03ED0B4E03CD0670F4B
S11352E0781F891F9A1FA11D680F791F8A1F911D9E
S11352F0A11D6A0F711D811D911DA11D20D009F4EE
S113530068943F912AE0269F11243019305D31932F
S1135310DEF6CF010895462F4770405D4193B3E018
S11353200FD0C9F7F6CF462F4F70405D4A3318F0BF
S1135330495D31FD4052419302D0A9F7EACFB4E070
S1135340A6959795879577956795BA95C9F7009728
S11353506105710508959B01AC010A2E06945795C9
S1135360479537952795BA95C9F7620F731F841F20
S10D5370951FA01D0895F894FFCFC7
S113537A000000000000803F0000004000004040A0
S113538A000080400000A0400000C0400000E0404F
S113539A000000410000803F0000000000000000FF
S11353AA000000000000803F000000000000000030
S11353BA000000000000803F0AD7A33C010001005E
S11353CA0100FFFFFFFFFFFF010001000100FFFFD3
S11353DA01018001800180FF7FFF7FFF7F616C7084
S11353EA686120006265746120007000414E473A8A
S11353FA2025642C2025642C25642C25640A002588
S113540A643A2025640049523A2025640A00492056
S113541A776173206865726500626500656E005481
S113542A61736B09320049444C450000000000587E
S113543A1B2C1B011B091B1C1B2B1B00000000D966
S10F544A2029247C20AD209420CE2000DA
S9030000FC
